{
	"format": "sphinx-sol-ct-artifact-1",
	"address": "0xb853758a70a6b4216c09f1d071ea2344aba0a34f",
	"sourceName": "node_modules/@bananapus/omnichain-deployers-v6/src/JBOmnichainDeployer.sol",
	"contractName": "JBOmnichainDeployer",
	"chainId": "0x66eee",
	"abi": [
		{
			"type": "constructor",
			"inputs": [
				{
					"name": "suckerRegistry",
					"type": "address",
					"internalType": "contract IJBSuckerRegistry"
				},
				{
					"name": "hookDeployer",
					"type": "address",
					"internalType": "contract IJB721TiersHookDeployer"
				},
				{
					"name": "permissions",
					"type": "address",
					"internalType": "contract IJBPermissions"
				},
				{
					"name": "controller",
					"type": "address",
					"internalType": "contract IJBController"
				},
				{
					"name": "trustedForwarder",
					"type": "address",
					"internalType": "address"
				}
			],
			"stateMutability": "nonpayable"
		},
		{
			"type": "function",
			"name": "CONTROLLER",
			"inputs": [],
			"outputs": [
				{
					"name": "",
					"type": "address",
					"internalType": "contract IJBController"
				}
			],
			"stateMutability": "view"
		},
		{
			"type": "function",
			"name": "DIRECTORY",
			"inputs": [],
			"outputs": [
				{
					"name": "",
					"type": "address",
					"internalType": "contract IJBDirectory"
				}
			],
			"stateMutability": "view"
		},
		{
			"type": "function",
			"name": "HOOK_DEPLOYER",
			"inputs": [],
			"outputs": [
				{
					"name": "",
					"type": "address",
					"internalType": "contract IJB721TiersHookDeployer"
				}
			],
			"stateMutability": "view"
		},
		{
			"type": "function",
			"name": "PERMISSIONS",
			"inputs": [],
			"outputs": [
				{
					"name": "",
					"type": "address",
					"internalType": "contract IJBPermissions"
				}
			],
			"stateMutability": "view"
		},
		{
			"type": "function",
			"name": "PROJECTS",
			"inputs": [],
			"outputs": [
				{
					"name": "",
					"type": "address",
					"internalType": "contract IJBProjects"
				}
			],
			"stateMutability": "view"
		},
		{
			"type": "function",
			"name": "SUCKER_REGISTRY",
			"inputs": [],
			"outputs": [
				{
					"name": "",
					"type": "address",
					"internalType": "contract IJBSuckerRegistry"
				}
			],
			"stateMutability": "view"
		},
		{
			"type": "function",
			"name": "beforeCashOutRecordedWith",
			"inputs": [
				{
					"name": "context",
					"type": "tuple",
					"internalType": "struct JBBeforeCashOutRecordedContext",
					"components": [
						{
							"name": "terminal",
							"type": "address",
							"internalType": "address"
						},
						{
							"name": "holder",
							"type": "address",
							"internalType": "address"
						},
						{
							"name": "projectId",
							"type": "uint256",
							"internalType": "uint256"
						},
						{
							"name": "rulesetId",
							"type": "uint256",
							"internalType": "uint256"
						},
						{
							"name": "cashOutCount",
							"type": "uint256",
							"internalType": "uint256"
						},
						{
							"name": "totalSupply",
							"type": "uint256",
							"internalType": "uint256"
						},
						{
							"name": "surplus",
							"type": "tuple",
							"internalType": "struct JBTokenAmount",
							"components": [
								{
									"name": "token",
									"type": "address",
									"internalType": "address"
								},
								{
									"name": "decimals",
									"type": "uint8",
									"internalType": "uint8"
								},
								{
									"name": "currency",
									"type": "uint32",
									"internalType": "uint32"
								},
								{
									"name": "value",
									"type": "uint256",
									"internalType": "uint256"
								}
							]
						},
						{
							"name": "scopeCashOutsToLocalBalances",
							"type": "bool",
							"internalType": "bool"
						},
						{
							"name": "cashOutTaxRate",
							"type": "uint256",
							"internalType": "uint256"
						},
						{
							"name": "beneficiaryIsFeeless",
							"type": "bool",
							"internalType": "bool"
						},
						{
							"name": "metadata",
							"type": "bytes",
							"internalType": "bytes"
						}
					]
				}
			],
			"outputs": [
				{
					"name": "cashOutTaxRate",
					"type": "uint256",
					"internalType": "uint256"
				},
				{
					"name": "cashOutCount",
					"type": "uint256",
					"internalType": "uint256"
				},
				{
					"name": "totalSupply",
					"type": "uint256",
					"internalType": "uint256"
				},
				{
					"name": "effectiveSurplusValue",
					"type": "uint256",
					"internalType": "uint256"
				},
				{
					"name": "hookSpecifications",
					"type": "tuple[]",
					"internalType": "struct JBCashOutHookSpecification[]",
					"components": [
						{
							"name": "hook",
							"type": "address",
							"internalType": "contract IJBCashOutHook"
						},
						{
							"name": "noop",
							"type": "bool",
							"internalType": "bool"
						},
						{
							"name": "amount",
							"type": "uint256",
							"internalType": "uint256"
						},
						{
							"name": "metadata",
							"type": "bytes",
							"internalType": "bytes"
						}
					]
				}
			],
			"stateMutability": "view"
		},
		{
			"type": "function",
			"name": "beforePayRecordedWith",
			"inputs": [
				{
					"name": "context",
					"type": "tuple",
					"internalType": "struct JBBeforePayRecordedContext",
					"components": [
						{
							"name": "terminal",
							"type": "address",
							"internalType": "address"
						},
						{
							"name": "payer",
							"type": "address",
							"internalType": "address"
						},
						{
							"name": "amount",
							"type": "tuple",
							"internalType": "struct JBTokenAmount",
							"components": [
								{
									"name": "token",
									"type": "address",
									"internalType": "address"
								},
								{
									"name": "decimals",
									"type": "uint8",
									"internalType": "uint8"
								},
								{
									"name": "currency",
									"type": "uint32",
									"internalType": "uint32"
								},
								{
									"name": "value",
									"type": "uint256",
									"internalType": "uint256"
								}
							]
						},
						{
							"name": "projectId",
							"type": "uint256",
							"internalType": "uint256"
						},
						{
							"name": "rulesetId",
							"type": "uint256",
							"internalType": "uint256"
						},
						{
							"name": "beneficiary",
							"type": "address",
							"internalType": "address"
						},
						{
							"name": "weight",
							"type": "uint256",
							"internalType": "uint256"
						},
						{
							"name": "reservedPercent",
							"type": "uint256",
							"internalType": "uint256"
						},
						{
							"name": "metadata",
							"type": "bytes",
							"internalType": "bytes"
						}
					]
				}
			],
			"outputs": [
				{
					"name": "weight",
					"type": "uint256",
					"internalType": "uint256"
				},
				{
					"name": "hookSpecifications",
					"type": "tuple[]",
					"internalType": "struct JBPayHookSpecification[]",
					"components": [
						{
							"name": "hook",
							"type": "address",
							"internalType": "contract IJBPayHook"
						},
						{
							"name": "noop",
							"type": "bool",
							"internalType": "bool"
						},
						{
							"name": "amount",
							"type": "uint256",
							"internalType": "uint256"
						},
						{
							"name": "metadata",
							"type": "bytes",
							"internalType": "bytes"
						}
					]
				}
			],
			"stateMutability": "view"
		},
		{
			"type": "function",
			"name": "deploySuckersFor",
			"inputs": [
				{
					"name": "projectId",
					"type": "uint256",
					"internalType": "uint256"
				},
				{
					"name": "suckerDeploymentConfiguration",
					"type": "tuple",
					"internalType": "struct JBSuckerDeploymentConfig",
					"components": [
						{
							"name": "deployerConfigurations",
							"type": "tuple[]",
							"internalType": "struct JBSuckerDeployerConfig[]",
							"components": [
								{
									"name": "deployer",
									"type": "address",
									"internalType": "contract IJBSuckerDeployer"
								},
								{
									"name": "peer",
									"type": "bytes32",
									"internalType": "bytes32"
								},
								{
									"name": "mappings",
									"type": "tuple[]",
									"internalType": "struct JBTokenMapping[]",
									"components": [
										{
											"name": "localToken",
											"type": "address",
											"internalType": "address"
										},
										{
											"name": "minGas",
											"type": "uint32",
											"internalType": "uint32"
										},
										{
											"name": "remoteToken",
											"type": "bytes32",
											"internalType": "bytes32"
										}
									]
								}
							]
						},
						{
							"name": "salt",
							"type": "bytes32",
							"internalType": "bytes32"
						}
					]
				}
			],
			"outputs": [
				{
					"name": "suckers",
					"type": "address[]",
					"internalType": "address[]"
				}
			],
			"stateMutability": "nonpayable"
		},
		{
			"type": "function",
			"name": "extraDataHookOf",
			"inputs": [
				{
					"name": "projectId",
					"type": "uint256",
					"internalType": "uint256"
				},
				{
					"name": "rulesetId",
					"type": "uint256",
					"internalType": "uint256"
				}
			],
			"outputs": [
				{
					"name": "hook",
					"type": "tuple",
					"internalType": "struct JBDeployerHookConfig",
					"components": [
						{
							"name": "dataHook",
							"type": "address",
							"internalType": "contract IJBRulesetDataHook"
						},
						{
							"name": "useDataHookForPay",
							"type": "bool",
							"internalType": "bool"
						},
						{
							"name": "useDataHookForCashOut",
							"type": "bool",
							"internalType": "bool"
						}
					]
				}
			],
			"stateMutability": "view"
		},
		{
			"type": "function",
			"name": "hasMintPermissionFor",
			"inputs": [
				{
					"name": "projectId",
					"type": "uint256",
					"internalType": "uint256"
				},
				{
					"name": "ruleset",
					"type": "tuple",
					"internalType": "struct JBRuleset",
					"components": [
						{
							"name": "cycleNumber",
							"type": "uint48",
							"internalType": "uint48"
						},
						{
							"name": "id",
							"type": "uint48",
							"internalType": "uint48"
						},
						{
							"name": "basedOnId",
							"type": "uint48",
							"internalType": "uint48"
						},
						{
							"name": "start",
							"type": "uint48",
							"internalType": "uint48"
						},
						{
							"name": "duration",
							"type": "uint32",
							"internalType": "uint32"
						},
						{
							"name": "weight",
							"type": "uint112",
							"internalType": "uint112"
						},
						{
							"name": "weightCutPercent",
							"type": "uint32",
							"internalType": "uint32"
						},
						{
							"name": "approvalHook",
							"type": "address",
							"internalType": "contract IJBRulesetApprovalHook"
						},
						{
							"name": "metadata",
							"type": "uint256",
							"internalType": "uint256"
						}
					]
				},
				{
					"name": "addr",
					"type": "address",
					"internalType": "address"
				}
			],
			"outputs": [
				{
					"name": "",
					"type": "bool",
					"internalType": "bool"
				}
			],
			"stateMutability": "view"
		},
		{
			"type": "function",
			"name": "isTrustedForwarder",
			"inputs": [
				{
					"name": "forwarder",
					"type": "address",
					"internalType": "address"
				}
			],
			"outputs": [
				{
					"name": "",
					"type": "bool",
					"internalType": "bool"
				}
			],
			"stateMutability": "view"
		},
		{
			"type": "function",
			"name": "launchProjectFor",
			"inputs": [
				{
					"name": "owner",
					"type": "address",
					"internalType": "address"
				},
				{
					"name": "projectUri",
					"type": "string",
					"internalType": "string"
				},
				{
					"name": "deploy721Config",
					"type": "tuple",
					"internalType": "struct JBOmnichain721Config",
					"components": [
						{
							"name": "deployTiersHookConfig",
							"type": "tuple",
							"internalType": "struct JBDeploy721TiersHookConfig",
							"components": [
								{
									"name": "name",
									"type": "string",
									"internalType": "string"
								},
								{
									"name": "symbol",
									"type": "string",
									"internalType": "string"
								},
								{
									"name": "baseUri",
									"type": "string",
									"internalType": "string"
								},
								{
									"name": "tokenUriResolver",
									"type": "address",
									"internalType": "contract IJB721TokenUriResolver"
								},
								{
									"name": "contractUri",
									"type": "string",
									"internalType": "string"
								},
								{
									"name": "tiersConfig",
									"type": "tuple",
									"internalType": "struct JB721InitTiersConfig",
									"components": [
										{
											"name": "tiers",
											"type": "tuple[]",
											"internalType": "struct JB721TierConfig[]",
											"components": [
												{
													"name": "price",
													"type": "uint104",
													"internalType": "uint104"
												},
												{
													"name": "initialSupply",
													"type": "uint32",
													"internalType": "uint32"
												},
												{
													"name": "votingUnits",
													"type": "uint32",
													"internalType": "uint32"
												},
												{
													"name": "reserveFrequency",
													"type": "uint16",
													"internalType": "uint16"
												},
												{
													"name": "reserveBeneficiary",
													"type": "address",
													"internalType": "address"
												},
												{
													"name": "encodedIpfsUri",
													"type": "bytes32",
													"internalType": "bytes32"
												},
												{
													"name": "category",
													"type": "uint24",
													"internalType": "uint24"
												},
												{
													"name": "discountPercent",
													"type": "uint8",
													"internalType": "uint8"
												},
												{
													"name": "flags",
													"type": "tuple",
													"internalType": "struct JB721TierConfigFlags",
													"components": [
														{
															"name": "allowOwnerMint",
															"type": "bool",
															"internalType": "bool"
														},
														{
															"name": "useReserveBeneficiaryAsDefault",
															"type": "bool",
															"internalType": "bool"
														},
														{
															"name": "transfersPausable",
															"type": "bool",
															"internalType": "bool"
														},
														{
															"name": "useVotingUnits",
															"type": "bool",
															"internalType": "bool"
														},
														{
															"name": "cantBeRemoved",
															"type": "bool",
															"internalType": "bool"
														},
														{
															"name": "cantIncreaseDiscountPercent",
															"type": "bool",
															"internalType": "bool"
														},
														{
															"name": "cantBuyWithCredits",
															"type": "bool",
															"internalType": "bool"
														}
													]
												},
												{
													"name": "splitPercent",
													"type": "uint32",
													"internalType": "uint32"
												},
												{
													"name": "splits",
													"type": "tuple[]",
													"internalType": "struct JBSplit[]",
													"components": [
														{
															"name": "percent",
															"type": "uint32",
															"internalType": "uint32"
														},
														{
															"name": "projectId",
															"type": "uint64",
															"internalType": "uint64"
														},
														{
															"name": "beneficiary",
															"type": "address",
															"internalType": "address payable"
														},
														{
															"name": "preferAddToBalance",
															"type": "bool",
															"internalType": "bool"
														},
														{
															"name": "lockedUntil",
															"type": "uint48",
															"internalType": "uint48"
														},
														{
															"name": "hook",
															"type": "address",
															"internalType": "contract IJBSplitHook"
														}
													]
												}
											]
										},
										{
											"name": "currency",
											"type": "uint32",
											"internalType": "uint32"
										},
										{
											"name": "decimals",
											"type": "uint8",
											"internalType": "uint8"
										}
									]
								},
								{
									"name": "flags",
									"type": "tuple",
									"internalType": "struct JB721TiersHookFlags",
									"components": [
										{
											"name": "noNewTiersWithReserves",
											"type": "bool",
											"internalType": "bool"
										},
										{
											"name": "noNewTiersWithVotes",
											"type": "bool",
											"internalType": "bool"
										},
										{
											"name": "noNewTiersWithOwnerMinting",
											"type": "bool",
											"internalType": "bool"
										},
										{
											"name": "preventOverspending",
											"type": "bool",
											"internalType": "bool"
										},
										{
											"name": "issueTokensForSplits",
											"type": "bool",
											"internalType": "bool"
										}
									]
								}
							]
						},
						{
							"name": "useDataHookForCashOut",
							"type": "bool",
							"internalType": "bool"
						},
						{
							"name": "salt",
							"type": "bytes32",
							"internalType": "bytes32"
						}
					]
				},
				{
					"name": "rulesetConfigurations",
					"type": "tuple[]",
					"internalType": "struct JBRulesetConfig[]",
					"components": [
						{
							"name": "mustStartAtOrAfter",
							"type": "uint48",
							"internalType": "uint48"
						},
						{
							"name": "duration",
							"type": "uint32",
							"internalType": "uint32"
						},
						{
							"name": "weight",
							"type": "uint112",
							"internalType": "uint112"
						},
						{
							"name": "weightCutPercent",
							"type": "uint32",
							"internalType": "uint32"
						},
						{
							"name": "approvalHook",
							"type": "address",
							"internalType": "contract IJBRulesetApprovalHook"
						},
						{
							"name": "metadata",
							"type": "tuple",
							"internalType": "struct JBRulesetMetadata",
							"components": [
								{
									"name": "reservedPercent",
									"type": "uint16",
									"internalType": "uint16"
								},
								{
									"name": "cashOutTaxRate",
									"type": "uint16",
									"internalType": "uint16"
								},
								{
									"name": "baseCurrency",
									"type": "uint32",
									"internalType": "uint32"
								},
								{
									"name": "pausePay",
									"type": "bool",
									"internalType": "bool"
								},
								{
									"name": "pauseCreditTransfers",
									"type": "bool",
									"internalType": "bool"
								},
								{
									"name": "allowOwnerMinting",
									"type": "bool",
									"internalType": "bool"
								},
								{
									"name": "allowSetCustomToken",
									"type": "bool",
									"internalType": "bool"
								},
								{
									"name": "allowTerminalMigration",
									"type": "bool",
									"internalType": "bool"
								},
								{
									"name": "allowSetTerminals",
									"type": "bool",
									"internalType": "bool"
								},
								{
									"name": "allowSetController",
									"type": "bool",
									"internalType": "bool"
								},
								{
									"name": "allowAddAccountingContext",
									"type": "bool",
									"internalType": "bool"
								},
								{
									"name": "allowAddPriceFeed",
									"type": "bool",
									"internalType": "bool"
								},
								{
									"name": "ownerMustSendPayouts",
									"type": "bool",
									"internalType": "bool"
								},
								{
									"name": "holdFees",
									"type": "bool",
									"internalType": "bool"
								},
								{
									"name": "scopeCashOutsToLocalBalances",
									"type": "bool",
									"internalType": "bool"
								},
								{
									"name": "useDataHookForPay",
									"type": "bool",
									"internalType": "bool"
								},
								{
									"name": "useDataHookForCashOut",
									"type": "bool",
									"internalType": "bool"
								},
								{
									"name": "dataHook",
									"type": "address",
									"internalType": "address"
								},
								{
									"name": "metadata",
									"type": "uint16",
									"internalType": "uint16"
								}
							]
						},
						{
							"name": "splitGroups",
							"type": "tuple[]",
							"internalType": "struct JBSplitGroup[]",
							"components": [
								{
									"name": "groupId",
									"type": "uint256",
									"internalType": "uint256"
								},
								{
									"name": "splits",
									"type": "tuple[]",
									"internalType": "struct JBSplit[]",
									"components": [
										{
											"name": "percent",
											"type": "uint32",
											"internalType": "uint32"
										},
										{
											"name": "projectId",
											"type": "uint64",
											"internalType": "uint64"
										},
										{
											"name": "beneficiary",
											"type": "address",
											"internalType": "address payable"
										},
										{
											"name": "preferAddToBalance",
											"type": "bool",
											"internalType": "bool"
										},
										{
											"name": "lockedUntil",
											"type": "uint48",
											"internalType": "uint48"
										},
										{
											"name": "hook",
											"type": "address",
											"internalType": "contract IJBSplitHook"
										}
									]
								}
							]
						},
						{
							"name": "fundAccessLimitGroups",
							"type": "tuple[]",
							"internalType": "struct JBFundAccessLimitGroup[]",
							"components": [
								{
									"name": "terminal",
									"type": "address",
									"internalType": "address"
								},
								{
									"name": "token",
									"type": "address",
									"internalType": "address"
								},
								{
									"name": "payoutLimits",
									"type": "tuple[]",
									"internalType": "struct JBCurrencyAmount[]",
									"components": [
										{
											"name": "amount",
											"type": "uint224",
											"internalType": "uint224"
										},
										{
											"name": "currency",
											"type": "uint32",
											"internalType": "uint32"
										}
									]
								},
								{
									"name": "surplusAllowances",
									"type": "tuple[]",
									"internalType": "struct JBCurrencyAmount[]",
									"components": [
										{
											"name": "amount",
											"type": "uint224",
											"internalType": "uint224"
										},
										{
											"name": "currency",
											"type": "uint32",
											"internalType": "uint32"
										}
									]
								}
							]
						}
					]
				},
				{
					"name": "terminalConfigurations",
					"type": "tuple[]",
					"internalType": "struct JBTerminalConfig[]",
					"components": [
						{
							"name": "terminal",
							"type": "address",
							"internalType": "contract IJBTerminal"
						},
						{
							"name": "accountingContextsToAccept",
							"type": "tuple[]",
							"internalType": "struct JBAccountingContext[]",
							"components": [
								{
									"name": "token",
									"type": "address",
									"internalType": "address"
								},
								{
									"name": "decimals",
									"type": "uint8",
									"internalType": "uint8"
								},
								{
									"name": "currency",
									"type": "uint32",
									"internalType": "uint32"
								}
							]
						}
					]
				},
				{
					"name": "memo",
					"type": "string",
					"internalType": "string"
				},
				{
					"name": "suckerDeploymentConfiguration",
					"type": "tuple",
					"internalType": "struct JBSuckerDeploymentConfig",
					"components": [
						{
							"name": "deployerConfigurations",
							"type": "tuple[]",
							"internalType": "struct JBSuckerDeployerConfig[]",
							"components": [
								{
									"name": "deployer",
									"type": "address",
									"internalType": "contract IJBSuckerDeployer"
								},
								{
									"name": "peer",
									"type": "bytes32",
									"internalType": "bytes32"
								},
								{
									"name": "mappings",
									"type": "tuple[]",
									"internalType": "struct JBTokenMapping[]",
									"components": [
										{
											"name": "localToken",
											"type": "address",
											"internalType": "address"
										},
										{
											"name": "minGas",
											"type": "uint32",
											"internalType": "uint32"
										},
										{
											"name": "remoteToken",
											"type": "bytes32",
											"internalType": "bytes32"
										}
									]
								}
							]
						},
						{
							"name": "salt",
							"type": "bytes32",
							"internalType": "bytes32"
						}
					]
				}
			],
			"outputs": [
				{
					"name": "projectId",
					"type": "uint256",
					"internalType": "uint256"
				},
				{
					"name": "hook",
					"type": "address",
					"internalType": "contract IJB721TiersHook"
				},
				{
					"name": "suckers",
					"type": "address[]",
					"internalType": "address[]"
				}
			],
			"stateMutability": "payable"
		},
		{
			"type": "function",
			"name": "launchProjectFor",
			"inputs": [
				{
					"name": "owner",
					"type": "address",
					"internalType": "address"
				},
				{
					"name": "projectUri",
					"type": "string",
					"internalType": "string"
				},
				{
					"name": "rulesetConfigurations",
					"type": "tuple[]",
					"internalType": "struct JBRulesetConfig[]",
					"components": [
						{
							"name": "mustStartAtOrAfter",
							"type": "uint48",
							"internalType": "uint48"
						},
						{
							"name": "duration",
							"type": "uint32",
							"internalType": "uint32"
						},
						{
							"name": "weight",
							"type": "uint112",
							"internalType": "uint112"
						},
						{
							"name": "weightCutPercent",
							"type": "uint32",
							"internalType": "uint32"
						},
						{
							"name": "approvalHook",
							"type": "address",
							"internalType": "contract IJBRulesetApprovalHook"
						},
						{
							"name": "metadata",
							"type": "tuple",
							"internalType": "struct JBRulesetMetadata",
							"components": [
								{
									"name": "reservedPercent",
									"type": "uint16",
									"internalType": "uint16"
								},
								{
									"name": "cashOutTaxRate",
									"type": "uint16",
									"internalType": "uint16"
								},
								{
									"name": "baseCurrency",
									"type": "uint32",
									"internalType": "uint32"
								},
								{
									"name": "pausePay",
									"type": "bool",
									"internalType": "bool"
								},
								{
									"name": "pauseCreditTransfers",
									"type": "bool",
									"internalType": "bool"
								},
								{
									"name": "allowOwnerMinting",
									"type": "bool",
									"internalType": "bool"
								},
								{
									"name": "allowSetCustomToken",
									"type": "bool",
									"internalType": "bool"
								},
								{
									"name": "allowTerminalMigration",
									"type": "bool",
									"internalType": "bool"
								},
								{
									"name": "allowSetTerminals",
									"type": "bool",
									"internalType": "bool"
								},
								{
									"name": "allowSetController",
									"type": "bool",
									"internalType": "bool"
								},
								{
									"name": "allowAddAccountingContext",
									"type": "bool",
									"internalType": "bool"
								},
								{
									"name": "allowAddPriceFeed",
									"type": "bool",
									"internalType": "bool"
								},
								{
									"name": "ownerMustSendPayouts",
									"type": "bool",
									"internalType": "bool"
								},
								{
									"name": "holdFees",
									"type": "bool",
									"internalType": "bool"
								},
								{
									"name": "scopeCashOutsToLocalBalances",
									"type": "bool",
									"internalType": "bool"
								},
								{
									"name": "useDataHookForPay",
									"type": "bool",
									"internalType": "bool"
								},
								{
									"name": "useDataHookForCashOut",
									"type": "bool",
									"internalType": "bool"
								},
								{
									"name": "dataHook",
									"type": "address",
									"internalType": "address"
								},
								{
									"name": "metadata",
									"type": "uint16",
									"internalType": "uint16"
								}
							]
						},
						{
							"name": "splitGroups",
							"type": "tuple[]",
							"internalType": "struct JBSplitGroup[]",
							"components": [
								{
									"name": "groupId",
									"type": "uint256",
									"internalType": "uint256"
								},
								{
									"name": "splits",
									"type": "tuple[]",
									"internalType": "struct JBSplit[]",
									"components": [
										{
											"name": "percent",
											"type": "uint32",
											"internalType": "uint32"
										},
										{
											"name": "projectId",
											"type": "uint64",
											"internalType": "uint64"
										},
										{
											"name": "beneficiary",
											"type": "address",
											"internalType": "address payable"
										},
										{
											"name": "preferAddToBalance",
											"type": "bool",
											"internalType": "bool"
										},
										{
											"name": "lockedUntil",
											"type": "uint48",
											"internalType": "uint48"
										},
										{
											"name": "hook",
											"type": "address",
											"internalType": "contract IJBSplitHook"
										}
									]
								}
							]
						},
						{
							"name": "fundAccessLimitGroups",
							"type": "tuple[]",
							"internalType": "struct JBFundAccessLimitGroup[]",
							"components": [
								{
									"name": "terminal",
									"type": "address",
									"internalType": "address"
								},
								{
									"name": "token",
									"type": "address",
									"internalType": "address"
								},
								{
									"name": "payoutLimits",
									"type": "tuple[]",
									"internalType": "struct JBCurrencyAmount[]",
									"components": [
										{
											"name": "amount",
											"type": "uint224",
											"internalType": "uint224"
										},
										{
											"name": "currency",
											"type": "uint32",
											"internalType": "uint32"
										}
									]
								},
								{
									"name": "surplusAllowances",
									"type": "tuple[]",
									"internalType": "struct JBCurrencyAmount[]",
									"components": [
										{
											"name": "amount",
											"type": "uint224",
											"internalType": "uint224"
										},
										{
											"name": "currency",
											"type": "uint32",
											"internalType": "uint32"
										}
									]
								}
							]
						}
					]
				},
				{
					"name": "terminalConfigurations",
					"type": "tuple[]",
					"internalType": "struct JBTerminalConfig[]",
					"components": [
						{
							"name": "terminal",
							"type": "address",
							"internalType": "contract IJBTerminal"
						},
						{
							"name": "accountingContextsToAccept",
							"type": "tuple[]",
							"internalType": "struct JBAccountingContext[]",
							"components": [
								{
									"name": "token",
									"type": "address",
									"internalType": "address"
								},
								{
									"name": "decimals",
									"type": "uint8",
									"internalType": "uint8"
								},
								{
									"name": "currency",
									"type": "uint32",
									"internalType": "uint32"
								}
							]
						}
					]
				},
				{
					"name": "memo",
					"type": "string",
					"internalType": "string"
				},
				{
					"name": "suckerDeploymentConfiguration",
					"type": "tuple",
					"internalType": "struct JBSuckerDeploymentConfig",
					"components": [
						{
							"name": "deployerConfigurations",
							"type": "tuple[]",
							"internalType": "struct JBSuckerDeployerConfig[]",
							"components": [
								{
									"name": "deployer",
									"type": "address",
									"internalType": "contract IJBSuckerDeployer"
								},
								{
									"name": "peer",
									"type": "bytes32",
									"internalType": "bytes32"
								},
								{
									"name": "mappings",
									"type": "tuple[]",
									"internalType": "struct JBTokenMapping[]",
									"components": [
										{
											"name": "localToken",
											"type": "address",
											"internalType": "address"
										},
										{
											"name": "minGas",
											"type": "uint32",
											"internalType": "uint32"
										},
										{
											"name": "remoteToken",
											"type": "bytes32",
											"internalType": "bytes32"
										}
									]
								}
							]
						},
						{
							"name": "salt",
							"type": "bytes32",
							"internalType": "bytes32"
						}
					]
				}
			],
			"outputs": [
				{
					"name": "projectId",
					"type": "uint256",
					"internalType": "uint256"
				},
				{
					"name": "hook",
					"type": "address",
					"internalType": "contract IJB721TiersHook"
				},
				{
					"name": "suckers",
					"type": "address[]",
					"internalType": "address[]"
				}
			],
			"stateMutability": "payable"
		},
		{
			"type": "function",
			"name": "launchRulesetsFor",
			"inputs": [
				{
					"name": "projectId",
					"type": "uint256",
					"internalType": "uint256"
				},
				{
					"name": "projectUri",
					"type": "string",
					"internalType": "string"
				},
				{
					"name": "rulesetConfigurations",
					"type": "tuple[]",
					"internalType": "struct JBRulesetConfig[]",
					"components": [
						{
							"name": "mustStartAtOrAfter",
							"type": "uint48",
							"internalType": "uint48"
						},
						{
							"name": "duration",
							"type": "uint32",
							"internalType": "uint32"
						},
						{
							"name": "weight",
							"type": "uint112",
							"internalType": "uint112"
						},
						{
							"name": "weightCutPercent",
							"type": "uint32",
							"internalType": "uint32"
						},
						{
							"name": "approvalHook",
							"type": "address",
							"internalType": "contract IJBRulesetApprovalHook"
						},
						{
							"name": "metadata",
							"type": "tuple",
							"internalType": "struct JBRulesetMetadata",
							"components": [
								{
									"name": "reservedPercent",
									"type": "uint16",
									"internalType": "uint16"
								},
								{
									"name": "cashOutTaxRate",
									"type": "uint16",
									"internalType": "uint16"
								},
								{
									"name": "baseCurrency",
									"type": "uint32",
									"internalType": "uint32"
								},
								{
									"name": "pausePay",
									"type": "bool",
									"internalType": "bool"
								},
								{
									"name": "pauseCreditTransfers",
									"type": "bool",
									"internalType": "bool"
								},
								{
									"name": "allowOwnerMinting",
									"type": "bool",
									"internalType": "bool"
								},
								{
									"name": "allowSetCustomToken",
									"type": "bool",
									"internalType": "bool"
								},
								{
									"name": "allowTerminalMigration",
									"type": "bool",
									"internalType": "bool"
								},
								{
									"name": "allowSetTerminals",
									"type": "bool",
									"internalType": "bool"
								},
								{
									"name": "allowSetController",
									"type": "bool",
									"internalType": "bool"
								},
								{
									"name": "allowAddAccountingContext",
									"type": "bool",
									"internalType": "bool"
								},
								{
									"name": "allowAddPriceFeed",
									"type": "bool",
									"internalType": "bool"
								},
								{
									"name": "ownerMustSendPayouts",
									"type": "bool",
									"internalType": "bool"
								},
								{
									"name": "holdFees",
									"type": "bool",
									"internalType": "bool"
								},
								{
									"name": "scopeCashOutsToLocalBalances",
									"type": "bool",
									"internalType": "bool"
								},
								{
									"name": "useDataHookForPay",
									"type": "bool",
									"internalType": "bool"
								},
								{
									"name": "useDataHookForCashOut",
									"type": "bool",
									"internalType": "bool"
								},
								{
									"name": "dataHook",
									"type": "address",
									"internalType": "address"
								},
								{
									"name": "metadata",
									"type": "uint16",
									"internalType": "uint16"
								}
							]
						},
						{
							"name": "splitGroups",
							"type": "tuple[]",
							"internalType": "struct JBSplitGroup[]",
							"components": [
								{
									"name": "groupId",
									"type": "uint256",
									"internalType": "uint256"
								},
								{
									"name": "splits",
									"type": "tuple[]",
									"internalType": "struct JBSplit[]",
									"components": [
										{
											"name": "percent",
											"type": "uint32",
											"internalType": "uint32"
										},
										{
											"name": "projectId",
											"type": "uint64",
											"internalType": "uint64"
										},
										{
											"name": "beneficiary",
											"type": "address",
											"internalType": "address payable"
										},
										{
											"name": "preferAddToBalance",
											"type": "bool",
											"internalType": "bool"
										},
										{
											"name": "lockedUntil",
											"type": "uint48",
											"internalType": "uint48"
										},
										{
											"name": "hook",
											"type": "address",
											"internalType": "contract IJBSplitHook"
										}
									]
								}
							]
						},
						{
							"name": "fundAccessLimitGroups",
							"type": "tuple[]",
							"internalType": "struct JBFundAccessLimitGroup[]",
							"components": [
								{
									"name": "terminal",
									"type": "address",
									"internalType": "address"
								},
								{
									"name": "token",
									"type": "address",
									"internalType": "address"
								},
								{
									"name": "payoutLimits",
									"type": "tuple[]",
									"internalType": "struct JBCurrencyAmount[]",
									"components": [
										{
											"name": "amount",
											"type": "uint224",
											"internalType": "uint224"
										},
										{
											"name": "currency",
											"type": "uint32",
											"internalType": "uint32"
										}
									]
								},
								{
									"name": "surplusAllowances",
									"type": "tuple[]",
									"internalType": "struct JBCurrencyAmount[]",
									"components": [
										{
											"name": "amount",
											"type": "uint224",
											"internalType": "uint224"
										},
										{
											"name": "currency",
											"type": "uint32",
											"internalType": "uint32"
										}
									]
								}
							]
						}
					]
				},
				{
					"name": "terminalConfigurations",
					"type": "tuple[]",
					"internalType": "struct JBTerminalConfig[]",
					"components": [
						{
							"name": "terminal",
							"type": "address",
							"internalType": "contract IJBTerminal"
						},
						{
							"name": "accountingContextsToAccept",
							"type": "tuple[]",
							"internalType": "struct JBAccountingContext[]",
							"components": [
								{
									"name": "token",
									"type": "address",
									"internalType": "address"
								},
								{
									"name": "decimals",
									"type": "uint8",
									"internalType": "uint8"
								},
								{
									"name": "currency",
									"type": "uint32",
									"internalType": "uint32"
								}
							]
						}
					]
				},
				{
					"name": "memo",
					"type": "string",
					"internalType": "string"
				}
			],
			"outputs": [
				{
					"name": "rulesetId",
					"type": "uint256",
					"internalType": "uint256"
				},
				{
					"name": "hook",
					"type": "address",
					"internalType": "contract IJB721TiersHook"
				}
			],
			"stateMutability": "nonpayable"
		},
		{
			"type": "function",
			"name": "launchRulesetsFor",
			"inputs": [
				{
					"name": "projectId",
					"type": "uint256",
					"internalType": "uint256"
				},
				{
					"name": "projectUri",
					"type": "string",
					"internalType": "string"
				},
				{
					"name": "deploy721Config",
					"type": "tuple",
					"internalType": "struct JBOmnichain721Config",
					"components": [
						{
							"name": "deployTiersHookConfig",
							"type": "tuple",
							"internalType": "struct JBDeploy721TiersHookConfig",
							"components": [
								{
									"name": "name",
									"type": "string",
									"internalType": "string"
								},
								{
									"name": "symbol",
									"type": "string",
									"internalType": "string"
								},
								{
									"name": "baseUri",
									"type": "string",
									"internalType": "string"
								},
								{
									"name": "tokenUriResolver",
									"type": "address",
									"internalType": "contract IJB721TokenUriResolver"
								},
								{
									"name": "contractUri",
									"type": "string",
									"internalType": "string"
								},
								{
									"name": "tiersConfig",
									"type": "tuple",
									"internalType": "struct JB721InitTiersConfig",
									"components": [
										{
											"name": "tiers",
											"type": "tuple[]",
											"internalType": "struct JB721TierConfig[]",
											"components": [
												{
													"name": "price",
													"type": "uint104",
													"internalType": "uint104"
												},
												{
													"name": "initialSupply",
													"type": "uint32",
													"internalType": "uint32"
												},
												{
													"name": "votingUnits",
													"type": "uint32",
													"internalType": "uint32"
												},
												{
													"name": "reserveFrequency",
													"type": "uint16",
													"internalType": "uint16"
												},
												{
													"name": "reserveBeneficiary",
													"type": "address",
													"internalType": "address"
												},
												{
													"name": "encodedIpfsUri",
													"type": "bytes32",
													"internalType": "bytes32"
												},
												{
													"name": "category",
													"type": "uint24",
													"internalType": "uint24"
												},
												{
													"name": "discountPercent",
													"type": "uint8",
													"internalType": "uint8"
												},
												{
													"name": "flags",
													"type": "tuple",
													"internalType": "struct JB721TierConfigFlags",
													"components": [
														{
															"name": "allowOwnerMint",
															"type": "bool",
															"internalType": "bool"
														},
														{
															"name": "useReserveBeneficiaryAsDefault",
															"type": "bool",
															"internalType": "bool"
														},
														{
															"name": "transfersPausable",
															"type": "bool",
															"internalType": "bool"
														},
														{
															"name": "useVotingUnits",
															"type": "bool",
															"internalType": "bool"
														},
														{
															"name": "cantBeRemoved",
															"type": "bool",
															"internalType": "bool"
														},
														{
															"name": "cantIncreaseDiscountPercent",
															"type": "bool",
															"internalType": "bool"
														},
														{
															"name": "cantBuyWithCredits",
															"type": "bool",
															"internalType": "bool"
														}
													]
												},
												{
													"name": "splitPercent",
													"type": "uint32",
													"internalType": "uint32"
												},
												{
													"name": "splits",
													"type": "tuple[]",
													"internalType": "struct JBSplit[]",
													"components": [
														{
															"name": "percent",
															"type": "uint32",
															"internalType": "uint32"
														},
														{
															"name": "projectId",
															"type": "uint64",
															"internalType": "uint64"
														},
														{
															"name": "beneficiary",
															"type": "address",
															"internalType": "address payable"
														},
														{
															"name": "preferAddToBalance",
															"type": "bool",
															"internalType": "bool"
														},
														{
															"name": "lockedUntil",
															"type": "uint48",
															"internalType": "uint48"
														},
														{
															"name": "hook",
															"type": "address",
															"internalType": "contract IJBSplitHook"
														}
													]
												}
											]
										},
										{
											"name": "currency",
											"type": "uint32",
											"internalType": "uint32"
										},
										{
											"name": "decimals",
											"type": "uint8",
											"internalType": "uint8"
										}
									]
								},
								{
									"name": "flags",
									"type": "tuple",
									"internalType": "struct JB721TiersHookFlags",
									"components": [
										{
											"name": "noNewTiersWithReserves",
											"type": "bool",
											"internalType": "bool"
										},
										{
											"name": "noNewTiersWithVotes",
											"type": "bool",
											"internalType": "bool"
										},
										{
											"name": "noNewTiersWithOwnerMinting",
											"type": "bool",
											"internalType": "bool"
										},
										{
											"name": "preventOverspending",
											"type": "bool",
											"internalType": "bool"
										},
										{
											"name": "issueTokensForSplits",
											"type": "bool",
											"internalType": "bool"
										}
									]
								}
							]
						},
						{
							"name": "useDataHookForCashOut",
							"type": "bool",
							"internalType": "bool"
						},
						{
							"name": "salt",
							"type": "bytes32",
							"internalType": "bytes32"
						}
					]
				},
				{
					"name": "rulesetConfigurations",
					"type": "tuple[]",
					"internalType": "struct JBRulesetConfig[]",
					"components": [
						{
							"name": "mustStartAtOrAfter",
							"type": "uint48",
							"internalType": "uint48"
						},
						{
							"name": "duration",
							"type": "uint32",
							"internalType": "uint32"
						},
						{
							"name": "weight",
							"type": "uint112",
							"internalType": "uint112"
						},
						{
							"name": "weightCutPercent",
							"type": "uint32",
							"internalType": "uint32"
						},
						{
							"name": "approvalHook",
							"type": "address",
							"internalType": "contract IJBRulesetApprovalHook"
						},
						{
							"name": "metadata",
							"type": "tuple",
							"internalType": "struct JBRulesetMetadata",
							"components": [
								{
									"name": "reservedPercent",
									"type": "uint16",
									"internalType": "uint16"
								},
								{
									"name": "cashOutTaxRate",
									"type": "uint16",
									"internalType": "uint16"
								},
								{
									"name": "baseCurrency",
									"type": "uint32",
									"internalType": "uint32"
								},
								{
									"name": "pausePay",
									"type": "bool",
									"internalType": "bool"
								},
								{
									"name": "pauseCreditTransfers",
									"type": "bool",
									"internalType": "bool"
								},
								{
									"name": "allowOwnerMinting",
									"type": "bool",
									"internalType": "bool"
								},
								{
									"name": "allowSetCustomToken",
									"type": "bool",
									"internalType": "bool"
								},
								{
									"name": "allowTerminalMigration",
									"type": "bool",
									"internalType": "bool"
								},
								{
									"name": "allowSetTerminals",
									"type": "bool",
									"internalType": "bool"
								},
								{
									"name": "allowSetController",
									"type": "bool",
									"internalType": "bool"
								},
								{
									"name": "allowAddAccountingContext",
									"type": "bool",
									"internalType": "bool"
								},
								{
									"name": "allowAddPriceFeed",
									"type": "bool",
									"internalType": "bool"
								},
								{
									"name": "ownerMustSendPayouts",
									"type": "bool",
									"internalType": "bool"
								},
								{
									"name": "holdFees",
									"type": "bool",
									"internalType": "bool"
								},
								{
									"name": "scopeCashOutsToLocalBalances",
									"type": "bool",
									"internalType": "bool"
								},
								{
									"name": "useDataHookForPay",
									"type": "bool",
									"internalType": "bool"
								},
								{
									"name": "useDataHookForCashOut",
									"type": "bool",
									"internalType": "bool"
								},
								{
									"name": "dataHook",
									"type": "address",
									"internalType": "address"
								},
								{
									"name": "metadata",
									"type": "uint16",
									"internalType": "uint16"
								}
							]
						},
						{
							"name": "splitGroups",
							"type": "tuple[]",
							"internalType": "struct JBSplitGroup[]",
							"components": [
								{
									"name": "groupId",
									"type": "uint256",
									"internalType": "uint256"
								},
								{
									"name": "splits",
									"type": "tuple[]",
									"internalType": "struct JBSplit[]",
									"components": [
										{
											"name": "percent",
											"type": "uint32",
											"internalType": "uint32"
										},
										{
											"name": "projectId",
											"type": "uint64",
											"internalType": "uint64"
										},
										{
											"name": "beneficiary",
											"type": "address",
											"internalType": "address payable"
										},
										{
											"name": "preferAddToBalance",
											"type": "bool",
											"internalType": "bool"
										},
										{
											"name": "lockedUntil",
											"type": "uint48",
											"internalType": "uint48"
										},
										{
											"name": "hook",
											"type": "address",
											"internalType": "contract IJBSplitHook"
										}
									]
								}
							]
						},
						{
							"name": "fundAccessLimitGroups",
							"type": "tuple[]",
							"internalType": "struct JBFundAccessLimitGroup[]",
							"components": [
								{
									"name": "terminal",
									"type": "address",
									"internalType": "address"
								},
								{
									"name": "token",
									"type": "address",
									"internalType": "address"
								},
								{
									"name": "payoutLimits",
									"type": "tuple[]",
									"internalType": "struct JBCurrencyAmount[]",
									"components": [
										{
											"name": "amount",
											"type": "uint224",
											"internalType": "uint224"
										},
										{
											"name": "currency",
											"type": "uint32",
											"internalType": "uint32"
										}
									]
								},
								{
									"name": "surplusAllowances",
									"type": "tuple[]",
									"internalType": "struct JBCurrencyAmount[]",
									"components": [
										{
											"name": "amount",
											"type": "uint224",
											"internalType": "uint224"
										},
										{
											"name": "currency",
											"type": "uint32",
											"internalType": "uint32"
										}
									]
								}
							]
						}
					]
				},
				{
					"name": "terminalConfigurations",
					"type": "tuple[]",
					"internalType": "struct JBTerminalConfig[]",
					"components": [
						{
							"name": "terminal",
							"type": "address",
							"internalType": "contract IJBTerminal"
						},
						{
							"name": "accountingContextsToAccept",
							"type": "tuple[]",
							"internalType": "struct JBAccountingContext[]",
							"components": [
								{
									"name": "token",
									"type": "address",
									"internalType": "address"
								},
								{
									"name": "decimals",
									"type": "uint8",
									"internalType": "uint8"
								},
								{
									"name": "currency",
									"type": "uint32",
									"internalType": "uint32"
								}
							]
						}
					]
				},
				{
					"name": "memo",
					"type": "string",
					"internalType": "string"
				}
			],
			"outputs": [
				{
					"name": "rulesetId",
					"type": "uint256",
					"internalType": "uint256"
				},
				{
					"name": "hook",
					"type": "address",
					"internalType": "contract IJB721TiersHook"
				}
			],
			"stateMutability": "nonpayable"
		},
		{
			"type": "function",
			"name": "onERC721Received",
			"inputs": [
				{
					"name": "",
					"type": "address",
					"internalType": "address"
				},
				{
					"name": "from",
					"type": "address",
					"internalType": "address"
				},
				{
					"name": "tokenId",
					"type": "uint256",
					"internalType": "uint256"
				},
				{
					"name": "",
					"type": "bytes",
					"internalType": "bytes"
				}
			],
			"outputs": [
				{
					"name": "",
					"type": "bytes4",
					"internalType": "bytes4"
				}
			],
			"stateMutability": "view"
		},
		{
			"type": "function",
			"name": "originalPayer",
			"inputs": [],
			"outputs": [
				{
					"name": "",
					"type": "address",
					"internalType": "address"
				}
			],
			"stateMutability": "view"
		},
		{
			"type": "function",
			"name": "peerChainAdjustedAccountsOf",
			"inputs": [
				{
					"name": "projectId",
					"type": "uint256",
					"internalType": "uint256"
				}
			],
			"outputs": [
				{
					"name": "supply",
					"type": "uint256",
					"internalType": "uint256"
				},
				{
					"name": "contexts",
					"type": "tuple[]",
					"internalType": "struct JBSourceContext[]",
					"components": [
						{
							"name": "token",
							"type": "bytes32",
							"internalType": "bytes32"
						},
						{
							"name": "decimals",
							"type": "uint8",
							"internalType": "uint8"
						},
						{
							"name": "surplus",
							"type": "uint128",
							"internalType": "uint128"
						},
						{
							"name": "balance",
							"type": "uint128",
							"internalType": "uint128"
						}
					]
				}
			],
			"stateMutability": "view"
		},
		{
			"type": "function",
			"name": "queueRulesetsOf",
			"inputs": [
				{
					"name": "projectId",
					"type": "uint256",
					"internalType": "uint256"
				},
				{
					"name": "rulesetConfigurations",
					"type": "tuple[]",
					"internalType": "struct JBRulesetConfig[]",
					"components": [
						{
							"name": "mustStartAtOrAfter",
							"type": "uint48",
							"internalType": "uint48"
						},
						{
							"name": "duration",
							"type": "uint32",
							"internalType": "uint32"
						},
						{
							"name": "weight",
							"type": "uint112",
							"internalType": "uint112"
						},
						{
							"name": "weightCutPercent",
							"type": "uint32",
							"internalType": "uint32"
						},
						{
							"name": "approvalHook",
							"type": "address",
							"internalType": "contract IJBRulesetApprovalHook"
						},
						{
							"name": "metadata",
							"type": "tuple",
							"internalType": "struct JBRulesetMetadata",
							"components": [
								{
									"name": "reservedPercent",
									"type": "uint16",
									"internalType": "uint16"
								},
								{
									"name": "cashOutTaxRate",
									"type": "uint16",
									"internalType": "uint16"
								},
								{
									"name": "baseCurrency",
									"type": "uint32",
									"internalType": "uint32"
								},
								{
									"name": "pausePay",
									"type": "bool",
									"internalType": "bool"
								},
								{
									"name": "pauseCreditTransfers",
									"type": "bool",
									"internalType": "bool"
								},
								{
									"name": "allowOwnerMinting",
									"type": "bool",
									"internalType": "bool"
								},
								{
									"name": "allowSetCustomToken",
									"type": "bool",
									"internalType": "bool"
								},
								{
									"name": "allowTerminalMigration",
									"type": "bool",
									"internalType": "bool"
								},
								{
									"name": "allowSetTerminals",
									"type": "bool",
									"internalType": "bool"
								},
								{
									"name": "allowSetController",
									"type": "bool",
									"internalType": "bool"
								},
								{
									"name": "allowAddAccountingContext",
									"type": "bool",
									"internalType": "bool"
								},
								{
									"name": "allowAddPriceFeed",
									"type": "bool",
									"internalType": "bool"
								},
								{
									"name": "ownerMustSendPayouts",
									"type": "bool",
									"internalType": "bool"
								},
								{
									"name": "holdFees",
									"type": "bool",
									"internalType": "bool"
								},
								{
									"name": "scopeCashOutsToLocalBalances",
									"type": "bool",
									"internalType": "bool"
								},
								{
									"name": "useDataHookForPay",
									"type": "bool",
									"internalType": "bool"
								},
								{
									"name": "useDataHookForCashOut",
									"type": "bool",
									"internalType": "bool"
								},
								{
									"name": "dataHook",
									"type": "address",
									"internalType": "address"
								},
								{
									"name": "metadata",
									"type": "uint16",
									"internalType": "uint16"
								}
							]
						},
						{
							"name": "splitGroups",
							"type": "tuple[]",
							"internalType": "struct JBSplitGroup[]",
							"components": [
								{
									"name": "groupId",
									"type": "uint256",
									"internalType": "uint256"
								},
								{
									"name": "splits",
									"type": "tuple[]",
									"internalType": "struct JBSplit[]",
									"components": [
										{
											"name": "percent",
											"type": "uint32",
											"internalType": "uint32"
										},
										{
											"name": "projectId",
											"type": "uint64",
											"internalType": "uint64"
										},
										{
											"name": "beneficiary",
											"type": "address",
											"internalType": "address payable"
										},
										{
											"name": "preferAddToBalance",
											"type": "bool",
											"internalType": "bool"
										},
										{
											"name": "lockedUntil",
											"type": "uint48",
											"internalType": "uint48"
										},
										{
											"name": "hook",
											"type": "address",
											"internalType": "contract IJBSplitHook"
										}
									]
								}
							]
						},
						{
							"name": "fundAccessLimitGroups",
							"type": "tuple[]",
							"internalType": "struct JBFundAccessLimitGroup[]",
							"components": [
								{
									"name": "terminal",
									"type": "address",
									"internalType": "address"
								},
								{
									"name": "token",
									"type": "address",
									"internalType": "address"
								},
								{
									"name": "payoutLimits",
									"type": "tuple[]",
									"internalType": "struct JBCurrencyAmount[]",
									"components": [
										{
											"name": "amount",
											"type": "uint224",
											"internalType": "uint224"
										},
										{
											"name": "currency",
											"type": "uint32",
											"internalType": "uint32"
										}
									]
								},
								{
									"name": "surplusAllowances",
									"type": "tuple[]",
									"internalType": "struct JBCurrencyAmount[]",
									"components": [
										{
											"name": "amount",
											"type": "uint224",
											"internalType": "uint224"
										},
										{
											"name": "currency",
											"type": "uint32",
											"internalType": "uint32"
										}
									]
								}
							]
						}
					]
				},
				{
					"name": "memo",
					"type": "string",
					"internalType": "string"
				}
			],
			"outputs": [
				{
					"name": "rulesetId",
					"type": "uint256",
					"internalType": "uint256"
				},
				{
					"name": "hook",
					"type": "address",
					"internalType": "contract IJB721TiersHook"
				}
			],
			"stateMutability": "nonpayable"
		},
		{
			"type": "function",
			"name": "queueRulesetsOf",
			"inputs": [
				{
					"name": "projectId",
					"type": "uint256",
					"internalType": "uint256"
				},
				{
					"name": "deploy721Config",
					"type": "tuple",
					"internalType": "struct JBOmnichain721Config",
					"components": [
						{
							"name": "deployTiersHookConfig",
							"type": "tuple",
							"internalType": "struct JBDeploy721TiersHookConfig",
							"components": [
								{
									"name": "name",
									"type": "string",
									"internalType": "string"
								},
								{
									"name": "symbol",
									"type": "string",
									"internalType": "string"
								},
								{
									"name": "baseUri",
									"type": "string",
									"internalType": "string"
								},
								{
									"name": "tokenUriResolver",
									"type": "address",
									"internalType": "contract IJB721TokenUriResolver"
								},
								{
									"name": "contractUri",
									"type": "string",
									"internalType": "string"
								},
								{
									"name": "tiersConfig",
									"type": "tuple",
									"internalType": "struct JB721InitTiersConfig",
									"components": [
										{
											"name": "tiers",
											"type": "tuple[]",
											"internalType": "struct JB721TierConfig[]",
											"components": [
												{
													"name": "price",
													"type": "uint104",
													"internalType": "uint104"
												},
												{
													"name": "initialSupply",
													"type": "uint32",
													"internalType": "uint32"
												},
												{
													"name": "votingUnits",
													"type": "uint32",
													"internalType": "uint32"
												},
												{
													"name": "reserveFrequency",
													"type": "uint16",
													"internalType": "uint16"
												},
												{
													"name": "reserveBeneficiary",
													"type": "address",
													"internalType": "address"
												},
												{
													"name": "encodedIpfsUri",
													"type": "bytes32",
													"internalType": "bytes32"
												},
												{
													"name": "category",
													"type": "uint24",
													"internalType": "uint24"
												},
												{
													"name": "discountPercent",
													"type": "uint8",
													"internalType": "uint8"
												},
												{
													"name": "flags",
													"type": "tuple",
													"internalType": "struct JB721TierConfigFlags",
													"components": [
														{
															"name": "allowOwnerMint",
															"type": "bool",
															"internalType": "bool"
														},
														{
															"name": "useReserveBeneficiaryAsDefault",
															"type": "bool",
															"internalType": "bool"
														},
														{
															"name": "transfersPausable",
															"type": "bool",
															"internalType": "bool"
														},
														{
															"name": "useVotingUnits",
															"type": "bool",
															"internalType": "bool"
														},
														{
															"name": "cantBeRemoved",
															"type": "bool",
															"internalType": "bool"
														},
														{
															"name": "cantIncreaseDiscountPercent",
															"type": "bool",
															"internalType": "bool"
														},
														{
															"name": "cantBuyWithCredits",
															"type": "bool",
															"internalType": "bool"
														}
													]
												},
												{
													"name": "splitPercent",
													"type": "uint32",
													"internalType": "uint32"
												},
												{
													"name": "splits",
													"type": "tuple[]",
													"internalType": "struct JBSplit[]",
													"components": [
														{
															"name": "percent",
															"type": "uint32",
															"internalType": "uint32"
														},
														{
															"name": "projectId",
															"type": "uint64",
															"internalType": "uint64"
														},
														{
															"name": "beneficiary",
															"type": "address",
															"internalType": "address payable"
														},
														{
															"name": "preferAddToBalance",
															"type": "bool",
															"internalType": "bool"
														},
														{
															"name": "lockedUntil",
															"type": "uint48",
															"internalType": "uint48"
														},
														{
															"name": "hook",
															"type": "address",
															"internalType": "contract IJBSplitHook"
														}
													]
												}
											]
										},
										{
											"name": "currency",
											"type": "uint32",
											"internalType": "uint32"
										},
										{
											"name": "decimals",
											"type": "uint8",
											"internalType": "uint8"
										}
									]
								},
								{
									"name": "flags",
									"type": "tuple",
									"internalType": "struct JB721TiersHookFlags",
									"components": [
										{
											"name": "noNewTiersWithReserves",
											"type": "bool",
											"internalType": "bool"
										},
										{
											"name": "noNewTiersWithVotes",
											"type": "bool",
											"internalType": "bool"
										},
										{
											"name": "noNewTiersWithOwnerMinting",
											"type": "bool",
											"internalType": "bool"
										},
										{
											"name": "preventOverspending",
											"type": "bool",
											"internalType": "bool"
										},
										{
											"name": "issueTokensForSplits",
											"type": "bool",
											"internalType": "bool"
										}
									]
								}
							]
						},
						{
							"name": "useDataHookForCashOut",
							"type": "bool",
							"internalType": "bool"
						},
						{
							"name": "salt",
							"type": "bytes32",
							"internalType": "bytes32"
						}
					]
				},
				{
					"name": "rulesetConfigurations",
					"type": "tuple[]",
					"internalType": "struct JBRulesetConfig[]",
					"components": [
						{
							"name": "mustStartAtOrAfter",
							"type": "uint48",
							"internalType": "uint48"
						},
						{
							"name": "duration",
							"type": "uint32",
							"internalType": "uint32"
						},
						{
							"name": "weight",
							"type": "uint112",
							"internalType": "uint112"
						},
						{
							"name": "weightCutPercent",
							"type": "uint32",
							"internalType": "uint32"
						},
						{
							"name": "approvalHook",
							"type": "address",
							"internalType": "contract IJBRulesetApprovalHook"
						},
						{
							"name": "metadata",
							"type": "tuple",
							"internalType": "struct JBRulesetMetadata",
							"components": [
								{
									"name": "reservedPercent",
									"type": "uint16",
									"internalType": "uint16"
								},
								{
									"name": "cashOutTaxRate",
									"type": "uint16",
									"internalType": "uint16"
								},
								{
									"name": "baseCurrency",
									"type": "uint32",
									"internalType": "uint32"
								},
								{
									"name": "pausePay",
									"type": "bool",
									"internalType": "bool"
								},
								{
									"name": "pauseCreditTransfers",
									"type": "bool",
									"internalType": "bool"
								},
								{
									"name": "allowOwnerMinting",
									"type": "bool",
									"internalType": "bool"
								},
								{
									"name": "allowSetCustomToken",
									"type": "bool",
									"internalType": "bool"
								},
								{
									"name": "allowTerminalMigration",
									"type": "bool",
									"internalType": "bool"
								},
								{
									"name": "allowSetTerminals",
									"type": "bool",
									"internalType": "bool"
								},
								{
									"name": "allowSetController",
									"type": "bool",
									"internalType": "bool"
								},
								{
									"name": "allowAddAccountingContext",
									"type": "bool",
									"internalType": "bool"
								},
								{
									"name": "allowAddPriceFeed",
									"type": "bool",
									"internalType": "bool"
								},
								{
									"name": "ownerMustSendPayouts",
									"type": "bool",
									"internalType": "bool"
								},
								{
									"name": "holdFees",
									"type": "bool",
									"internalType": "bool"
								},
								{
									"name": "scopeCashOutsToLocalBalances",
									"type": "bool",
									"internalType": "bool"
								},
								{
									"name": "useDataHookForPay",
									"type": "bool",
									"internalType": "bool"
								},
								{
									"name": "useDataHookForCashOut",
									"type": "bool",
									"internalType": "bool"
								},
								{
									"name": "dataHook",
									"type": "address",
									"internalType": "address"
								},
								{
									"name": "metadata",
									"type": "uint16",
									"internalType": "uint16"
								}
							]
						},
						{
							"name": "splitGroups",
							"type": "tuple[]",
							"internalType": "struct JBSplitGroup[]",
							"components": [
								{
									"name": "groupId",
									"type": "uint256",
									"internalType": "uint256"
								},
								{
									"name": "splits",
									"type": "tuple[]",
									"internalType": "struct JBSplit[]",
									"components": [
										{
											"name": "percent",
											"type": "uint32",
											"internalType": "uint32"
										},
										{
											"name": "projectId",
											"type": "uint64",
											"internalType": "uint64"
										},
										{
											"name": "beneficiary",
											"type": "address",
											"internalType": "address payable"
										},
										{
											"name": "preferAddToBalance",
											"type": "bool",
											"internalType": "bool"
										},
										{
											"name": "lockedUntil",
											"type": "uint48",
											"internalType": "uint48"
										},
										{
											"name": "hook",
											"type": "address",
											"internalType": "contract IJBSplitHook"
										}
									]
								}
							]
						},
						{
							"name": "fundAccessLimitGroups",
							"type": "tuple[]",
							"internalType": "struct JBFundAccessLimitGroup[]",
							"components": [
								{
									"name": "terminal",
									"type": "address",
									"internalType": "address"
								},
								{
									"name": "token",
									"type": "address",
									"internalType": "address"
								},
								{
									"name": "payoutLimits",
									"type": "tuple[]",
									"internalType": "struct JBCurrencyAmount[]",
									"components": [
										{
											"name": "amount",
											"type": "uint224",
											"internalType": "uint224"
										},
										{
											"name": "currency",
											"type": "uint32",
											"internalType": "uint32"
										}
									]
								},
								{
									"name": "surplusAllowances",
									"type": "tuple[]",
									"internalType": "struct JBCurrencyAmount[]",
									"components": [
										{
											"name": "amount",
											"type": "uint224",
											"internalType": "uint224"
										},
										{
											"name": "currency",
											"type": "uint32",
											"internalType": "uint32"
										}
									]
								}
							]
						}
					]
				},
				{
					"name": "memo",
					"type": "string",
					"internalType": "string"
				}
			],
			"outputs": [
				{
					"name": "rulesetId",
					"type": "uint256",
					"internalType": "uint256"
				},
				{
					"name": "hook",
					"type": "address",
					"internalType": "contract IJB721TiersHook"
				}
			],
			"stateMutability": "nonpayable"
		},
		{
			"type": "function",
			"name": "supportsInterface",
			"inputs": [
				{
					"name": "interfaceId",
					"type": "bytes4",
					"internalType": "bytes4"
				}
			],
			"outputs": [
				{
					"name": "flag",
					"type": "bool",
					"internalType": "bool"
				}
			],
			"stateMutability": "view"
		},
		{
			"type": "function",
			"name": "tiered721HookOf",
			"inputs": [
				{
					"name": "projectId",
					"type": "uint256",
					"internalType": "uint256"
				},
				{
					"name": "rulesetId",
					"type": "uint256",
					"internalType": "uint256"
				}
			],
			"outputs": [
				{
					"name": "hook",
					"type": "address",
					"internalType": "contract IJB721TiersHook"
				},
				{
					"name": "useDataHookForCashOut",
					"type": "bool",
					"internalType": "bool"
				}
			],
			"stateMutability": "view"
		},
		{
			"type": "function",
			"name": "trustedForwarder",
			"inputs": [],
			"outputs": [
				{
					"name": "",
					"type": "address",
					"internalType": "address"
				}
			],
			"stateMutability": "view"
		},
		{
			"type": "error",
			"name": "JBOmnichainDeployer_ControllerMismatch",
			"inputs": [
				{
					"name": "projectId",
					"type": "uint256",
					"internalType": "uint256"
				},
				{
					"name": "expectedController",
					"type": "address",
					"internalType": "address"
				},
				{
					"name": "actualController",
					"type": "address",
					"internalType": "address"
				}
			]
		},
		{
			"type": "error",
			"name": "JBOmnichainDeployer_InvalidHook",
			"inputs": [
				{
					"name": "hook",
					"type": "address",
					"internalType": "address"
				},
				{
					"name": "projectId",
					"type": "uint256",
					"internalType": "uint256"
				},
				{
					"name": "rulesetId",
					"type": "uint256",
					"internalType": "uint256"
				}
			]
		},
		{
			"type": "error",
			"name": "JBOmnichainDeployer_NoRulesetConfigurations",
			"inputs": [
				{
					"name": "rulesetConfigurationCount",
					"type": "uint256",
					"internalType": "uint256"
				}
			]
		},
		{
			"type": "error",
			"name": "JBOmnichainDeployer_RulesetIdsUnpredictable",
			"inputs": [
				{
					"name": "projectId",
					"type": "uint256",
					"internalType": "uint256"
				},
				{
					"name": "latestRulesetId",
					"type": "uint256",
					"internalType": "uint256"
				},
				{
					"name": "currentTimestamp",
					"type": "uint256",
					"internalType": "uint256"
				}
			]
		},
		{
			"type": "error",
			"name": "JBOmnichainDeployer_UnexpectedNFTReceived",
			"inputs": [
				{
					"name": "caller",
					"type": "address",
					"internalType": "address"
				},
				{
					"name": "from",
					"type": "address",
					"internalType": "address"
				},
				{
					"name": "tokenId",
					"type": "uint256",
					"internalType": "uint256"
				}
			]
		},
		{
			"type": "error",
			"name": "JBPermissioned_Unauthorized",
			"inputs": [
				{
					"name": "account",
					"type": "address",
					"internalType": "address"
				},
				{
					"name": "sender",
					"type": "address",
					"internalType": "address"
				},
				{
					"name": "projectId",
					"type": "uint256",
					"internalType": "uint256"
				},
				{
					"name": "permissionId",
					"type": "uint256",
					"internalType": "uint256"
				}
			]
		},
		{
			"type": "error",
			"name": "PRBMath_MulDiv_Overflow",
			"inputs": [
				{
					"name": "x",
					"type": "uint256",
					"internalType": "uint256"
				},
				{
					"name": "y",
					"type": "uint256",
					"internalType": "uint256"
				},
				{
					"name": "denominator",
					"type": "uint256",
					"internalType": "uint256"
				}
			]
		}
	],
	"args": [
		"0x7903a854aE91eAf635430D120a1a434085cEf297",
		"0xb7B8EC35e2dd84afff04Ee769C6189e7A4d44A78",
		"0xf92AC1aB5A00033E35a3975739124F61928C36B0",
		"0x3Fcec3572e84b624477BcfF4E2CF1f7dEAb648F1",
		"0x3bA60b60933916a7C87D0860DcEE62a0CE34E3e2"
	],
	"solcInputHash": "9a3e5010f6c6a02ca2f8c85694eb3be2",
	"bytecode": "0x61016080604052346103335760a081615be9803803809161002082856103f7565b8339810103126103335780516001600160a01b0381168103610333576020820151906001600160a01b03821682036103335760408301516001600160a01b03811681036103335760608401516001600160a01b0381169490919085830361033357608001516001600160a01b03811681036103335760805260a05260c05260405163293c499960e01b8152602081600481875afa9081156103a1575f916103ac575b506101205261014052610100526040516388bc2ef360e01b815290602090829060049082905afa9081156103a1575f9161035f575b5060e0526040805161010982826103f7565b6001815260208101601f19830136823781511561034b576020905261014051825191906001600160a01b0316606083016001600160401b03811184821017610337578452825260208201915f835283810191825260018060a01b0360a0511691823b15610333578451631127c92960e21b81523060048201526024810186905291516001600160a01b0316604483015292516001600160401b03166064820152915160606084840152805160a48401819052839160c48301916020909101905f5b8181106103175750505091815f81819503925af1801561030d576102fd575b50516157ce908161041b823960805181818161072d01528181610b920152615793015260a051818181610227015281816109dd0152818161463e0152818161496301528181614a4701528181614b2b0152614cc1015260c05181818161026b01528181612b9c01528181613cac015281816140e60152818161482e015281816150a9015261519f015260e0518181816106e90152818161505e0152615158015261010051818181610418015261536e01526101205181818161080f01528181610ebb01528181610f3d01528181613c0e01528181613d3f01528181613da6015281816140700152614721015261014051818181610346015281816108f50152818161281101528181612f7a0152613e650152f35b5f610307916103f7565b5f6101e9565b82513d5f823e3d90fd5b825160ff168452869450602093840193909201916001016101ca565b5f80fd5b634e487b7160e01b5f52604160045260245ffd5b634e487b7160e01b5f52603260045260245ffd5b90506020813d602011610399575b8161037a602093836103f7565b8101031261033357516001600160a01b0381168103610333575f6100f7565b3d915061036d565b6040513d5f823e3d90fd5b90506020939193813d6020116103ef575b816103ca602093836103f7565b810103126103335751916001600160a01b0383168303610333579092909160046100c2565b3d91506103bd565b601f909101601f19168101906001600160401b038211908210176103375760405256fe6080806040526004361015610012575f80fd5b5f3560e01c90816301ffc9a714610fa957508063150b7a0214610eea578063293c499914610ea6578063296eee5114610e815780632d99317314610d915780633141db7014610d2c57806338945b5814610c835780634509224414610bc6578063572b6c0514610b72578063670d99be14610a90578063673706e8146107bb5780636a19a70f1461075c5780637da0a8771461071857806388bc2ef3146106d45780638cc35846146105fb57806394e1cf571461055e57806399f6d77f14610447578063abf8c5c814610403578063b0401dab14610375578063b5d2553314610331578063b64ce2c31461029a578063ee0fc12114610256578063f434c914146102125763f672acac14610124575f80fd5b3461020e57602036600319011261020e576004356001600160401b03811161020e576101c0600319823603011261020e5761016190600401612f70565b91939060405194859460a0860193865260208601526040850152606084015260a06080840152815180915260c0830190602060c08260051b8601019301915f905b8282106101b157505050500390f35b919360019193955060206101fe819260bf198a8203018652608060608a51878060a01b03815116845285810151151586850152604081015160408501520151918160608201520190611d0b565b96019201920185949391926101a2565b5f80fd5b3461020e575f36600319011261020e576040517f00000000000000000000000000000000000000000000000000000000000000006001600160a01b03168152602090f35b3461020e575f36600319011261020e576040517f00000000000000000000000000000000000000000000000000000000000000006001600160a01b03168152602090f35b3461020e57602036600319011261020e576102b6600435612b7f565b90604051918291604083019083526040602084015281518091526020606084019201905f5b8181106102e9575050500390f35b91935091602060806001926001600160801b03606088518051845260ff86820151168685015282604082015116604085015201511660608201520194019101918493926102db565b3461020e575f36600319011261020e576040517f00000000000000000000000000000000000000000000000000000000000000006001600160a01b03168152602090f35b3461020e5761038336611cf5565b905f60408051610392816110fe565b82815282602082015201525f525f60205260405f20905f52602052606060405f20604051906103c0826110fe565b5460018060a01b0381169182815260ff60406020830192828560a01c1615158452019260a81c161515825260405192835251151560208301525115156040820152f35b3461020e575f36600319011261020e576040517f00000000000000000000000000000000000000000000000000000000000000006001600160a01b03168152602090f35b3461020e5761016036600319011261020e5761012036602319011261020e57604051610472816110e2565b60243565ffffffffffff8116810361020e57815260443565ffffffffffff8116810361020e57602082015260643565ffffffffffff8116810361020e57604082015260843565ffffffffffff8116810361020e57606082015260a43563ffffffff8116810361020e57608082015260c4356001600160701b038116810361020e5760a082015260e43563ffffffff8116810361020e5760c0820152610104356001600160a01b038116810361020e5760e08201526101243561010082015261014435906001600160a01b038216820361020e57602091610554916004356127de565b6040519015158152f35b3461020e57608036600319011261020e576024356001600160401b03811161020e5761058e90369060040161191c565b6044356001600160401b03811161020e576105ad9036906004016113b8565b606435916001600160401b03831161020e576105d06105db933690600401611086565b92909160043561404a565b604080519283526001600160a01b039091166020830152819081015b0390f35b3461020e57602036600319011261020e576004356001600160401b03811161020e57610180600319823603011261020e5761063890600401612211565b90604051918291604083019083526040602084015281518091526060830190602060608260051b8601019301915f905b82821061067757505050500390f35b919360019193955060206106c48192605f198a8203018652608060608a51878060a01b03815116845285810151151586850152604081015160408501520151918160608201520190611d0b565b9601920192018594939192610668565b3461020e575f36600319011261020e576040517f00000000000000000000000000000000000000000000000000000000000000006001600160a01b03168152602090f35b3461020e575f36600319011261020e576040517f00000000000000000000000000000000000000000000000000000000000000006001600160a01b03168152602090f35b3461020e5761076a36611cf5565b905f52600160205260405f20905f526020526040805f20602082519161078f836110b3565b546001600160a01b03811680845260a09190911c60ff1615159190920181905282519182526020820152f35b3461020e57604036600319011261020e576024356004356001600160401b03821161020e5781600401906040600319843603011261020e576040516331a9108f60e11b8152600481018290526020816024817f00000000000000000000000000000000000000000000000000000000000000006001600160a01b03165afa908115610967575f91610a56575b50610850615768565b6001600160a01b038281169116808214158061099d575b610972576108f05f86866108d28a61088084848b614bde565b6108ba6108c861088e615768565b6040805160249590950135602086019081526001600160a01b0390921690850152929182906060820190565b03601f1981018352826111a2565b5190209280611d43565b604051639d7f900160e01b8152958694859491939160048601611e2d565b0381837f00000000000000000000000000000000000000000000000000000000000000006001600160a01b03165af18015610967576105f7915f91610945575b50604051918291602083526020830190611848565b61096191503d805f833e61095981836111a2565b810190611d78565b82610930565b6040513d5f823e3d90fd5b908360849260405192631326f75560e11b845260048401526024830152604482015260216064820152fd5b50604051631a45b42760e11b81526004810182905260248101839052604481018590526021606482015260016084820181905260a482015260208160c4817f00000000000000000000000000000000000000000000000000000000000000006001600160a01b03165afa908115610967575f91610a1c575b5015610867565b90506020813d602011610a4e575b81610a37602093836111a2565b8101031261020e57610a4890611f62565b87610a15565b3d9150610a2a565b90506020813d602011610a88575b81610a71602093836111a2565b8101031261020e57610a8290611d2f565b84610847565b3d9150610a64565b60c036600319011261020e57610aa461105c565b6024356001600160401b03811161020e57610ac3903690600401611086565b91906044356001600160401b03811161020e57610ae49036906004016113b8565b6064356001600160401b03811161020e57610b03903690600401611818565b6084929192356001600160401b03811161020e57610b25903690600401611086565b93909260a435966001600160401b03881161020e576040600319893603011261020e576105f798610b639860040197610b5d84613f4e565b92613bbd565b60409391935193849384611884565b3461020e57602036600319011261020e576020610b8d61105c565b6040517f00000000000000000000000000000000000000000000000000000000000000006001600160a01b039081169216919091148152f35b3461020e5760c036600319011261020e576024356001600160401b03811161020e57610bf6903690600401611086565b6044356001600160401b03811161020e57610c1590369060040161191c565b916064356001600160401b03811161020e57610c359036906004016113b8565b6084356001600160401b03811161020e57610c54903690600401611818565b9160a435956001600160401b03871161020e57610c786105db973690600401611086565b9690956004356146f1565b3461020e5760a036600319011261020e576024356001600160401b03811161020e57610cb3903690600401611086565b906044356001600160401b03811161020e57610cd39036906004016113b8565b916064356001600160401b03811161020e57610cf3903690600401611818565b90608435946001600160401b03861161020e57610d176105db963690600401611086565b959094610d2383613f4e565b916004356146f1565b3461020e57606036600319011261020e576024356001600160401b03811161020e57610d5c9036906004016113b8565b604435906001600160401b03821161020e57610d7f6105db923690600401611086565b91610d8981613f4e565b60043561404a565b60e036600319011261020e57610da561105c565b6024356001600160401b03811161020e57610dc4903690600401611086565b9091604435906001600160401b03821161020e576060600319833603011261020e576064356001600160401b03811161020e57610e059036906004016113b8565b906084356001600160401b03811161020e57610e25903690600401611818565b9060a4356001600160401b03811161020e57610e45903690600401611086565b94909360c435976001600160401b03891161020e5760406003198a3603011261020e576105f799610b5d610b639a60040199369060040161191c565b3461020e575f36600319011261020e576040515f5c6001600160a01b03168152602090f35b3461020e575f36600319011261020e576040517f00000000000000000000000000000000000000000000000000000000000000006001600160a01b03168152602090f35b3461020e57608036600319011261020e57610f0361105c565b506024356001600160a01b0381169081900361020e576064356001600160401b03811161020e57610f38903690600401611086565b5050337f00000000000000000000000000000000000000000000000000000000000000006001600160a01b031614801590610fa0575b610f8457604051630a85bd0160e11b8152602090f35b6388470c7960e01b5f523360045260245260443560445260645ffd5b50801515610f6e565b3461020e57602036600319011261020e576004359063ffffffff60e01b821680920361020e5760209163c1c8b89b60e01b811490811561104b575b811561103a575b8115611029575b8115611018575b8115611007575b5015158152f35b6301ffc9a760e01b14905083611000565b630a85bd0160e11b81149150610ff9565b63296eee5160e01b81149150610ff2565b63b64ce2c360e01b81149150610feb565b63e347239560e01b81149150610fe4565b600435906001600160a01b038216820361020e57565b35906001600160a01b038216820361020e57565b9181601f8401121561020e578235916001600160401b03831161020e576020838186019501011161020e57565b604081019081106001600160401b038211176110ce57604052565b634e487b7160e01b5f52604160045260245ffd5b61012081019081106001600160401b038211176110ce57604052565b606081019081106001600160401b038211176110ce57604052565b61026081019081106001600160401b038211176110ce57604052565b608081019081106001600160401b038211176110ce57604052565b60e081019081106001600160401b038211176110ce57604052565b61016081019081106001600160401b038211176110ce57604052565b60a081019081106001600160401b038211176110ce57604052565b90601f801991011681019081106001600160401b038211176110ce57604052565b6001600160401b0381116110ce5760051b60200190565b359065ffffffffffff8216820361020e57565b359063ffffffff8216820361020e57565b359061ffff8216820361020e57565b3590811515820361020e57565b81601f8201121561020e57803590611231826111c3565b9261123f60405194856111a2565b828452602060c081860194028301019181831161020e57602001925b828410611269575050505090565b60c08483031261020e576040519060c082018281106001600160401b038211176110ce57604052611299856111ed565b825260208501356001600160401b038116810361020e57602083015260408501356001600160a01b038116810361020e5760408301526112db6060860161120d565b60608301526112ec608086016111da565b608083015260a0850135906001600160a01b038216820361020e578260209260a060c095015281520193019261125b565b81601f8201121561020e57803590611334826111c3565b9261134260405194856111a2565b82845260208085019360061b8301019181831161020e57602001925b82841061136c575050505090565b60408483031261020e5760405190611383826110b3565b8435906001600160e01b038216820361020e5782602092604094526113a98388016111ed565b8382015281520193019261135e565b9080601f8301121561020e578135916113d0836111c3565b926113de60405194856111a2565b80845260208085019160051b8301019183831161020e5760208101915b83831061140a57505050505090565b82356001600160401b03811161020e578201808603601f190190610340821261020e576040519161010083018381106001600160401b038211176110ce57604052611457602083016111da565b8352611465604083016111ed565b60208401526060820135906001600160701b038216820361020e57610260916040850152611495608084016111ed565b60608501526114a660a08401611072565b6080850152609f19011261020e576040516114c081611119565b6114cc60c083016111fe565b81526114da60e083016111fe565b60208201526114ec61010083016111ed565b60408201526114fe610120830161120d565b6060820152611510610140830161120d565b6080820152611522610160830161120d565b60a0820152611534610180830161120d565b60c08201526115466101a0830161120d565b60e08201526115586101c0830161120d565b61010082015261156b6101e0830161120d565b61012082015261157e610200830161120d565b610140820152611591610220830161120d565b6101608201526115a4610240830161120d565b6101808201526115b7610260830161120d565b6101a08201526115ca610280830161120d565b6101c08201526115dd6102a0830161120d565b6101e08201526115f06102c0830161120d565b6102008201526116036102e08301611072565b61022082015261161661030083016111fe565b61024082015260a08301526103208101356001600160401b03811161020e5760209082010187601f8201121561020e57803590611652826111c3565b9161166060405193846111a2565b80835260208084019160051b830101918a831161020e5760208101915b8383106117b0575050505060c08301526103408101356001600160401b03811161020e57602091010186601f8201121561020e578035906116bd826111c3565b916116cb60405193846111a2565b80835260208084019160051b8301019189831161020e5760208101915b838310611706575050505060e08201528152602092830192016113fb565b82356001600160401b03811161020e578201906080828d03601f19011261020e576040519061173482611135565b61174060208401611072565b825261174e60408401611072565b602083015260608301356001600160401b03811161020e578d60206117759286010161131d565b60408301526080830135916001600160401b03831161020e576117a08e60208096958196010161131d565b60608201528152019201916116e8565b82356001600160401b03811161020e5782016040818e03601f19011261020e57604051916117dd836110b3565b602082013583526040820135926001600160401b03841161020e576118098f602080968196010161121a565b8382015281520192019161167d565b9181601f8401121561020e578235916001600160401b03831161020e576020808501948460051b01011161020e57565b90602080835192838152019201905f5b8181106118655750505090565b82516001600160a01b0316845260209384019390920191600101611858565b9081526001600160a01b0390911660208201526060604082018190526118ac92910190611848565b90565b6001600160401b0381116110ce57601f01601f191660200190565b81601f8201121561020e576020813591016118e4826118af565b926118f260405194856111a2565b8284528282011161020e57815f92602092838601378301015290565b359060ff8216820361020e57565b919060608382031261020e5760405190611935826110fe565b819380356001600160401b03811161020e57810190818303610160811261020e576040519361196385611150565b83356001600160401b03811161020e578161197f9186016118ca565b855260208401356001600160401b03811161020e57816119a09186016118ca565b602086015260408401356001600160401b03811161020e57816119c49186016118ca565b604086015260608401356001600160a01b038116810361020e57606086015260808401356001600160401b03811161020e5781611a029186016118ca565b608086015260a08401356001600160401b03811161020e57840160608183031261020e5760405191611a33836110fe565b81356001600160401b03811161020e5782019080601f8301121561020e57813591611a5d836111c3565b92611a6b60405194856111a2565b80845260208085019160051b8301019183831161020e5760208101915b838310611b4d57505050505060408392611ab89260a0969552611aad602082016111ed565b60208501520161190e565b60408201528583015260bf19011261020e576040928392611b29610140855192611ae184611187565b611aed60c0820161120d565b8452611afb60e0820161120d565b6020850152611b0d610100820161120d565b87850152611b1e610120820161120d565b60608501520161120d565b608082015260c08201528452611b416020820161120d565b60208501520135910152565b82356001600160401b03811161020e57820190818603601f190190610220821261020e5760405191611b7e8361116b565b60208401356cffffffffffffffffffffffffff8116810361020e578352611ba7604085016111ed565b6020840152611bb8606085016111ed565b6040840152611bc9608085016111fe565b6060840152611bda60a08501611072565b608084015260c084013560a084015260e08401359062ffffff8216820361020e5760e09160c0850152611c10610100860161190e565b8483015260ff19011261020e57604051611c2981611150565b611c36610120850161120d565b8152611c45610140850161120d565b6020820152611c57610160850161120d565b6040820152611c69610180850161120d565b6060820152611c7b6101a0850161120d565b6080820152611c8d6101c0850161120d565b60a0820152611c9f6101e0850161120d565b60c0820152610100830152611cb761020084016111ed565b610120830152610220830135916001600160401b03831161020e57611ce48860208096958196010161121a565b610140820152815201920191611a88565b604090600319011261020e576004359060243590565b805180835260209291819084018484015e5f828201840152601f01601f1916010190565b51906001600160a01b038216820361020e57565b903590601e198136030182121561020e57018035906001600160401b03821161020e57602001918160051b3603831361020e57565b60208183031261020e578051906001600160401b03821161020e57019080601f8301121561020e578151611dab816111c3565b92611db960405194856111a2565b81845260208085019260051b82010192831161020e57602001905b828210611de15750505090565b60208091611dee84611d2f565b815201910190611dd4565b9035601e198236030181121561020e5701602081359101916001600160401b03821161020e57606082023603831361020e57565b93919082916060860191865260208601526060604086015252608083019260808260051b82010193835f92605e1982360301905b858510611e72575050505050505090565b90919293949596607f1982820301855287358381121561020e57606082019190850180356001600160a01b0381169081900361020e57608091611ec5918452602081013560208501526040810190611df9565b60606040850152938490529101915f905b808210611ef757505050602080600192990195019501939594929190611e61565b909192606080600192838060a01b03611f0f88611072565b16815263ffffffff611f23602089016111ed565b16602082015260408701356040820152019401920190611ed6565b60405190611f4b82611135565b606080835f81525f60208201525f60408201520152565b5190811515820361020e57565b81601f8201121561020e57805190611f86826118af565b92611f9460405194856111a2565b8284526020838301011161020e57815f9260208093018386015e8301015290565b919060408382031261020e578251926020810151906001600160401b03821161020e57019080601f8301121561020e57815191611ff1836111c3565b92611fff60405194856111a2565b80845260208085019160051b8301019183831161020e5760208101915b83831061202b57505050505090565b82516001600160401b03811161020e578201906080828703601f19011261020e576040519061205982611135565b60208301516001600160a01b038116810361020e57825261207c60408401611f62565b6020830152606083015160408301526080830151916001600160401b03831161020e576120b188602080969581960101611f6f565b606082015281520192019161201c565b60609081906001600160a01b036120d782611072565b16845260ff6120e86020830161190e565b16602085015263ffffffff6120ff604083016111ed565b1660408501520135910152565b9035601e198236030181121561020e5701602081359101916001600160401b03821161020e57813603831361020e57565b908060209392818452848401375f828201840152601f01601f1916010190565b80511561216a5760200190565b634e487b7160e01b5f52603260045260245ffd5b805182101561216a5760209160051b010190565b9190820391821161219f57565b634e487b7160e01b5f52601160045260245ffd5b919082608091031261020e576040516121cb81611135565b60608082946121d981611072565b84526121e76020820161190e565b60208501526121f8604082016111ed565b60408501520135910152565b9190820180921161219f57565b905f9160c0810135805f52600160205260405f209360e083013594855f5260205260405f2060ff60405191612245836110b3565b546001600160a01b038116835260a01c1615156020820152612265611f3e565b935f915f975f935f905f9360018060a01b039051168061264e575b5060a08501359081811061263f5750505f965b6060975f93825f525f60205260405f20815f5260205260405f2092604051936122bb856110fe565b5460018060a01b03811680865260ff808360a01c1615159283602089015260a81c161515604087015215159081612637575b50612418575b5050505050156123f9575b50505081518515806123f1575b6123e6576123249086156123de5760ff60015b16612204565b9261232e846111c3565b9361233c60405195866111a2565b80855261234b601f19916111c3565b015f5b8181106123c757505083905f966123a9575b505f5b83518110156123a0578061239961237c6001938761217e565b51612387838b612204565b90612392828a61217e565b528761217e565b5001612363565b50939250935050565b600196506123b68561215d565b526123c08461215d565b505f612360565b6020906123d2611f3e565b8282890101520161234e565b60ff5f61231e565b509350606092915050565b50801561230b565b919250901561240c57505b5f80806122fe565b61012091500135612404565b91939998509193506101808636031261020e57604051612437816110e2565b61244087611072565b815261244e60208801611072565b90602081019182526124633660408a016121b3565b93604082019485528a8201938452608082019081526124856101008a01611072565b9a60a083019b8c526101208a01359b60c084018d815260e08501916101408d013583526101608d0135946001600160401b03861161020e576125569b5f9b8f6124d490612596993691016118ca565b6101008a019081528c51909701525160408051634661ac2360e11b815260206004820181905299516001600160a01b0390811660248301529a518b1660448201529b5180518b1660648e01529889015160ff1660848d015288015163ffffffff1660a48c015260609097015160c48b0152989a8b999690971697899788979190565b5160e488015251610104870152516001600160a01b03166101248601525161014485015251610164840152516101806101848401526101a4830190611d0b565b03915afa8015610967575f915f91612613575b50958195600192848061260a575b80612600575b6125eb575b50508515806125e2575b6125da575b808080806122f3565b94505f6125d1565b508015156125cc565b6125f89297508690614d3f565b945f806125c2565b50818714156125bd565b508115156125b7565b905061263191503d805f833e61262981836111a2565b810190611fb5565b5f6125a9565b90505f6122ed565b61264891612192565b96612293565b604051634661ac2360e11b8152602060048201529650600194505f9087906001600160a01b0361267d89611072565b1660248301526001600160a01b0361269760208a01611072565b1660448301526126ad6064830160408a016120c1565b60e482018b905261010482018690526001600160a01b036126d16101008a01611072565b1661012483015261012088013561014483015261014088013561016483015281806127176127036101608c018c61210c565b6101806101848501526101a484019161213d565b03915afa958615610967575f905f976127bf575b5095805115612280579a50509650612743829961215d565b519660408801516060890151805160a0811015612761575b50612280565b9080929350019060808183031261020e5761277e60208201611d2f565b5061278b60408201611d2f565b506060810151916001600160401b03831161020e576080926020806127b4930191840101611f6f565b500151905f8061275b565b90506127d69196503d805f833e61262981836111a2565b95905f61272b565b6040516383db9d0160e01b8152600481018290526001600160a01b038416602482015290929190602081806044810103817f00000000000000000000000000000000000000000000000000000000000000006001600160a01b03165afa908115610967575f916129d7575b506129cf57825f525f60205260405f2090602081019165ffffffffffff8351165f5260205260405f209360405194612880866110fe565b5494604060ff60018060a01b03881697888452818160a01c161515602085015260a81c161515910152846128b8575b50505050505f90565b65ffffffffffff946020946101006101649460405198899788966399f6d77f60e01b885260048801528183511660248801525116604486015265ffffffffffff604082015116606486015265ffffffffffff606082015116608486015263ffffffff60808201511660a48601526001600160701b0360a08201511660c486015263ffffffff60c08201511660e486015260018060a01b0360e082015116610104860152015161012484015260018060a01b03166101448301525afa908115610967575f91612995575b50612990575f808080806128af565b600190565b90506020813d6020116129c7575b816129b0602093836111a2565b8101031261020e576129c190611f62565b5f612981565b3d91506129a3565b505050600190565b90506020813d602011612a09575b816129f2602093836111a2565b8101031261020e57612a0390611f62565b5f612849565b3d91506129e5565b519065ffffffffffff8216820361020e57565b519063ffffffff8216820361020e57565b91908261012091031261020e57604051612a4e816110e2565b8092612a5981612a11565b8252612a6760208201612a11565b6020830152612a7860408201612a11565b6040830152612a8960608201612a11565b6060830152612a9a60808201612a24565b608083015260a08101516001600160701b038116810361020e5760a0830152612ac560c08201612a24565b60c083015260e08101516001600160a01b038116810361020e5760e083015261010090810151910152565b519061ffff8216820361020e57565b60405190612b0e6020836111a2565b5f80835282815b828110612b2157505050565b602090604051612b3081611135565b5f81525f838201525f60408201525f606082015282828501015201612b15565b3d15612b7a573d90612b61826118af565b91612b6f60405193846111a2565b82523d5f602084013e565b606090565b6040516320c94b1360e11b815260048101829052610380816024817f00000000000000000000000000000000000000000000000000000000000000006001600160a01b03165afa908115610967575f91612c9e575b50815f525f60205265ffffffffffff602060405f20920151165f5260205260405f2060405190612c03826110fe565b5460ff60018060a01b03821691828452818160a01c161515602085015260a81c161515604083015215612c94575160405163b64ce2c360e01b602082019081526024808301949094529281525f9283926001600160a01b031691612c686044826111a2565b51915afa612c74612b50565b9015612c8757612c8390614df4565b9091565b50612c90612aff565b5f91565b5050612c90612aff565b90506103803d8111612e4b575b612cb581836111a2565b81019080820391610380831261020e57612cd26102609183612a35565b9261011f19011261020e57610240612e4261036060405193612cf385611119565b612d006101208201612af0565b8552612d0f6101408201612af0565b6020860152612d216101608201612a24565b6040860152612d336101808201611f62565b6060860152612d456101a08201611f62565b6080860152612d576101c08201611f62565b60a0860152612d696101e08201611f62565b60c0860152612d7b6102008201611f62565b60e0860152612d8d6102208201611f62565b610100860152612d9e848201611f62565b610120860152612db16102608201611f62565b610140860152612dc46102808201611f62565b610160860152612dd76102a08201611f62565b610180860152612dea6102c08201611f62565b6101a0860152612dfd6102e08201611f62565b6101c0860152612e106103008201611f62565b6101e0860152612e236103208201611f62565b610200860152612e366103408201611d2f565b61022086015201612af0565b9101525f612bd4565b503d612cab565b919060a08382031261020e578251926020810151926040820151926060830151926080810151906001600160401b03821161020e57019080601f8301121561020e57815191612ea0836111c3565b92612eae60405194856111a2565b80845260208085019160051b8301019183831161020e5760208101915b838310612eda57505050505090565b82516001600160401b03811161020e578201906080828703601f19011261020e5760405190612f0882611135565b60208301516001600160a01b038116810361020e578252612f2b60408401611f62565b6020830152606083015160408301526080830151916001600160401b03831161020e57612f6088602080969581960101611f6f565b6060820152815201920191612ecb565b6001600160a01b037f00000000000000000000000000000000000000000000000000000000000000008116919060609060208301908135908116810361020e57604080516383db9d0160e01b81529085013560048201526001600160a01b03919091166024820152602081604481885afa908115610967575f916136a1575b50613688576101608301359384608085013593849560a08101359485936101208301359561014084013580159081150361020e5761356d575b5060209060609560408501355f526001835260405f209a878601359b8c5f52845260405f206040519061305a826110b3565b546001600160a01b03811680835260a09190911c60ff161515959091018590528015159485613565575b508461343d575b5060609b60408701355f525f60205260405f20815f5260205260405f2094604051956130b6876110fe565b549060ff60018060a01b03831692838952818160a01c16151560208a015260a81c16151590816040890152159182613433575b508161342b575b50613225575b505050505050508151159081809261321c575b61320e5750158080613204575b156131e657508451600101968760011161219f57613133886111c3565b97613141604051998a6111a2565b808952613150601f19916111c3565b015f5b8181106131cf575050613166889261215d565b516131708961215d565b5261317a8861215d565b505f5b86518110156131be57613190818861217e565b519080600101918260011161219f57826131b7916131b06001958e61217e565b528b61217e565b500161317d565b5092959194509295505b9493929190565b6020906131da611f3e565b82828d01015201613153565b9692959396949091945f146131fc5750916131c8565b9050916131c8565b5085511515613116565b969794969395509193915050565b50865115613109565b6101c087989e9d979c999c36031261020e57613257604051966132478861116b565b6132508a611072565b8852611072565b60208701526040880135604087015286860152608085015260a08401526132813660c087016121b3565b60c0840152613293610140860161120d565b60e08401526101008301526132ab610180850161120d565b6101208301526001600160401b036101a08501351161020e575f946132db6101209536906101a0810135016118ca565b610140840190815261010084019a8b526080840191825260a0840189815260c08501805187018a9052935160408051633d9cab2b60e21b815260206004820181905288516001600160a01b039081166024840152818a015181166044840152838a01516064840152998901516084830152955160a4820152925160c484015294518051881660e48401529384015160ff166101048301529383015163ffffffff166101248201526060929092015161014483015260e084015115156101648301529951610184820152939091015115156101a484015296516101c06101c484015291968792911690829081906133d6906101e4830190611d0b565b03915afa928315610967575f935f955f916133fc575b509493955f8080808080806130f6565b9194505061341d9194503d805f833e61341581836111a2565b810190612e52565b96939150509390945f6133ec565b90505f6130f0565b151591505f6130e9565b604051633d9cab2b60e21b815260206004820152919d939b929a5093985096505f92879290916001600160a01b0361347488611072565b1660248501526001600160a01b0361348b87611072565b166044850152604087013560648501528c608485015260a48401528960c48401526134bc60e4840160c088016120c1565b6134c9610140870161120d565b15156101648401526101848301526134e4610180860161120d565b15156101a483015281806135136134ff6101a089018961210c565b6101c06101c48501526101e484019161213d565b03915afa948515610967575f975f975f975f975f91613539575b50969798999b5f61308b565b939a5050965096506135569194503d805f833e61341581836111a2565b9399929891979096935f61352d565b94505f613084565b6040805163139db5a960e31b815290850135600482015290979196916020826024818c5afa908115610967575f91613652575b6135aa9250612204565b9660e084013560ff811680910361020e576101008501359063ffffffff821680920361020e576064602092604051948593849263622c574160e11b845260408b01356004850152602484015260448301525afa908115610967575f9161361f575b5061361890602092612204565b9590613028565b90506020813d60201161364a575b8161363a602093836111a2565b8101031261020e5751602061360b565b3d915061362d565b90506020823d602011613680575b8161366d602093836111a2565b8101031261020e576135aa9151906135a0565b3d9150613660565b505f936080830135935060a08301359261012001359190565b90506020813d6020116136d3575b816136bc602093836111a2565b8101031261020e576136cd90611f62565b5f612fef565b3d91506136af565b90602080835192838152019201905f5b8181106136f85750505090565b909192602060c0600192865163ffffffff81511682526001600160401b03848201511684830152848060a01b03604082015116604083015260608101511515606083015265ffffffffffff608082015116608083015260a08580821b039101511660a082015201940191019190916136eb565b90602080835192838152019201905f5b8181106137885750505090565b825180516001600160e01b0316855260209081015163ffffffff16818601526040909401939092019160010161377b565b9080602083519182815201916020808360051b8301019401925f915b8383106137e457505050505090565b9091929394601f19828203018352855161034082019065ffffffffffff815116835263ffffffff60208201511660208401526001600160701b03604082015116604084015263ffffffff606082015116606084015260018060a01b03608082015116608084015261ffff61024060a08301518281511660a08701528260208201511660c087015263ffffffff60408201511660e0870152606081015115156101008701526080810151151561012087015260a0810151151561014087015260c0810151151561016087015260e0810151151561018087015261010081015115156101a087015261012081015115156101c087015261014081015115156101e0870152610160810151151561020087015261018081015115156102208701526101a08101511515828701526101c081015115156102608701526101e0810151151561028087015261020081015115156102a087015260018060a01b03610220820151166102c08701520151166102e084015260c0810151916103406103008501528251809152610360840160206103608360051b8701019401915f5b818110613a3f575050505060e0015191610320818303910152815180825260208201906020808260051b8501019401925f5b8281106139d2575050505050602080600192970193019301919392906137d5565b9091929394602080613a32600193601f19878203018952895190858060a01b038251168152858060a01b038483015116848201526060613a21604084015160806040850152608084019061376b565b92015190606081840391015261376b565b97019501939291016139b1565b90919294602080613a6e60019361035f198b82030188526040838b5180518452015191818582015201906136db565b9701940192910161397f565b98979596949391613aaa93613a9c928b5260a060208c015260a08b019161213d565b9088820360408a01526137b9565b938685036060880152808552602085019460208260051b82010195835f92603e1982360301905b858510613af157505050505050508460806118ac9596850391015261213d565b90919293949598601f1982820301855289358381121561020e57604082019190850180356001600160a01b0381169081900361020e57606091613b3a9184526020810190611df9565b60406020850152938490529101915f905b808210613b6c575050506020806001929b0195019501939594929190613ad1565b909192606080600192838060a01b03613b8488611072565b16815260ff613b956020890161190e565b16602082015263ffffffff613bac604089016111ed565b166040820152019401920190613b4b565b949892999697606098613bd6613bd1615768565b614fbe565b5f98906001600160a01b03166001600160a01b03198a5c1617895d60405163180e2b1160e31b81523060048201529b60208d602481347f00000000000000000000000000000000000000000000000000000000000000006001600160a01b03165af1978815610967578e9d5f99613f0f575b50908894939291859f6bffffffffffffffffffffffff60a01b5f5c165f5d613c6f87615042565b613c799087615210565b9e8f9060200151151590613c8d9288615544565b6040516307128b6b60e31b8152978897613caa9760048a01613a7a565b7f00000000000000000000000000000000000000000000000000000000000000006001600160a01b031691839103815a6020945f91f1801561096757613ee0575b50613cf58261513c565b6001600160a01b038716803b1561020e575f80916024604051809481936351106b4b60e11b83528860048401525af1801561096757613ecb575b50602081013580613dfa575b50507f00000000000000000000000000000000000000000000000000000000000000006001600160a01b03163b15613df657604051632142170760e11b81523060048201526001600160a01b03928316602482015260448101919091529082908290606490829084907f0000000000000000000000000000000000000000000000000000000000000000165af18015613deb57613dd6575050565b613de18280926111a2565b613de85750565b80fd5b6040513d84823e3d90fd5b8280fd5b829650613e4090613e0e8387949587614bde565b6108ba6108c8613e1c615768565b60408051602081019586526001600160a01b03909216908201529182906060820190565b92613e606040519485938493639d7f900160e01b85528b60048601611e2d565b0381837f00000000000000000000000000000000000000000000000000000000000000006001600160a01b03165af1908115613ec0578391613ea6575b50935f80613d3b565b613eba91503d8085833e61095981836111a2565b5f613e9d565b6040513d85823e3d90fd5b613ed89194505f906111a2565b5f925f613d2f565b6020813d602011613f07575b81613ef9602093836111a2565b8101031261020e5751613ceb565b3d9150613eec565b9d5093929190975060208d3d602011613f46575b81613f30602093836111a2565b8101031261020e578d9c5197909192935f613c48565b3d9150613f23565b90604051613f5b816110fe565b604051613f6781611150565b6060815260606020820152606060408201525f606082015260606080820152604051613f92816110fe565b606081525f60208201525f604082015260a0820152604051613fb381611187565b5f81525f60208201525f60408201525f60608201525f608082015260c082015281525f60208201525f6040820152809280518015614019575060a060129263ffffffff604083614003829661215d565b5101510151166020838351015101525101510152565b6328a3030960e21b5f5260045260245ffd5b9081602091031261020e57516001600160a01b038116810361020e5790565b6040516331a9108f60e11b81526004810182905291945f949093929091906020816024817f00000000000000000000000000000000000000000000000000000000000000006001600160a01b03165afa908115610967575f916146b7575b506140b1615768565b6001600160a01b03918216911680821415806145fe575b6145d45750506140d781615042565b60405163d4a1b4b160e01b81527f00000000000000000000000000000000000000000000000000000000000000006001600160a01b03169390602081600481885afa908115610967576024916020915f916145b7575b506040516319fade8560e11b81526004810186905292839182906001600160a01b03165afa908115610967575f91614585575b504281101561456b5750865160a0015151511561429d576141818783615210565b966001600160a01b03881690813b1561020e575f80926024604051809581936351106b4b60e11b83528960048401525af191821561096757899261426c575b509261421d6141e061420b96948a946020809a9801511515915b85615544565b93604051988997889687956303141db760e41b875260048701526060602487015260648601906137b9565b8481036003190160448601529161213d565b03925af19182156142605791614231575091565b90506020813d602011614258575b8161424c602093836111a2565b8101031261020e575191565b3d915061423f565b604051903d90823e3d90fd5b602098508896949192506141e061420b969461428b5f61421d946111a2565b8b5f9b509493969850949650506141c0565b60405163d4a1b4b160e01b8152909650602081600481875afa90811561096757602491610140915f9161454c575b5060405163855a54ed60e01b81526004810185905292839182906001600160a01b03165afa908115610967575f905f926144ff575b506020019065ffffffffffff825116151590816144c4575b5080614494575b156143ae575165ffffffffffff16955b815f52600160205260405f20875f5260205260405f209660405197614353896110b3565b549060ff602060018060a01b0384169a8b8152019260a01c16151582528880156143945750506020949261421d6141e061420b96948b8b95511515916141da565b8490630b77705360e01b5f5260045260245260445260645ffd5b5060405163d4a1b4b160e01b8152602081600481875afa90811561096757602491610120915f91614465575b506040516321d1336160e11b81526004810185905292839182906001600160a01b03165afa908115610967575f91614420575b506020015165ffffffffffff169561432f565b90506101203d811161445e575b61443781836111a2565b81016101208282031261020e5761445760209165ffffffffffff93612a35565b915061440d565b503d61442d565b614487915060203d60201161448d575b61447f81836111a2565b81019061402b565b5f6143da565b503d614475565b50815f52600160205260405f2065ffffffffffff8251165f5260205260018060a01b0360405f205416151561431f565b905060068110156144eb57600481149081156144e2575b505f614318565b9050155f6144db565b634e487b7160e01b5f52602160045260245ffd5b9150506101403d8111614545575b61451781836111a2565b81016101408282031261020e576145316101209183612a35565b91015190600682101561020e576020614300565b503d61450d565b614565915060203d60201161448d5761447f81836111a2565b5f6142cb565b8263b357f5c560e01b5f526004526024524260445260645ffd5b90506020813d6020116145af575b816145a0602093836111a2565b8101031261020e57515f614160565b3d9150614593565b6145ce9150823d841161448d5761447f81836111a2565b5f61412d565b9160849260405192631326f75560e11b845260048401526024830152604482015260026064820152fd5b50604051631a45b42760e11b81526004810182905260248101839052604481018490526002606482015260016084820181905260a482015260208160c4817f00000000000000000000000000000000000000000000000000000000000000006001600160a01b03165afa908115610967575f9161467d575b50156140c8565b90506020813d6020116146af575b81614698602093836111a2565b8101031261020e576146a990611f62565b5f614676565b3d915061468b565b90506020813d6020116146e9575b816146d2602093836111a2565b8101031261020e576146e390611d2f565b5f6140a8565b3d91506146c5565b9896979092949795939195604051946331a9108f60e11b86525f958b600482015260208160248160018060a01b037f0000000000000000000000000000000000000000000000000000000000000000165afa908115610967575f91614ba4575b5061475a615768565b6001600160a01b0391821691168082141580614aeb575b614ac057506001600160a01b03614786615768565b168181141580614a07575b6149dc5750886148d3575b506147a68b615042565b6147b0878c615210565b996001600160a01b038b1694853b1561020e575f809660248f604051998a9384926351106b4b60e11b845260048401525af18015610967578d968d916148a6575b50614829959493929161480e916020809b9c015115159189615544565b6040516307128b6b60e31b81529a8b98899860048a01613a7a565b0381847f00000000000000000000000000000000000000000000000000000000000000006001600160a01b03165af19081156142605790614872575b61487091509361513c565b565b506020813d60201161489e575b8161488c602093836111a2565b8101031261020e576148709051614865565b3d915061487f565b6020995061480e9150916148c15f61482998979695946111a2565b8d8a5f9b5050915091929394956147f1565b6001600160a01b036148e3615768565b168181141580614923575b6148f8575061479c565b908c60849260405192631326f75560e11b845260048401526024830152604482015260076064820152fd5b50604051631a45b42760e11b81526004810182905260248101839052604481018e90526007606482015260016084820181905260a482015260208160c4817f00000000000000000000000000000000000000000000000000000000000000006001600160a01b03165afa908115610967575f916149a2575b50156148ee565b90506020813d6020116149d4575b816149bd602093836111a2565b8101031261020e576149ce90611f62565b5f61499b565b3d91506149b0565b908c60849260405192631326f75560e11b8452600484015260248301526044820152600f6064820152fd5b50604051631a45b42760e11b81526004810182905260248101839052604481018e9052600f606482015260016084820181905260a482015260208160c4817f00000000000000000000000000000000000000000000000000000000000000006001600160a01b03165afa908115610967575f91614a86575b5015614791565b90506020813d602011614ab8575b81614aa1602093836111a2565b8101031261020e57614ab290611f62565b5f614a7f565b3d9150614a94565b908c60849260405192631326f75560e11b845260048401526024830152604482015260036064820152fd5b50604051631a45b42760e11b81526004810182905260248101839052604481018e90526003606482015260016084820181905260a482015260208160c4817f00000000000000000000000000000000000000000000000000000000000000006001600160a01b03165afa908115610967575f91614b6a575b5015614771565b90506020813d602011614b9c575b81614b85602093836111a2565b8101031261020e57614b9690611f62565b5f614b63565b3d9150614b78565b90506020813d602011614bd6575b81614bbf602093836111a2565b8101031261020e57614bd090611d2f565b5f614751565b3d9150614bb2565b905f5b614beb8480611d43565b9050811015614d3957614bfe8480611d43565b82101561216a578160051b810135605e198236030181121561020e570160200135614c2b57600101614be1565b50909150614c37615768565b6001600160a01b0392831692168083141580614c81575b614c5757505050565b6084935060405192631326f75560e11b845260048401526024830152604482015260226064820152fd5b50604051631a45b42760e11b81526004810182905260248101849052604481018390526022606482015260016084820181905260a482015260208160c4817f00000000000000000000000000000000000000000000000000000000000000006001600160a01b03165afa908115610967575f91614d00575b5015614c4e565b90506020813d8211614d31575b81614d1a602093836111a2565b8101031261020e57614d2b90611f62565b5f614cf9565b3d9150614d0d565b50505050565b90915f198383099280830292838086109503948086039514614dd25782851015614dba5790829109600182190182168092046002816003021880820260020302808202600203028082026002030280820260020302808202600203028091026002030293600183805f03040190848311900302920304170290565b630c740aef60e31b5f5260045260245260445260645ffd5b505091508115614de0570490565b634e487b7160e01b5f52601260045260245ffd5b6060815110612c8757602081015191604082015191604083108015614fb2575b8015614f9c575b614f905760208382010151906020840180941161219f57614e3d848251612192565b60071c8211614f8357614e4f826111c3565b614e5c60405191826111a2565b828152601f19614e6b846111c3565b015f5b818110614f54575050935f5b838110614e875750505050565b8060071b8181046080148215171561219f57614ea39083612204565b8301602081015190604081015190608060608201519101519160ff81118015614f44575b8015614f34575b614f2157916001600160801b03809260ff600197969560405196614ef188611135565b8752166020860152166040840152166060820152614f0f828961217e565b52614f1a818861217e565b5001614e7a565b5050505050505050915050612c90612aff565b506001600160801b038311614ece565b506001600160801b038211614ec7565b602090604051614f6381611135565b5f81525f838201525f60408201525f606082015282828601015201614e6e565b5050915050612c90612aff565b50915050612c90612aff565b508051601f19810190811161219f578311614e1b565b50601f83161515614e14565b803b156118ac575f80604051602081019063296eee5160e01b825260048152614fe86024826111a2565b5190845afa614ff5612b50565b90158015615037575b6150335760208180518101031261020e576001600160a01b039061502490602001611d2f565b168061502e575090565b905090565b5090565b506020815110614ffe565b604051632eec7b5560e11b8152600481018290526020816024817f00000000000000000000000000000000000000000000000000000000000000006001600160a01b03165afa908115610967575f916150fa575b506001600160a01b03169081156150f6577f00000000000000000000000000000000000000000000000000000000000000006001600160a01b0316908183036150de57505050565b637da4da8b60e01b5f5260045260245260445260645ffd5b5050565b90506020813d602011615134575b81615115602093836111a2565b8101031261020e57516001600160a01b038116810361020e575f615096565b3d9150615108565b604051632eec7b5560e11b8152600481018290526020816024817f00000000000000000000000000000000000000000000000000000000000000006001600160a01b03165afa908115610967575f916151ce575b506001600160a01b03908116917f0000000000000000000000000000000000000000000000000000000000000000909116908183036150de57505050565b90506020813d602011615208575b816151e9602093836111a2565b8101031261020e57516001600160a01b038116810361020e575f615190565b3d91506151dc565b906040815191015180155f1461550957505f915b6040519283916337b4a3c360e11b83526004830152606060248301526152b661528d615277615261865161016060648801526101c4870190611d0b565b6020870151868203606319016084880152611d0b565b60408601518582036063190160a4870152611d0b565b60608501516001600160a01b031660c485015260808501518482036063190160e4860152611d0b565b9260a0810151936063198482030161010485015260608101948051956060835286518091526080830190602060808260051b8601019801915f905b8282106153e0575050505060c060209693869593604060ff818663ffffffff8d6080990151168d8601520151169101520151805115156101248601528681015115156101448601526040810151151561016486015260608101511515610184860152015115156101a4840152604483015203815f60018060a01b037f0000000000000000000000000000000000000000000000000000000000000000165af1908115610967575f916153a1575090565b90506020813d6020116153d8575b816153bc602093836111a2565b8101031261020e57516001600160a01b038116810361020e5790565b3d91506153af565b9193949596975091976020806154f66001936102206101408e607f198d8503018952516cffffffffffffffffffffffffff815116845263ffffffff86820151168685015263ffffffff604082015116604085015261ffff6060820151166060850152878060a01b03608082015116608085015260a081015160a085015262ffffff60c08201511660c085015260ff60e08201511660e085015260c0610100820151805115156101008701528781015115156101208701526040810151151584870152606081015115156101608701526080810151151561018087015260a081015115156101a0870152015115156101c085015263ffffffff610120820151166101e08501520151918161020082015201906136db565b9a019201920189979695949391926152f1565b615511615768565b604080516001600160a01b039092166020830190815282820193909352815261553b6060826111a2565b51902091615224565b90919392935f5b83518110156157605761555e8142612204565b306001600160a01b0361022060a0615576868a61217e565b5101510151161461572a57906001916155ee604051615594816110b3565b60a085811b86900387811683528b151560208085019182525f8b815289825260408082208983529092522093518454915160ff60a01b1991909316166001600160a81b03199091161790151590911b60ff60a01b16179055565b828060a01b0361022060a0615603858a61217e565b510151015116615654575b503061022060a061561f848961217e565b5101510152816101e060a0615634848961217e565b51015101528161020060a0615649848961217e565b51015101520161554b565b828060a01b0361022060a0615669858a61217e565b5101510151169061570b6101e060a0615682868b61217e565b5101510151151561020060a0615698878c61217e565b5101510151151592604051946156ad866110fe565b8552602080860192835260408087019586525f8b815280835281812093815292909152902093518454915160ff60a01b1960a089811b8a900393909316166001600160a81b031990931692909217911515901b60ff60a01b16178355565b51815460ff60a81b191690151560a81b60ff60a81b161790555f61560e565b836001600160a01b0361022060a0615742868a61217e565b510151015116630b77705360e01b5f5260045260245260445260645ffd5b509193505050565b60143610158061578f575b1561578b57601319360136811161020e573560601c90565b3390565b50337f00000000000000000000000000000000000000000000000000000000000000006001600160a01b03161461577356fea164736f6c634300081c000a",
	"gitCommit": "npm:@bananapus/omnichain-deployers-v6@1.0.1",
	"gitDirty": false,
	"history": []
}