{
	"format": "sphinx-sol-ct-artifact-1",
	"address": "0x6ca45fcb59741a19353a3d774b7ccd9c21699a6a",
	"sourceName": "node_modules/@bananapus/omnichain-deployers-v6/src/JBOmnichainDeployer.sol",
	"contractName": "JBOmnichainDeployer",
	"chainId": "0x66eee",
	"abi": [
		{
			"type": "constructor",
			"inputs": [
				{
					"name": "suckerRegistry",
					"type": "address",
					"internalType": "contract IJBSuckerRegistry"
				},
				{
					"name": "hookDeployer",
					"type": "address",
					"internalType": "contract IJB721TiersHookDeployer"
				},
				{
					"name": "permissions",
					"type": "address",
					"internalType": "contract IJBPermissions"
				},
				{
					"name": "controller",
					"type": "address",
					"internalType": "contract IJBController"
				},
				{
					"name": "trustedForwarder",
					"type": "address",
					"internalType": "address"
				}
			],
			"stateMutability": "nonpayable"
		},
		{
			"type": "function",
			"name": "CONTROLLER",
			"inputs": [],
			"outputs": [
				{
					"name": "",
					"type": "address",
					"internalType": "contract IJBController"
				}
			],
			"stateMutability": "view"
		},
		{
			"type": "function",
			"name": "DIRECTORY",
			"inputs": [],
			"outputs": [
				{
					"name": "",
					"type": "address",
					"internalType": "contract IJBDirectory"
				}
			],
			"stateMutability": "view"
		},
		{
			"type": "function",
			"name": "HOOK_DEPLOYER",
			"inputs": [],
			"outputs": [
				{
					"name": "",
					"type": "address",
					"internalType": "contract IJB721TiersHookDeployer"
				}
			],
			"stateMutability": "view"
		},
		{
			"type": "function",
			"name": "PERMISSIONS",
			"inputs": [],
			"outputs": [
				{
					"name": "",
					"type": "address",
					"internalType": "contract IJBPermissions"
				}
			],
			"stateMutability": "view"
		},
		{
			"type": "function",
			"name": "PROJECTS",
			"inputs": [],
			"outputs": [
				{
					"name": "",
					"type": "address",
					"internalType": "contract IJBProjects"
				}
			],
			"stateMutability": "view"
		},
		{
			"type": "function",
			"name": "SUCKER_REGISTRY",
			"inputs": [],
			"outputs": [
				{
					"name": "",
					"type": "address",
					"internalType": "contract IJBSuckerRegistry"
				}
			],
			"stateMutability": "view"
		},
		{
			"type": "function",
			"name": "beforeCashOutRecordedWith",
			"inputs": [
				{
					"name": "context",
					"type": "tuple",
					"internalType": "struct JBBeforeCashOutRecordedContext",
					"components": [
						{
							"name": "terminal",
							"type": "address",
							"internalType": "address"
						},
						{
							"name": "holder",
							"type": "address",
							"internalType": "address"
						},
						{
							"name": "projectId",
							"type": "uint256",
							"internalType": "uint256"
						},
						{
							"name": "rulesetId",
							"type": "uint256",
							"internalType": "uint256"
						},
						{
							"name": "cashOutCount",
							"type": "uint256",
							"internalType": "uint256"
						},
						{
							"name": "totalSupply",
							"type": "uint256",
							"internalType": "uint256"
						},
						{
							"name": "surplus",
							"type": "tuple",
							"internalType": "struct JBTokenAmount",
							"components": [
								{
									"name": "token",
									"type": "address",
									"internalType": "address"
								},
								{
									"name": "decimals",
									"type": "uint8",
									"internalType": "uint8"
								},
								{
									"name": "currency",
									"type": "uint32",
									"internalType": "uint32"
								},
								{
									"name": "value",
									"type": "uint256",
									"internalType": "uint256"
								}
							]
						},
						{
							"name": "scopeCashOutsToLocalBalances",
							"type": "bool",
							"internalType": "bool"
						},
						{
							"name": "cashOutTaxRate",
							"type": "uint256",
							"internalType": "uint256"
						},
						{
							"name": "beneficiaryIsFeeless",
							"type": "bool",
							"internalType": "bool"
						},
						{
							"name": "metadata",
							"type": "bytes",
							"internalType": "bytes"
						}
					]
				}
			],
			"outputs": [
				{
					"name": "cashOutTaxRate",
					"type": "uint256",
					"internalType": "uint256"
				},
				{
					"name": "cashOutCount",
					"type": "uint256",
					"internalType": "uint256"
				},
				{
					"name": "totalSupply",
					"type": "uint256",
					"internalType": "uint256"
				},
				{
					"name": "effectiveSurplusValue",
					"type": "uint256",
					"internalType": "uint256"
				},
				{
					"name": "hookSpecifications",
					"type": "tuple[]",
					"internalType": "struct JBCashOutHookSpecification[]",
					"components": [
						{
							"name": "hook",
							"type": "address",
							"internalType": "contract IJBCashOutHook"
						},
						{
							"name": "noop",
							"type": "bool",
							"internalType": "bool"
						},
						{
							"name": "amount",
							"type": "uint256",
							"internalType": "uint256"
						},
						{
							"name": "metadata",
							"type": "bytes",
							"internalType": "bytes"
						}
					]
				}
			],
			"stateMutability": "view"
		},
		{
			"type": "function",
			"name": "beforePayRecordedWith",
			"inputs": [
				{
					"name": "context",
					"type": "tuple",
					"internalType": "struct JBBeforePayRecordedContext",
					"components": [
						{
							"name": "terminal",
							"type": "address",
							"internalType": "address"
						},
						{
							"name": "payer",
							"type": "address",
							"internalType": "address"
						},
						{
							"name": "amount",
							"type": "tuple",
							"internalType": "struct JBTokenAmount",
							"components": [
								{
									"name": "token",
									"type": "address",
									"internalType": "address"
								},
								{
									"name": "decimals",
									"type": "uint8",
									"internalType": "uint8"
								},
								{
									"name": "currency",
									"type": "uint32",
									"internalType": "uint32"
								},
								{
									"name": "value",
									"type": "uint256",
									"internalType": "uint256"
								}
							]
						},
						{
							"name": "projectId",
							"type": "uint256",
							"internalType": "uint256"
						},
						{
							"name": "rulesetId",
							"type": "uint256",
							"internalType": "uint256"
						},
						{
							"name": "beneficiary",
							"type": "address",
							"internalType": "address"
						},
						{
							"name": "weight",
							"type": "uint256",
							"internalType": "uint256"
						},
						{
							"name": "reservedPercent",
							"type": "uint256",
							"internalType": "uint256"
						},
						{
							"name": "metadata",
							"type": "bytes",
							"internalType": "bytes"
						}
					]
				}
			],
			"outputs": [
				{
					"name": "weight",
					"type": "uint256",
					"internalType": "uint256"
				},
				{
					"name": "hookSpecifications",
					"type": "tuple[]",
					"internalType": "struct JBPayHookSpecification[]",
					"components": [
						{
							"name": "hook",
							"type": "address",
							"internalType": "contract IJBPayHook"
						},
						{
							"name": "noop",
							"type": "bool",
							"internalType": "bool"
						},
						{
							"name": "amount",
							"type": "uint256",
							"internalType": "uint256"
						},
						{
							"name": "metadata",
							"type": "bytes",
							"internalType": "bytes"
						}
					]
				}
			],
			"stateMutability": "view"
		},
		{
			"type": "function",
			"name": "deploySuckersFor",
			"inputs": [
				{
					"name": "projectId",
					"type": "uint256",
					"internalType": "uint256"
				},
				{
					"name": "suckerDeploymentConfiguration",
					"type": "tuple",
					"internalType": "struct JBSuckerDeploymentConfig",
					"components": [
						{
							"name": "deployerConfigurations",
							"type": "tuple[]",
							"internalType": "struct JBSuckerDeployerConfig[]",
							"components": [
								{
									"name": "deployer",
									"type": "address",
									"internalType": "contract IJBSuckerDeployer"
								},
								{
									"name": "peer",
									"type": "bytes32",
									"internalType": "bytes32"
								},
								{
									"name": "mappings",
									"type": "tuple[]",
									"internalType": "struct JBTokenMapping[]",
									"components": [
										{
											"name": "localToken",
											"type": "address",
											"internalType": "address"
										},
										{
											"name": "minGas",
											"type": "uint32",
											"internalType": "uint32"
										},
										{
											"name": "remoteToken",
											"type": "bytes32",
											"internalType": "bytes32"
										}
									]
								}
							]
						},
						{
							"name": "salt",
							"type": "bytes32",
							"internalType": "bytes32"
						}
					]
				}
			],
			"outputs": [
				{
					"name": "suckers",
					"type": "address[]",
					"internalType": "address[]"
				}
			],
			"stateMutability": "nonpayable"
		},
		{
			"type": "function",
			"name": "extraDataHookOf",
			"inputs": [
				{
					"name": "projectId",
					"type": "uint256",
					"internalType": "uint256"
				},
				{
					"name": "rulesetId",
					"type": "uint256",
					"internalType": "uint256"
				}
			],
			"outputs": [
				{
					"name": "hook",
					"type": "tuple",
					"internalType": "struct JBDeployerHookConfig",
					"components": [
						{
							"name": "dataHook",
							"type": "address",
							"internalType": "contract IJBRulesetDataHook"
						},
						{
							"name": "useDataHookForPay",
							"type": "bool",
							"internalType": "bool"
						},
						{
							"name": "useDataHookForCashOut",
							"type": "bool",
							"internalType": "bool"
						}
					]
				}
			],
			"stateMutability": "view"
		},
		{
			"type": "function",
			"name": "hasMintPermissionFor",
			"inputs": [
				{
					"name": "projectId",
					"type": "uint256",
					"internalType": "uint256"
				},
				{
					"name": "ruleset",
					"type": "tuple",
					"internalType": "struct JBRuleset",
					"components": [
						{
							"name": "cycleNumber",
							"type": "uint48",
							"internalType": "uint48"
						},
						{
							"name": "id",
							"type": "uint48",
							"internalType": "uint48"
						},
						{
							"name": "basedOnId",
							"type": "uint48",
							"internalType": "uint48"
						},
						{
							"name": "start",
							"type": "uint48",
							"internalType": "uint48"
						},
						{
							"name": "duration",
							"type": "uint32",
							"internalType": "uint32"
						},
						{
							"name": "weight",
							"type": "uint112",
							"internalType": "uint112"
						},
						{
							"name": "weightCutPercent",
							"type": "uint32",
							"internalType": "uint32"
						},
						{
							"name": "approvalHook",
							"type": "address",
							"internalType": "contract IJBRulesetApprovalHook"
						},
						{
							"name": "metadata",
							"type": "uint256",
							"internalType": "uint256"
						}
					]
				},
				{
					"name": "addr",
					"type": "address",
					"internalType": "address"
				}
			],
			"outputs": [
				{
					"name": "",
					"type": "bool",
					"internalType": "bool"
				}
			],
			"stateMutability": "view"
		},
		{
			"type": "function",
			"name": "isTrustedForwarder",
			"inputs": [
				{
					"name": "forwarder",
					"type": "address",
					"internalType": "address"
				}
			],
			"outputs": [
				{
					"name": "",
					"type": "bool",
					"internalType": "bool"
				}
			],
			"stateMutability": "view"
		},
		{
			"type": "function",
			"name": "launchProjectFor",
			"inputs": [
				{
					"name": "owner",
					"type": "address",
					"internalType": "address"
				},
				{
					"name": "projectUri",
					"type": "string",
					"internalType": "string"
				},
				{
					"name": "deploy721Config",
					"type": "tuple",
					"internalType": "struct JBOmnichain721Config",
					"components": [
						{
							"name": "deployTiersHookConfig",
							"type": "tuple",
							"internalType": "struct JBDeploy721TiersHookConfig",
							"components": [
								{
									"name": "name",
									"type": "string",
									"internalType": "string"
								},
								{
									"name": "symbol",
									"type": "string",
									"internalType": "string"
								},
								{
									"name": "baseUri",
									"type": "string",
									"internalType": "string"
								},
								{
									"name": "tokenUriResolver",
									"type": "address",
									"internalType": "contract IJB721TokenUriResolver"
								},
								{
									"name": "contractUri",
									"type": "string",
									"internalType": "string"
								},
								{
									"name": "tiersConfig",
									"type": "tuple",
									"internalType": "struct JB721InitTiersConfig",
									"components": [
										{
											"name": "tiers",
											"type": "tuple[]",
											"internalType": "struct JB721TierConfig[]",
											"components": [
												{
													"name": "price",
													"type": "uint104",
													"internalType": "uint104"
												},
												{
													"name": "initialSupply",
													"type": "uint32",
													"internalType": "uint32"
												},
												{
													"name": "votingUnits",
													"type": "uint32",
													"internalType": "uint32"
												},
												{
													"name": "reserveFrequency",
													"type": "uint16",
													"internalType": "uint16"
												},
												{
													"name": "reserveBeneficiary",
													"type": "address",
													"internalType": "address"
												},
												{
													"name": "encodedIpfsUri",
													"type": "bytes32",
													"internalType": "bytes32"
												},
												{
													"name": "category",
													"type": "uint24",
													"internalType": "uint24"
												},
												{
													"name": "discountPercent",
													"type": "uint8",
													"internalType": "uint8"
												},
												{
													"name": "flags",
													"type": "tuple",
													"internalType": "struct JB721TierConfigFlags",
													"components": [
														{
															"name": "allowOwnerMint",
															"type": "bool",
															"internalType": "bool"
														},
														{
															"name": "useReserveBeneficiaryAsDefault",
															"type": "bool",
															"internalType": "bool"
														},
														{
															"name": "transfersPausable",
															"type": "bool",
															"internalType": "bool"
														},
														{
															"name": "useVotingUnits",
															"type": "bool",
															"internalType": "bool"
														},
														{
															"name": "cantBeRemoved",
															"type": "bool",
															"internalType": "bool"
														},
														{
															"name": "cantIncreaseDiscountPercent",
															"type": "bool",
															"internalType": "bool"
														},
														{
															"name": "cantBuyWithCredits",
															"type": "bool",
															"internalType": "bool"
														}
													]
												},
												{
													"name": "splitPercent",
													"type": "uint32",
													"internalType": "uint32"
												},
												{
													"name": "splits",
													"type": "tuple[]",
													"internalType": "struct JBSplit[]",
													"components": [
														{
															"name": "percent",
															"type": "uint32",
															"internalType": "uint32"
														},
														{
															"name": "projectId",
															"type": "uint64",
															"internalType": "uint64"
														},
														{
															"name": "beneficiary",
															"type": "address",
															"internalType": "address payable"
														},
														{
															"name": "preferAddToBalance",
															"type": "bool",
															"internalType": "bool"
														},
														{
															"name": "lockedUntil",
															"type": "uint48",
															"internalType": "uint48"
														},
														{
															"name": "hook",
															"type": "address",
															"internalType": "contract IJBSplitHook"
														}
													]
												}
											]
										},
										{
											"name": "currency",
											"type": "uint32",
											"internalType": "uint32"
										},
										{
											"name": "decimals",
											"type": "uint8",
											"internalType": "uint8"
										}
									]
								},
								{
									"name": "flags",
									"type": "tuple",
									"internalType": "struct JB721TiersHookFlags",
									"components": [
										{
											"name": "noNewTiersWithReserves",
											"type": "bool",
											"internalType": "bool"
										},
										{
											"name": "noNewTiersWithVotes",
											"type": "bool",
											"internalType": "bool"
										},
										{
											"name": "noNewTiersWithOwnerMinting",
											"type": "bool",
											"internalType": "bool"
										},
										{
											"name": "preventOverspending",
											"type": "bool",
											"internalType": "bool"
										},
										{
											"name": "issueTokensForSplits",
											"type": "bool",
											"internalType": "bool"
										}
									]
								}
							]
						},
						{
							"name": "useDataHookForCashOut",
							"type": "bool",
							"internalType": "bool"
						},
						{
							"name": "salt",
							"type": "bytes32",
							"internalType": "bytes32"
						}
					]
				},
				{
					"name": "rulesetConfigurations",
					"type": "tuple[]",
					"internalType": "struct JBRulesetConfig[]",
					"components": [
						{
							"name": "mustStartAtOrAfter",
							"type": "uint48",
							"internalType": "uint48"
						},
						{
							"name": "duration",
							"type": "uint32",
							"internalType": "uint32"
						},
						{
							"name": "weight",
							"type": "uint112",
							"internalType": "uint112"
						},
						{
							"name": "weightCutPercent",
							"type": "uint32",
							"internalType": "uint32"
						},
						{
							"name": "approvalHook",
							"type": "address",
							"internalType": "contract IJBRulesetApprovalHook"
						},
						{
							"name": "metadata",
							"type": "tuple",
							"internalType": "struct JBRulesetMetadata",
							"components": [
								{
									"name": "reservedPercent",
									"type": "uint16",
									"internalType": "uint16"
								},
								{
									"name": "cashOutTaxRate",
									"type": "uint16",
									"internalType": "uint16"
								},
								{
									"name": "baseCurrency",
									"type": "uint32",
									"internalType": "uint32"
								},
								{
									"name": "pausePay",
									"type": "bool",
									"internalType": "bool"
								},
								{
									"name": "pauseCreditTransfers",
									"type": "bool",
									"internalType": "bool"
								},
								{
									"name": "allowOwnerMinting",
									"type": "bool",
									"internalType": "bool"
								},
								{
									"name": "allowSetCustomToken",
									"type": "bool",
									"internalType": "bool"
								},
								{
									"name": "allowTerminalMigration",
									"type": "bool",
									"internalType": "bool"
								},
								{
									"name": "allowSetTerminals",
									"type": "bool",
									"internalType": "bool"
								},
								{
									"name": "allowSetController",
									"type": "bool",
									"internalType": "bool"
								},
								{
									"name": "allowAddAccountingContext",
									"type": "bool",
									"internalType": "bool"
								},
								{
									"name": "allowAddPriceFeed",
									"type": "bool",
									"internalType": "bool"
								},
								{
									"name": "ownerMustSendPayouts",
									"type": "bool",
									"internalType": "bool"
								},
								{
									"name": "holdFees",
									"type": "bool",
									"internalType": "bool"
								},
								{
									"name": "scopeCashOutsToLocalBalances",
									"type": "bool",
									"internalType": "bool"
								},
								{
									"name": "useDataHookForPay",
									"type": "bool",
									"internalType": "bool"
								},
								{
									"name": "useDataHookForCashOut",
									"type": "bool",
									"internalType": "bool"
								},
								{
									"name": "dataHook",
									"type": "address",
									"internalType": "address"
								},
								{
									"name": "metadata",
									"type": "uint16",
									"internalType": "uint16"
								}
							]
						},
						{
							"name": "splitGroups",
							"type": "tuple[]",
							"internalType": "struct JBSplitGroup[]",
							"components": [
								{
									"name": "groupId",
									"type": "uint256",
									"internalType": "uint256"
								},
								{
									"name": "splits",
									"type": "tuple[]",
									"internalType": "struct JBSplit[]",
									"components": [
										{
											"name": "percent",
											"type": "uint32",
											"internalType": "uint32"
										},
										{
											"name": "projectId",
											"type": "uint64",
											"internalType": "uint64"
										},
										{
											"name": "beneficiary",
											"type": "address",
											"internalType": "address payable"
										},
										{
											"name": "preferAddToBalance",
											"type": "bool",
											"internalType": "bool"
										},
										{
											"name": "lockedUntil",
											"type": "uint48",
											"internalType": "uint48"
										},
										{
											"name": "hook",
											"type": "address",
											"internalType": "contract IJBSplitHook"
										}
									]
								}
							]
						},
						{
							"name": "fundAccessLimitGroups",
							"type": "tuple[]",
							"internalType": "struct JBFundAccessLimitGroup[]",
							"components": [
								{
									"name": "terminal",
									"type": "address",
									"internalType": "address"
								},
								{
									"name": "token",
									"type": "address",
									"internalType": "address"
								},
								{
									"name": "payoutLimits",
									"type": "tuple[]",
									"internalType": "struct JBCurrencyAmount[]",
									"components": [
										{
											"name": "amount",
											"type": "uint224",
											"internalType": "uint224"
										},
										{
											"name": "currency",
											"type": "uint32",
											"internalType": "uint32"
										}
									]
								},
								{
									"name": "surplusAllowances",
									"type": "tuple[]",
									"internalType": "struct JBCurrencyAmount[]",
									"components": [
										{
											"name": "amount",
											"type": "uint224",
											"internalType": "uint224"
										},
										{
											"name": "currency",
											"type": "uint32",
											"internalType": "uint32"
										}
									]
								}
							]
						}
					]
				},
				{
					"name": "terminalConfigurations",
					"type": "tuple[]",
					"internalType": "struct JBTerminalConfig[]",
					"components": [
						{
							"name": "terminal",
							"type": "address",
							"internalType": "contract IJBTerminal"
						},
						{
							"name": "accountingContextsToAccept",
							"type": "tuple[]",
							"internalType": "struct JBAccountingContext[]",
							"components": [
								{
									"name": "token",
									"type": "address",
									"internalType": "address"
								},
								{
									"name": "decimals",
									"type": "uint8",
									"internalType": "uint8"
								},
								{
									"name": "currency",
									"type": "uint32",
									"internalType": "uint32"
								}
							]
						}
					]
				},
				{
					"name": "memo",
					"type": "string",
					"internalType": "string"
				},
				{
					"name": "suckerDeploymentConfiguration",
					"type": "tuple",
					"internalType": "struct JBSuckerDeploymentConfig",
					"components": [
						{
							"name": "deployerConfigurations",
							"type": "tuple[]",
							"internalType": "struct JBSuckerDeployerConfig[]",
							"components": [
								{
									"name": "deployer",
									"type": "address",
									"internalType": "contract IJBSuckerDeployer"
								},
								{
									"name": "peer",
									"type": "bytes32",
									"internalType": "bytes32"
								},
								{
									"name": "mappings",
									"type": "tuple[]",
									"internalType": "struct JBTokenMapping[]",
									"components": [
										{
											"name": "localToken",
											"type": "address",
											"internalType": "address"
										},
										{
											"name": "minGas",
											"type": "uint32",
											"internalType": "uint32"
										},
										{
											"name": "remoteToken",
											"type": "bytes32",
											"internalType": "bytes32"
										}
									]
								}
							]
						},
						{
							"name": "salt",
							"type": "bytes32",
							"internalType": "bytes32"
						}
					]
				}
			],
			"outputs": [
				{
					"name": "projectId",
					"type": "uint256",
					"internalType": "uint256"
				},
				{
					"name": "hook",
					"type": "address",
					"internalType": "contract IJB721TiersHook"
				},
				{
					"name": "suckers",
					"type": "address[]",
					"internalType": "address[]"
				}
			],
			"stateMutability": "payable"
		},
		{
			"type": "function",
			"name": "launchProjectFor",
			"inputs": [
				{
					"name": "owner",
					"type": "address",
					"internalType": "address"
				},
				{
					"name": "projectUri",
					"type": "string",
					"internalType": "string"
				},
				{
					"name": "rulesetConfigurations",
					"type": "tuple[]",
					"internalType": "struct JBRulesetConfig[]",
					"components": [
						{
							"name": "mustStartAtOrAfter",
							"type": "uint48",
							"internalType": "uint48"
						},
						{
							"name": "duration",
							"type": "uint32",
							"internalType": "uint32"
						},
						{
							"name": "weight",
							"type": "uint112",
							"internalType": "uint112"
						},
						{
							"name": "weightCutPercent",
							"type": "uint32",
							"internalType": "uint32"
						},
						{
							"name": "approvalHook",
							"type": "address",
							"internalType": "contract IJBRulesetApprovalHook"
						},
						{
							"name": "metadata",
							"type": "tuple",
							"internalType": "struct JBRulesetMetadata",
							"components": [
								{
									"name": "reservedPercent",
									"type": "uint16",
									"internalType": "uint16"
								},
								{
									"name": "cashOutTaxRate",
									"type": "uint16",
									"internalType": "uint16"
								},
								{
									"name": "baseCurrency",
									"type": "uint32",
									"internalType": "uint32"
								},
								{
									"name": "pausePay",
									"type": "bool",
									"internalType": "bool"
								},
								{
									"name": "pauseCreditTransfers",
									"type": "bool",
									"internalType": "bool"
								},
								{
									"name": "allowOwnerMinting",
									"type": "bool",
									"internalType": "bool"
								},
								{
									"name": "allowSetCustomToken",
									"type": "bool",
									"internalType": "bool"
								},
								{
									"name": "allowTerminalMigration",
									"type": "bool",
									"internalType": "bool"
								},
								{
									"name": "allowSetTerminals",
									"type": "bool",
									"internalType": "bool"
								},
								{
									"name": "allowSetController",
									"type": "bool",
									"internalType": "bool"
								},
								{
									"name": "allowAddAccountingContext",
									"type": "bool",
									"internalType": "bool"
								},
								{
									"name": "allowAddPriceFeed",
									"type": "bool",
									"internalType": "bool"
								},
								{
									"name": "ownerMustSendPayouts",
									"type": "bool",
									"internalType": "bool"
								},
								{
									"name": "holdFees",
									"type": "bool",
									"internalType": "bool"
								},
								{
									"name": "scopeCashOutsToLocalBalances",
									"type": "bool",
									"internalType": "bool"
								},
								{
									"name": "useDataHookForPay",
									"type": "bool",
									"internalType": "bool"
								},
								{
									"name": "useDataHookForCashOut",
									"type": "bool",
									"internalType": "bool"
								},
								{
									"name": "dataHook",
									"type": "address",
									"internalType": "address"
								},
								{
									"name": "metadata",
									"type": "uint16",
									"internalType": "uint16"
								}
							]
						},
						{
							"name": "splitGroups",
							"type": "tuple[]",
							"internalType": "struct JBSplitGroup[]",
							"components": [
								{
									"name": "groupId",
									"type": "uint256",
									"internalType": "uint256"
								},
								{
									"name": "splits",
									"type": "tuple[]",
									"internalType": "struct JBSplit[]",
									"components": [
										{
											"name": "percent",
											"type": "uint32",
											"internalType": "uint32"
										},
										{
											"name": "projectId",
											"type": "uint64",
											"internalType": "uint64"
										},
										{
											"name": "beneficiary",
											"type": "address",
											"internalType": "address payable"
										},
										{
											"name": "preferAddToBalance",
											"type": "bool",
											"internalType": "bool"
										},
										{
											"name": "lockedUntil",
											"type": "uint48",
											"internalType": "uint48"
										},
										{
											"name": "hook",
											"type": "address",
											"internalType": "contract IJBSplitHook"
										}
									]
								}
							]
						},
						{
							"name": "fundAccessLimitGroups",
							"type": "tuple[]",
							"internalType": "struct JBFundAccessLimitGroup[]",
							"components": [
								{
									"name": "terminal",
									"type": "address",
									"internalType": "address"
								},
								{
									"name": "token",
									"type": "address",
									"internalType": "address"
								},
								{
									"name": "payoutLimits",
									"type": "tuple[]",
									"internalType": "struct JBCurrencyAmount[]",
									"components": [
										{
											"name": "amount",
											"type": "uint224",
											"internalType": "uint224"
										},
										{
											"name": "currency",
											"type": "uint32",
											"internalType": "uint32"
										}
									]
								},
								{
									"name": "surplusAllowances",
									"type": "tuple[]",
									"internalType": "struct JBCurrencyAmount[]",
									"components": [
										{
											"name": "amount",
											"type": "uint224",
											"internalType": "uint224"
										},
										{
											"name": "currency",
											"type": "uint32",
											"internalType": "uint32"
										}
									]
								}
							]
						}
					]
				},
				{
					"name": "terminalConfigurations",
					"type": "tuple[]",
					"internalType": "struct JBTerminalConfig[]",
					"components": [
						{
							"name": "terminal",
							"type": "address",
							"internalType": "contract IJBTerminal"
						},
						{
							"name": "accountingContextsToAccept",
							"type": "tuple[]",
							"internalType": "struct JBAccountingContext[]",
							"components": [
								{
									"name": "token",
									"type": "address",
									"internalType": "address"
								},
								{
									"name": "decimals",
									"type": "uint8",
									"internalType": "uint8"
								},
								{
									"name": "currency",
									"type": "uint32",
									"internalType": "uint32"
								}
							]
						}
					]
				},
				{
					"name": "memo",
					"type": "string",
					"internalType": "string"
				},
				{
					"name": "suckerDeploymentConfiguration",
					"type": "tuple",
					"internalType": "struct JBSuckerDeploymentConfig",
					"components": [
						{
							"name": "deployerConfigurations",
							"type": "tuple[]",
							"internalType": "struct JBSuckerDeployerConfig[]",
							"components": [
								{
									"name": "deployer",
									"type": "address",
									"internalType": "contract IJBSuckerDeployer"
								},
								{
									"name": "peer",
									"type": "bytes32",
									"internalType": "bytes32"
								},
								{
									"name": "mappings",
									"type": "tuple[]",
									"internalType": "struct JBTokenMapping[]",
									"components": [
										{
											"name": "localToken",
											"type": "address",
											"internalType": "address"
										},
										{
											"name": "minGas",
											"type": "uint32",
											"internalType": "uint32"
										},
										{
											"name": "remoteToken",
											"type": "bytes32",
											"internalType": "bytes32"
										}
									]
								}
							]
						},
						{
							"name": "salt",
							"type": "bytes32",
							"internalType": "bytes32"
						}
					]
				}
			],
			"outputs": [
				{
					"name": "projectId",
					"type": "uint256",
					"internalType": "uint256"
				},
				{
					"name": "hook",
					"type": "address",
					"internalType": "contract IJB721TiersHook"
				},
				{
					"name": "suckers",
					"type": "address[]",
					"internalType": "address[]"
				}
			],
			"stateMutability": "payable"
		},
		{
			"type": "function",
			"name": "launchRulesetsFor",
			"inputs": [
				{
					"name": "projectId",
					"type": "uint256",
					"internalType": "uint256"
				},
				{
					"name": "projectUri",
					"type": "string",
					"internalType": "string"
				},
				{
					"name": "rulesetConfigurations",
					"type": "tuple[]",
					"internalType": "struct JBRulesetConfig[]",
					"components": [
						{
							"name": "mustStartAtOrAfter",
							"type": "uint48",
							"internalType": "uint48"
						},
						{
							"name": "duration",
							"type": "uint32",
							"internalType": "uint32"
						},
						{
							"name": "weight",
							"type": "uint112",
							"internalType": "uint112"
						},
						{
							"name": "weightCutPercent",
							"type": "uint32",
							"internalType": "uint32"
						},
						{
							"name": "approvalHook",
							"type": "address",
							"internalType": "contract IJBRulesetApprovalHook"
						},
						{
							"name": "metadata",
							"type": "tuple",
							"internalType": "struct JBRulesetMetadata",
							"components": [
								{
									"name": "reservedPercent",
									"type": "uint16",
									"internalType": "uint16"
								},
								{
									"name": "cashOutTaxRate",
									"type": "uint16",
									"internalType": "uint16"
								},
								{
									"name": "baseCurrency",
									"type": "uint32",
									"internalType": "uint32"
								},
								{
									"name": "pausePay",
									"type": "bool",
									"internalType": "bool"
								},
								{
									"name": "pauseCreditTransfers",
									"type": "bool",
									"internalType": "bool"
								},
								{
									"name": "allowOwnerMinting",
									"type": "bool",
									"internalType": "bool"
								},
								{
									"name": "allowSetCustomToken",
									"type": "bool",
									"internalType": "bool"
								},
								{
									"name": "allowTerminalMigration",
									"type": "bool",
									"internalType": "bool"
								},
								{
									"name": "allowSetTerminals",
									"type": "bool",
									"internalType": "bool"
								},
								{
									"name": "allowSetController",
									"type": "bool",
									"internalType": "bool"
								},
								{
									"name": "allowAddAccountingContext",
									"type": "bool",
									"internalType": "bool"
								},
								{
									"name": "allowAddPriceFeed",
									"type": "bool",
									"internalType": "bool"
								},
								{
									"name": "ownerMustSendPayouts",
									"type": "bool",
									"internalType": "bool"
								},
								{
									"name": "holdFees",
									"type": "bool",
									"internalType": "bool"
								},
								{
									"name": "scopeCashOutsToLocalBalances",
									"type": "bool",
									"internalType": "bool"
								},
								{
									"name": "useDataHookForPay",
									"type": "bool",
									"internalType": "bool"
								},
								{
									"name": "useDataHookForCashOut",
									"type": "bool",
									"internalType": "bool"
								},
								{
									"name": "dataHook",
									"type": "address",
									"internalType": "address"
								},
								{
									"name": "metadata",
									"type": "uint16",
									"internalType": "uint16"
								}
							]
						},
						{
							"name": "splitGroups",
							"type": "tuple[]",
							"internalType": "struct JBSplitGroup[]",
							"components": [
								{
									"name": "groupId",
									"type": "uint256",
									"internalType": "uint256"
								},
								{
									"name": "splits",
									"type": "tuple[]",
									"internalType": "struct JBSplit[]",
									"components": [
										{
											"name": "percent",
											"type": "uint32",
											"internalType": "uint32"
										},
										{
											"name": "projectId",
											"type": "uint64",
											"internalType": "uint64"
										},
										{
											"name": "beneficiary",
											"type": "address",
											"internalType": "address payable"
										},
										{
											"name": "preferAddToBalance",
											"type": "bool",
											"internalType": "bool"
										},
										{
											"name": "lockedUntil",
											"type": "uint48",
											"internalType": "uint48"
										},
										{
											"name": "hook",
											"type": "address",
											"internalType": "contract IJBSplitHook"
										}
									]
								}
							]
						},
						{
							"name": "fundAccessLimitGroups",
							"type": "tuple[]",
							"internalType": "struct JBFundAccessLimitGroup[]",
							"components": [
								{
									"name": "terminal",
									"type": "address",
									"internalType": "address"
								},
								{
									"name": "token",
									"type": "address",
									"internalType": "address"
								},
								{
									"name": "payoutLimits",
									"type": "tuple[]",
									"internalType": "struct JBCurrencyAmount[]",
									"components": [
										{
											"name": "amount",
											"type": "uint224",
											"internalType": "uint224"
										},
										{
											"name": "currency",
											"type": "uint32",
											"internalType": "uint32"
										}
									]
								},
								{
									"name": "surplusAllowances",
									"type": "tuple[]",
									"internalType": "struct JBCurrencyAmount[]",
									"components": [
										{
											"name": "amount",
											"type": "uint224",
											"internalType": "uint224"
										},
										{
											"name": "currency",
											"type": "uint32",
											"internalType": "uint32"
										}
									]
								}
							]
						}
					]
				},
				{
					"name": "terminalConfigurations",
					"type": "tuple[]",
					"internalType": "struct JBTerminalConfig[]",
					"components": [
						{
							"name": "terminal",
							"type": "address",
							"internalType": "contract IJBTerminal"
						},
						{
							"name": "accountingContextsToAccept",
							"type": "tuple[]",
							"internalType": "struct JBAccountingContext[]",
							"components": [
								{
									"name": "token",
									"type": "address",
									"internalType": "address"
								},
								{
									"name": "decimals",
									"type": "uint8",
									"internalType": "uint8"
								},
								{
									"name": "currency",
									"type": "uint32",
									"internalType": "uint32"
								}
							]
						}
					]
				},
				{
					"name": "memo",
					"type": "string",
					"internalType": "string"
				}
			],
			"outputs": [
				{
					"name": "rulesetId",
					"type": "uint256",
					"internalType": "uint256"
				},
				{
					"name": "hook",
					"type": "address",
					"internalType": "contract IJB721TiersHook"
				}
			],
			"stateMutability": "nonpayable"
		},
		{
			"type": "function",
			"name": "launchRulesetsFor",
			"inputs": [
				{
					"name": "projectId",
					"type": "uint256",
					"internalType": "uint256"
				},
				{
					"name": "projectUri",
					"type": "string",
					"internalType": "string"
				},
				{
					"name": "deploy721Config",
					"type": "tuple",
					"internalType": "struct JBOmnichain721Config",
					"components": [
						{
							"name": "deployTiersHookConfig",
							"type": "tuple",
							"internalType": "struct JBDeploy721TiersHookConfig",
							"components": [
								{
									"name": "name",
									"type": "string",
									"internalType": "string"
								},
								{
									"name": "symbol",
									"type": "string",
									"internalType": "string"
								},
								{
									"name": "baseUri",
									"type": "string",
									"internalType": "string"
								},
								{
									"name": "tokenUriResolver",
									"type": "address",
									"internalType": "contract IJB721TokenUriResolver"
								},
								{
									"name": "contractUri",
									"type": "string",
									"internalType": "string"
								},
								{
									"name": "tiersConfig",
									"type": "tuple",
									"internalType": "struct JB721InitTiersConfig",
									"components": [
										{
											"name": "tiers",
											"type": "tuple[]",
											"internalType": "struct JB721TierConfig[]",
											"components": [
												{
													"name": "price",
													"type": "uint104",
													"internalType": "uint104"
												},
												{
													"name": "initialSupply",
													"type": "uint32",
													"internalType": "uint32"
												},
												{
													"name": "votingUnits",
													"type": "uint32",
													"internalType": "uint32"
												},
												{
													"name": "reserveFrequency",
													"type": "uint16",
													"internalType": "uint16"
												},
												{
													"name": "reserveBeneficiary",
													"type": "address",
													"internalType": "address"
												},
												{
													"name": "encodedIpfsUri",
													"type": "bytes32",
													"internalType": "bytes32"
												},
												{
													"name": "category",
													"type": "uint24",
													"internalType": "uint24"
												},
												{
													"name": "discountPercent",
													"type": "uint8",
													"internalType": "uint8"
												},
												{
													"name": "flags",
													"type": "tuple",
													"internalType": "struct JB721TierConfigFlags",
													"components": [
														{
															"name": "allowOwnerMint",
															"type": "bool",
															"internalType": "bool"
														},
														{
															"name": "useReserveBeneficiaryAsDefault",
															"type": "bool",
															"internalType": "bool"
														},
														{
															"name": "transfersPausable",
															"type": "bool",
															"internalType": "bool"
														},
														{
															"name": "useVotingUnits",
															"type": "bool",
															"internalType": "bool"
														},
														{
															"name": "cantBeRemoved",
															"type": "bool",
															"internalType": "bool"
														},
														{
															"name": "cantIncreaseDiscountPercent",
															"type": "bool",
															"internalType": "bool"
														},
														{
															"name": "cantBuyWithCredits",
															"type": "bool",
															"internalType": "bool"
														}
													]
												},
												{
													"name": "splitPercent",
													"type": "uint32",
													"internalType": "uint32"
												},
												{
													"name": "splits",
													"type": "tuple[]",
													"internalType": "struct JBSplit[]",
													"components": [
														{
															"name": "percent",
															"type": "uint32",
															"internalType": "uint32"
														},
														{
															"name": "projectId",
															"type": "uint64",
															"internalType": "uint64"
														},
														{
															"name": "beneficiary",
															"type": "address",
															"internalType": "address payable"
														},
														{
															"name": "preferAddToBalance",
															"type": "bool",
															"internalType": "bool"
														},
														{
															"name": "lockedUntil",
															"type": "uint48",
															"internalType": "uint48"
														},
														{
															"name": "hook",
															"type": "address",
															"internalType": "contract IJBSplitHook"
														}
													]
												}
											]
										},
										{
											"name": "currency",
											"type": "uint32",
											"internalType": "uint32"
										},
										{
											"name": "decimals",
											"type": "uint8",
											"internalType": "uint8"
										}
									]
								},
								{
									"name": "flags",
									"type": "tuple",
									"internalType": "struct JB721TiersHookFlags",
									"components": [
										{
											"name": "noNewTiersWithReserves",
											"type": "bool",
											"internalType": "bool"
										},
										{
											"name": "noNewTiersWithVotes",
											"type": "bool",
											"internalType": "bool"
										},
										{
											"name": "noNewTiersWithOwnerMinting",
											"type": "bool",
											"internalType": "bool"
										},
										{
											"name": "preventOverspending",
											"type": "bool",
											"internalType": "bool"
										},
										{
											"name": "issueTokensForSplits",
											"type": "bool",
											"internalType": "bool"
										}
									]
								}
							]
						},
						{
							"name": "useDataHookForCashOut",
							"type": "bool",
							"internalType": "bool"
						},
						{
							"name": "salt",
							"type": "bytes32",
							"internalType": "bytes32"
						}
					]
				},
				{
					"name": "rulesetConfigurations",
					"type": "tuple[]",
					"internalType": "struct JBRulesetConfig[]",
					"components": [
						{
							"name": "mustStartAtOrAfter",
							"type": "uint48",
							"internalType": "uint48"
						},
						{
							"name": "duration",
							"type": "uint32",
							"internalType": "uint32"
						},
						{
							"name": "weight",
							"type": "uint112",
							"internalType": "uint112"
						},
						{
							"name": "weightCutPercent",
							"type": "uint32",
							"internalType": "uint32"
						},
						{
							"name": "approvalHook",
							"type": "address",
							"internalType": "contract IJBRulesetApprovalHook"
						},
						{
							"name": "metadata",
							"type": "tuple",
							"internalType": "struct JBRulesetMetadata",
							"components": [
								{
									"name": "reservedPercent",
									"type": "uint16",
									"internalType": "uint16"
								},
								{
									"name": "cashOutTaxRate",
									"type": "uint16",
									"internalType": "uint16"
								},
								{
									"name": "baseCurrency",
									"type": "uint32",
									"internalType": "uint32"
								},
								{
									"name": "pausePay",
									"type": "bool",
									"internalType": "bool"
								},
								{
									"name": "pauseCreditTransfers",
									"type": "bool",
									"internalType": "bool"
								},
								{
									"name": "allowOwnerMinting",
									"type": "bool",
									"internalType": "bool"
								},
								{
									"name": "allowSetCustomToken",
									"type": "bool",
									"internalType": "bool"
								},
								{
									"name": "allowTerminalMigration",
									"type": "bool",
									"internalType": "bool"
								},
								{
									"name": "allowSetTerminals",
									"type": "bool",
									"internalType": "bool"
								},
								{
									"name": "allowSetController",
									"type": "bool",
									"internalType": "bool"
								},
								{
									"name": "allowAddAccountingContext",
									"type": "bool",
									"internalType": "bool"
								},
								{
									"name": "allowAddPriceFeed",
									"type": "bool",
									"internalType": "bool"
								},
								{
									"name": "ownerMustSendPayouts",
									"type": "bool",
									"internalType": "bool"
								},
								{
									"name": "holdFees",
									"type": "bool",
									"internalType": "bool"
								},
								{
									"name": "scopeCashOutsToLocalBalances",
									"type": "bool",
									"internalType": "bool"
								},
								{
									"name": "useDataHookForPay",
									"type": "bool",
									"internalType": "bool"
								},
								{
									"name": "useDataHookForCashOut",
									"type": "bool",
									"internalType": "bool"
								},
								{
									"name": "dataHook",
									"type": "address",
									"internalType": "address"
								},
								{
									"name": "metadata",
									"type": "uint16",
									"internalType": "uint16"
								}
							]
						},
						{
							"name": "splitGroups",
							"type": "tuple[]",
							"internalType": "struct JBSplitGroup[]",
							"components": [
								{
									"name": "groupId",
									"type": "uint256",
									"internalType": "uint256"
								},
								{
									"name": "splits",
									"type": "tuple[]",
									"internalType": "struct JBSplit[]",
									"components": [
										{
											"name": "percent",
											"type": "uint32",
											"internalType": "uint32"
										},
										{
											"name": "projectId",
											"type": "uint64",
											"internalType": "uint64"
										},
										{
											"name": "beneficiary",
											"type": "address",
											"internalType": "address payable"
										},
										{
											"name": "preferAddToBalance",
											"type": "bool",
											"internalType": "bool"
										},
										{
											"name": "lockedUntil",
											"type": "uint48",
											"internalType": "uint48"
										},
										{
											"name": "hook",
											"type": "address",
											"internalType": "contract IJBSplitHook"
										}
									]
								}
							]
						},
						{
							"name": "fundAccessLimitGroups",
							"type": "tuple[]",
							"internalType": "struct JBFundAccessLimitGroup[]",
							"components": [
								{
									"name": "terminal",
									"type": "address",
									"internalType": "address"
								},
								{
									"name": "token",
									"type": "address",
									"internalType": "address"
								},
								{
									"name": "payoutLimits",
									"type": "tuple[]",
									"internalType": "struct JBCurrencyAmount[]",
									"components": [
										{
											"name": "amount",
											"type": "uint224",
											"internalType": "uint224"
										},
										{
											"name": "currency",
											"type": "uint32",
											"internalType": "uint32"
										}
									]
								},
								{
									"name": "surplusAllowances",
									"type": "tuple[]",
									"internalType": "struct JBCurrencyAmount[]",
									"components": [
										{
											"name": "amount",
											"type": "uint224",
											"internalType": "uint224"
										},
										{
											"name": "currency",
											"type": "uint32",
											"internalType": "uint32"
										}
									]
								}
							]
						}
					]
				},
				{
					"name": "terminalConfigurations",
					"type": "tuple[]",
					"internalType": "struct JBTerminalConfig[]",
					"components": [
						{
							"name": "terminal",
							"type": "address",
							"internalType": "contract IJBTerminal"
						},
						{
							"name": "accountingContextsToAccept",
							"type": "tuple[]",
							"internalType": "struct JBAccountingContext[]",
							"components": [
								{
									"name": "token",
									"type": "address",
									"internalType": "address"
								},
								{
									"name": "decimals",
									"type": "uint8",
									"internalType": "uint8"
								},
								{
									"name": "currency",
									"type": "uint32",
									"internalType": "uint32"
								}
							]
						}
					]
				},
				{
					"name": "memo",
					"type": "string",
					"internalType": "string"
				}
			],
			"outputs": [
				{
					"name": "rulesetId",
					"type": "uint256",
					"internalType": "uint256"
				},
				{
					"name": "hook",
					"type": "address",
					"internalType": "contract IJB721TiersHook"
				}
			],
			"stateMutability": "nonpayable"
		},
		{
			"type": "function",
			"name": "onERC721Received",
			"inputs": [
				{
					"name": "",
					"type": "address",
					"internalType": "address"
				},
				{
					"name": "from",
					"type": "address",
					"internalType": "address"
				},
				{
					"name": "tokenId",
					"type": "uint256",
					"internalType": "uint256"
				},
				{
					"name": "",
					"type": "bytes",
					"internalType": "bytes"
				}
			],
			"outputs": [
				{
					"name": "",
					"type": "bytes4",
					"internalType": "bytes4"
				}
			],
			"stateMutability": "view"
		},
		{
			"type": "function",
			"name": "peerChainAdjustedAccountsOf",
			"inputs": [
				{
					"name": "projectId",
					"type": "uint256",
					"internalType": "uint256"
				}
			],
			"outputs": [
				{
					"name": "supply",
					"type": "uint256",
					"internalType": "uint256"
				},
				{
					"name": "contexts",
					"type": "tuple[]",
					"internalType": "struct JBSourceContext[]",
					"components": [
						{
							"name": "token",
							"type": "bytes32",
							"internalType": "bytes32"
						},
						{
							"name": "decimals",
							"type": "uint8",
							"internalType": "uint8"
						},
						{
							"name": "surplus",
							"type": "uint128",
							"internalType": "uint128"
						},
						{
							"name": "balance",
							"type": "uint128",
							"internalType": "uint128"
						}
					]
				}
			],
			"stateMutability": "view"
		},
		{
			"type": "function",
			"name": "queueRulesetsOf",
			"inputs": [
				{
					"name": "projectId",
					"type": "uint256",
					"internalType": "uint256"
				},
				{
					"name": "rulesetConfigurations",
					"type": "tuple[]",
					"internalType": "struct JBRulesetConfig[]",
					"components": [
						{
							"name": "mustStartAtOrAfter",
							"type": "uint48",
							"internalType": "uint48"
						},
						{
							"name": "duration",
							"type": "uint32",
							"internalType": "uint32"
						},
						{
							"name": "weight",
							"type": "uint112",
							"internalType": "uint112"
						},
						{
							"name": "weightCutPercent",
							"type": "uint32",
							"internalType": "uint32"
						},
						{
							"name": "approvalHook",
							"type": "address",
							"internalType": "contract IJBRulesetApprovalHook"
						},
						{
							"name": "metadata",
							"type": "tuple",
							"internalType": "struct JBRulesetMetadata",
							"components": [
								{
									"name": "reservedPercent",
									"type": "uint16",
									"internalType": "uint16"
								},
								{
									"name": "cashOutTaxRate",
									"type": "uint16",
									"internalType": "uint16"
								},
								{
									"name": "baseCurrency",
									"type": "uint32",
									"internalType": "uint32"
								},
								{
									"name": "pausePay",
									"type": "bool",
									"internalType": "bool"
								},
								{
									"name": "pauseCreditTransfers",
									"type": "bool",
									"internalType": "bool"
								},
								{
									"name": "allowOwnerMinting",
									"type": "bool",
									"internalType": "bool"
								},
								{
									"name": "allowSetCustomToken",
									"type": "bool",
									"internalType": "bool"
								},
								{
									"name": "allowTerminalMigration",
									"type": "bool",
									"internalType": "bool"
								},
								{
									"name": "allowSetTerminals",
									"type": "bool",
									"internalType": "bool"
								},
								{
									"name": "allowSetController",
									"type": "bool",
									"internalType": "bool"
								},
								{
									"name": "allowAddAccountingContext",
									"type": "bool",
									"internalType": "bool"
								},
								{
									"name": "allowAddPriceFeed",
									"type": "bool",
									"internalType": "bool"
								},
								{
									"name": "ownerMustSendPayouts",
									"type": "bool",
									"internalType": "bool"
								},
								{
									"name": "holdFees",
									"type": "bool",
									"internalType": "bool"
								},
								{
									"name": "scopeCashOutsToLocalBalances",
									"type": "bool",
									"internalType": "bool"
								},
								{
									"name": "useDataHookForPay",
									"type": "bool",
									"internalType": "bool"
								},
								{
									"name": "useDataHookForCashOut",
									"type": "bool",
									"internalType": "bool"
								},
								{
									"name": "dataHook",
									"type": "address",
									"internalType": "address"
								},
								{
									"name": "metadata",
									"type": "uint16",
									"internalType": "uint16"
								}
							]
						},
						{
							"name": "splitGroups",
							"type": "tuple[]",
							"internalType": "struct JBSplitGroup[]",
							"components": [
								{
									"name": "groupId",
									"type": "uint256",
									"internalType": "uint256"
								},
								{
									"name": "splits",
									"type": "tuple[]",
									"internalType": "struct JBSplit[]",
									"components": [
										{
											"name": "percent",
											"type": "uint32",
											"internalType": "uint32"
										},
										{
											"name": "projectId",
											"type": "uint64",
											"internalType": "uint64"
										},
										{
											"name": "beneficiary",
											"type": "address",
											"internalType": "address payable"
										},
										{
											"name": "preferAddToBalance",
											"type": "bool",
											"internalType": "bool"
										},
										{
											"name": "lockedUntil",
											"type": "uint48",
											"internalType": "uint48"
										},
										{
											"name": "hook",
											"type": "address",
											"internalType": "contract IJBSplitHook"
										}
									]
								}
							]
						},
						{
							"name": "fundAccessLimitGroups",
							"type": "tuple[]",
							"internalType": "struct JBFundAccessLimitGroup[]",
							"components": [
								{
									"name": "terminal",
									"type": "address",
									"internalType": "address"
								},
								{
									"name": "token",
									"type": "address",
									"internalType": "address"
								},
								{
									"name": "payoutLimits",
									"type": "tuple[]",
									"internalType": "struct JBCurrencyAmount[]",
									"components": [
										{
											"name": "amount",
											"type": "uint224",
											"internalType": "uint224"
										},
										{
											"name": "currency",
											"type": "uint32",
											"internalType": "uint32"
										}
									]
								},
								{
									"name": "surplusAllowances",
									"type": "tuple[]",
									"internalType": "struct JBCurrencyAmount[]",
									"components": [
										{
											"name": "amount",
											"type": "uint224",
											"internalType": "uint224"
										},
										{
											"name": "currency",
											"type": "uint32",
											"internalType": "uint32"
										}
									]
								}
							]
						}
					]
				},
				{
					"name": "memo",
					"type": "string",
					"internalType": "string"
				}
			],
			"outputs": [
				{
					"name": "rulesetId",
					"type": "uint256",
					"internalType": "uint256"
				},
				{
					"name": "hook",
					"type": "address",
					"internalType": "contract IJB721TiersHook"
				}
			],
			"stateMutability": "nonpayable"
		},
		{
			"type": "function",
			"name": "queueRulesetsOf",
			"inputs": [
				{
					"name": "projectId",
					"type": "uint256",
					"internalType": "uint256"
				},
				{
					"name": "deploy721Config",
					"type": "tuple",
					"internalType": "struct JBOmnichain721Config",
					"components": [
						{
							"name": "deployTiersHookConfig",
							"type": "tuple",
							"internalType": "struct JBDeploy721TiersHookConfig",
							"components": [
								{
									"name": "name",
									"type": "string",
									"internalType": "string"
								},
								{
									"name": "symbol",
									"type": "string",
									"internalType": "string"
								},
								{
									"name": "baseUri",
									"type": "string",
									"internalType": "string"
								},
								{
									"name": "tokenUriResolver",
									"type": "address",
									"internalType": "contract IJB721TokenUriResolver"
								},
								{
									"name": "contractUri",
									"type": "string",
									"internalType": "string"
								},
								{
									"name": "tiersConfig",
									"type": "tuple",
									"internalType": "struct JB721InitTiersConfig",
									"components": [
										{
											"name": "tiers",
											"type": "tuple[]",
											"internalType": "struct JB721TierConfig[]",
											"components": [
												{
													"name": "price",
													"type": "uint104",
													"internalType": "uint104"
												},
												{
													"name": "initialSupply",
													"type": "uint32",
													"internalType": "uint32"
												},
												{
													"name": "votingUnits",
													"type": "uint32",
													"internalType": "uint32"
												},
												{
													"name": "reserveFrequency",
													"type": "uint16",
													"internalType": "uint16"
												},
												{
													"name": "reserveBeneficiary",
													"type": "address",
													"internalType": "address"
												},
												{
													"name": "encodedIpfsUri",
													"type": "bytes32",
													"internalType": "bytes32"
												},
												{
													"name": "category",
													"type": "uint24",
													"internalType": "uint24"
												},
												{
													"name": "discountPercent",
													"type": "uint8",
													"internalType": "uint8"
												},
												{
													"name": "flags",
													"type": "tuple",
													"internalType": "struct JB721TierConfigFlags",
													"components": [
														{
															"name": "allowOwnerMint",
															"type": "bool",
															"internalType": "bool"
														},
														{
															"name": "useReserveBeneficiaryAsDefault",
															"type": "bool",
															"internalType": "bool"
														},
														{
															"name": "transfersPausable",
															"type": "bool",
															"internalType": "bool"
														},
														{
															"name": "useVotingUnits",
															"type": "bool",
															"internalType": "bool"
														},
														{
															"name": "cantBeRemoved",
															"type": "bool",
															"internalType": "bool"
														},
														{
															"name": "cantIncreaseDiscountPercent",
															"type": "bool",
															"internalType": "bool"
														},
														{
															"name": "cantBuyWithCredits",
															"type": "bool",
															"internalType": "bool"
														}
													]
												},
												{
													"name": "splitPercent",
													"type": "uint32",
													"internalType": "uint32"
												},
												{
													"name": "splits",
													"type": "tuple[]",
													"internalType": "struct JBSplit[]",
													"components": [
														{
															"name": "percent",
															"type": "uint32",
															"internalType": "uint32"
														},
														{
															"name": "projectId",
															"type": "uint64",
															"internalType": "uint64"
														},
														{
															"name": "beneficiary",
															"type": "address",
															"internalType": "address payable"
														},
														{
															"name": "preferAddToBalance",
															"type": "bool",
															"internalType": "bool"
														},
														{
															"name": "lockedUntil",
															"type": "uint48",
															"internalType": "uint48"
														},
														{
															"name": "hook",
															"type": "address",
															"internalType": "contract IJBSplitHook"
														}
													]
												}
											]
										},
										{
											"name": "currency",
											"type": "uint32",
											"internalType": "uint32"
										},
										{
											"name": "decimals",
											"type": "uint8",
											"internalType": "uint8"
										}
									]
								},
								{
									"name": "flags",
									"type": "tuple",
									"internalType": "struct JB721TiersHookFlags",
									"components": [
										{
											"name": "noNewTiersWithReserves",
											"type": "bool",
											"internalType": "bool"
										},
										{
											"name": "noNewTiersWithVotes",
											"type": "bool",
											"internalType": "bool"
										},
										{
											"name": "noNewTiersWithOwnerMinting",
											"type": "bool",
											"internalType": "bool"
										},
										{
											"name": "preventOverspending",
											"type": "bool",
											"internalType": "bool"
										},
										{
											"name": "issueTokensForSplits",
											"type": "bool",
											"internalType": "bool"
										}
									]
								}
							]
						},
						{
							"name": "useDataHookForCashOut",
							"type": "bool",
							"internalType": "bool"
						},
						{
							"name": "salt",
							"type": "bytes32",
							"internalType": "bytes32"
						}
					]
				},
				{
					"name": "rulesetConfigurations",
					"type": "tuple[]",
					"internalType": "struct JBRulesetConfig[]",
					"components": [
						{
							"name": "mustStartAtOrAfter",
							"type": "uint48",
							"internalType": "uint48"
						},
						{
							"name": "duration",
							"type": "uint32",
							"internalType": "uint32"
						},
						{
							"name": "weight",
							"type": "uint112",
							"internalType": "uint112"
						},
						{
							"name": "weightCutPercent",
							"type": "uint32",
							"internalType": "uint32"
						},
						{
							"name": "approvalHook",
							"type": "address",
							"internalType": "contract IJBRulesetApprovalHook"
						},
						{
							"name": "metadata",
							"type": "tuple",
							"internalType": "struct JBRulesetMetadata",
							"components": [
								{
									"name": "reservedPercent",
									"type": "uint16",
									"internalType": "uint16"
								},
								{
									"name": "cashOutTaxRate",
									"type": "uint16",
									"internalType": "uint16"
								},
								{
									"name": "baseCurrency",
									"type": "uint32",
									"internalType": "uint32"
								},
								{
									"name": "pausePay",
									"type": "bool",
									"internalType": "bool"
								},
								{
									"name": "pauseCreditTransfers",
									"type": "bool",
									"internalType": "bool"
								},
								{
									"name": "allowOwnerMinting",
									"type": "bool",
									"internalType": "bool"
								},
								{
									"name": "allowSetCustomToken",
									"type": "bool",
									"internalType": "bool"
								},
								{
									"name": "allowTerminalMigration",
									"type": "bool",
									"internalType": "bool"
								},
								{
									"name": "allowSetTerminals",
									"type": "bool",
									"internalType": "bool"
								},
								{
									"name": "allowSetController",
									"type": "bool",
									"internalType": "bool"
								},
								{
									"name": "allowAddAccountingContext",
									"type": "bool",
									"internalType": "bool"
								},
								{
									"name": "allowAddPriceFeed",
									"type": "bool",
									"internalType": "bool"
								},
								{
									"name": "ownerMustSendPayouts",
									"type": "bool",
									"internalType": "bool"
								},
								{
									"name": "holdFees",
									"type": "bool",
									"internalType": "bool"
								},
								{
									"name": "scopeCashOutsToLocalBalances",
									"type": "bool",
									"internalType": "bool"
								},
								{
									"name": "useDataHookForPay",
									"type": "bool",
									"internalType": "bool"
								},
								{
									"name": "useDataHookForCashOut",
									"type": "bool",
									"internalType": "bool"
								},
								{
									"name": "dataHook",
									"type": "address",
									"internalType": "address"
								},
								{
									"name": "metadata",
									"type": "uint16",
									"internalType": "uint16"
								}
							]
						},
						{
							"name": "splitGroups",
							"type": "tuple[]",
							"internalType": "struct JBSplitGroup[]",
							"components": [
								{
									"name": "groupId",
									"type": "uint256",
									"internalType": "uint256"
								},
								{
									"name": "splits",
									"type": "tuple[]",
									"internalType": "struct JBSplit[]",
									"components": [
										{
											"name": "percent",
											"type": "uint32",
											"internalType": "uint32"
										},
										{
											"name": "projectId",
											"type": "uint64",
											"internalType": "uint64"
										},
										{
											"name": "beneficiary",
											"type": "address",
											"internalType": "address payable"
										},
										{
											"name": "preferAddToBalance",
											"type": "bool",
											"internalType": "bool"
										},
										{
											"name": "lockedUntil",
											"type": "uint48",
											"internalType": "uint48"
										},
										{
											"name": "hook",
											"type": "address",
											"internalType": "contract IJBSplitHook"
										}
									]
								}
							]
						},
						{
							"name": "fundAccessLimitGroups",
							"type": "tuple[]",
							"internalType": "struct JBFundAccessLimitGroup[]",
							"components": [
								{
									"name": "terminal",
									"type": "address",
									"internalType": "address"
								},
								{
									"name": "token",
									"type": "address",
									"internalType": "address"
								},
								{
									"name": "payoutLimits",
									"type": "tuple[]",
									"internalType": "struct JBCurrencyAmount[]",
									"components": [
										{
											"name": "amount",
											"type": "uint224",
											"internalType": "uint224"
										},
										{
											"name": "currency",
											"type": "uint32",
											"internalType": "uint32"
										}
									]
								},
								{
									"name": "surplusAllowances",
									"type": "tuple[]",
									"internalType": "struct JBCurrencyAmount[]",
									"components": [
										{
											"name": "amount",
											"type": "uint224",
											"internalType": "uint224"
										},
										{
											"name": "currency",
											"type": "uint32",
											"internalType": "uint32"
										}
									]
								}
							]
						}
					]
				},
				{
					"name": "memo",
					"type": "string",
					"internalType": "string"
				}
			],
			"outputs": [
				{
					"name": "rulesetId",
					"type": "uint256",
					"internalType": "uint256"
				},
				{
					"name": "hook",
					"type": "address",
					"internalType": "contract IJB721TiersHook"
				}
			],
			"stateMutability": "nonpayable"
		},
		{
			"type": "function",
			"name": "supportsInterface",
			"inputs": [
				{
					"name": "interfaceId",
					"type": "bytes4",
					"internalType": "bytes4"
				}
			],
			"outputs": [
				{
					"name": "flag",
					"type": "bool",
					"internalType": "bool"
				}
			],
			"stateMutability": "view"
		},
		{
			"type": "function",
			"name": "tiered721HookOf",
			"inputs": [
				{
					"name": "projectId",
					"type": "uint256",
					"internalType": "uint256"
				},
				{
					"name": "rulesetId",
					"type": "uint256",
					"internalType": "uint256"
				}
			],
			"outputs": [
				{
					"name": "hook",
					"type": "address",
					"internalType": "contract IJB721TiersHook"
				},
				{
					"name": "useDataHookForCashOut",
					"type": "bool",
					"internalType": "bool"
				}
			],
			"stateMutability": "view"
		},
		{
			"type": "function",
			"name": "trustedForwarder",
			"inputs": [],
			"outputs": [
				{
					"name": "",
					"type": "address",
					"internalType": "address"
				}
			],
			"stateMutability": "view"
		},
		{
			"type": "error",
			"name": "JBOmnichainDeployer_ControllerMismatch",
			"inputs": [
				{
					"name": "projectId",
					"type": "uint256",
					"internalType": "uint256"
				},
				{
					"name": "expectedController",
					"type": "address",
					"internalType": "address"
				},
				{
					"name": "actualController",
					"type": "address",
					"internalType": "address"
				}
			]
		},
		{
			"type": "error",
			"name": "JBOmnichainDeployer_InvalidHook",
			"inputs": [
				{
					"name": "hook",
					"type": "address",
					"internalType": "address"
				},
				{
					"name": "projectId",
					"type": "uint256",
					"internalType": "uint256"
				},
				{
					"name": "rulesetId",
					"type": "uint256",
					"internalType": "uint256"
				}
			]
		},
		{
			"type": "error",
			"name": "JBOmnichainDeployer_NoRulesetConfigurations",
			"inputs": [
				{
					"name": "rulesetConfigurationCount",
					"type": "uint256",
					"internalType": "uint256"
				}
			]
		},
		{
			"type": "error",
			"name": "JBOmnichainDeployer_RulesetIdsUnpredictable",
			"inputs": [
				{
					"name": "projectId",
					"type": "uint256",
					"internalType": "uint256"
				},
				{
					"name": "latestRulesetId",
					"type": "uint256",
					"internalType": "uint256"
				},
				{
					"name": "currentTimestamp",
					"type": "uint256",
					"internalType": "uint256"
				}
			]
		},
		{
			"type": "error",
			"name": "JBOmnichainDeployer_UnexpectedNFTReceived",
			"inputs": [
				{
					"name": "caller",
					"type": "address",
					"internalType": "address"
				},
				{
					"name": "from",
					"type": "address",
					"internalType": "address"
				},
				{
					"name": "tokenId",
					"type": "uint256",
					"internalType": "uint256"
				}
			]
		},
		{
			"type": "error",
			"name": "JBPermissioned_Unauthorized",
			"inputs": [
				{
					"name": "account",
					"type": "address",
					"internalType": "address"
				},
				{
					"name": "sender",
					"type": "address",
					"internalType": "address"
				},
				{
					"name": "projectId",
					"type": "uint256",
					"internalType": "uint256"
				},
				{
					"name": "permissionId",
					"type": "uint256",
					"internalType": "uint256"
				}
			]
		},
		{
			"type": "error",
			"name": "PRBMath_MulDiv_Overflow",
			"inputs": [
				{
					"name": "x",
					"type": "uint256",
					"internalType": "uint256"
				},
				{
					"name": "y",
					"type": "uint256",
					"internalType": "uint256"
				},
				{
					"name": "denominator",
					"type": "uint256",
					"internalType": "uint256"
				}
			]
		}
	],
	"args": [
		"0x952648f3A4BbE85C07398e7D3235D330dBFACA32",
		"0xA19E29ADA73ec9170902fd69A266867f00808622",
		"0xCF5870A8F942110C2ea89fd03B7a3D578816a265",
		"0x59e419f593358990C496A1c4174a5cfB4D06db07",
		"0x53d5A7E174A87721c527ED14c7Ce7cb515465607"
	],
	"solcInputHash": "2cf8b2e0d3de177c04e40b93aa6ad6b4",
	"bytecode": "0x61016080604052346103335760a081615a0b803803809161002082856103f7565b8339810103126103335780516001600160a01b0381168103610333576020820151906001600160a01b03821682036103335760408301516001600160a01b03811681036103335760608401516001600160a01b0381169490919085830361033357608001516001600160a01b03811681036103335760805260a05260c05260405163293c499960e01b8152602081600481875afa9081156103a1575f916103ac575b506101205261014052610100526040516388bc2ef360e01b815290602090829060049082905afa9081156103a1575f9161035f575b5060e0526040805161010982826103f7565b6001815260208101601f19830136823781511561034b576020905261014051825191906001600160a01b0316606083016001600160401b03811184821017610337578452825260208201915f835283810191825260018060a01b0360a0511691823b15610333578451631127c92960e21b81523060048201526024810186905291516001600160a01b0316604483015292516001600160401b03166064820152915160606084840152805160a48401819052839160c48301916020909101905f5b8181106103175750505091815f81819503925af1801561030d576102fd575b50516155f0908161041b823960805181818161072201528181610b8701526155b5015260a05181818161021c015281816109d2015281816146ae015281816149d301528181614ab701528181614b9b0152614d31015260c05181818161026001528181612b2c01528181613d1c015281816141560152818161489e01528181614ecb0152614fc1015260e0518181816106de01528181614e800152614f7a01526101005181818161040d015261519001526101205181818161080401528181610e8b01528181610f0d01528181613c9301528181613daf01528181613e16015281816140e0015261479101526101405181818161033b015281816108ea015281816127bc015281816130220152613ed50152f35b5f610307916103f7565b5f6101e9565b82513d5f823e3d90fd5b825160ff168452869450602093840193909201916001016101ca565b5f80fd5b634e487b7160e01b5f52604160045260245ffd5b634e487b7160e01b5f52603260045260245ffd5b90506020813d602011610399575b8161037a602093836103f7565b8101031261033357516001600160a01b0381168103610333575f6100f7565b3d915061036d565b6040513d5f823e3d90fd5b90506020939193813d6020116103ef575b816103ca602093836103f7565b810103126103335751916001600160a01b0383168303610333579092909160046100c2565b3d91506103bd565b601f909101601f19168101906001600160401b038211908210176103375760405256fe6080806040526004361015610012575f80fd5b5f3560e01c90816301ffc9a714610f7957508063150b7a0214610eba578063293c499914610e765780632d99317314610d865780633141db7014610d2157806338945b5814610c785780634509224414610bbb578063572b6c0514610b67578063670d99be14610a85578063673706e8146107b05780636a19a70f146107515780637da0a8771461070d57806388bc2ef3146106c95780638cc35846146105f057806394e1cf571461055357806399f6d77f1461043c578063abf8c5c8146103f8578063b0401dab1461036a578063b5d2553314610326578063b64ce2c31461028f578063ee0fc1211461024b578063f434c914146102075763f672acac14610119575f80fd5b34610203576020366003190112610203576004356001600160401b038111610203576101c060031982360301126102035761015690600401613018565b91939060405194859460a0860193865260208601526040850152606084015260a06080840152815180915260c0830190602060c08260051b8601019301915f905b8282106101a657505050500390f35b919360019193955060206101f3819260bf198a8203018652608060608a51878060a01b03815116845285810151151586850152604081015160408501520151918160608201520190611cc3565b9601920192018594939192610197565b5f80fd5b34610203575f366003190112610203576040517f00000000000000000000000000000000000000000000000000000000000000006001600160a01b03168152602090f35b34610203575f366003190112610203576040517f00000000000000000000000000000000000000000000000000000000000000006001600160a01b03168152602090f35b34610203576020366003190112610203576102ab600435612b0f565b90604051918291604083019083526040602084015281518091526020606084019201905f5b8181106102de575050500390f35b91935091602060806001926001600160801b03606088518051845260ff86820151168685015282604082015116604085015201511660608201520194019101918493926102d0565b34610203575f366003190112610203576040517f00000000000000000000000000000000000000000000000000000000000000006001600160a01b03168152602090f35b346102035761037836611cad565b905f60408051610387816110b6565b82815282602082015201525f525f60205260405f20905f52602052606060405f20604051906103b5826110b6565b5460018060a01b0381169182815260ff60406020830192828560a01c1615158452019260a81c161515825260405192835251151560208301525115156040820152f35b34610203575f366003190112610203576040517f00000000000000000000000000000000000000000000000000000000000000006001600160a01b03168152602090f35b346102035761016036600319011261020357610120366023190112610203576040516104678161109a565b60243565ffffffffffff8116810361020357815260443565ffffffffffff8116810361020357602082015260643565ffffffffffff8116810361020357604082015260843565ffffffffffff8116810361020357606082015260a43563ffffffff8116810361020357608082015260c4356001600160701b03811681036102035760a082015260e43563ffffffff811681036102035760c0820152610104356001600160a01b03811681036102035760e08201526101243561010082015261014435906001600160a01b03821682036102035760209161054991600435612789565b6040519015158152f35b34610203576080366003190112610203576024356001600160401b038111610203576105839036906004016118d4565b6044356001600160401b038111610203576105a2903690600401611370565b606435916001600160401b038311610203576105c56105d093369060040161103e565b9290916004356140ba565b604080519283526001600160a01b039091166020830152819081015b0390f35b34610203576020366003190112610203576004356001600160401b0381116102035761018060031982360301126102035761062d906004016121bc565b90604051918291604083019083526040602084015281518091526060830190602060608260051b8601019301915f905b82821061066c57505050500390f35b919360019193955060206106b98192605f198a8203018652608060608a51878060a01b03815116845285810151151586850152604081015160408501520151918160608201520190611cc3565b960192019201859493919261065d565b34610203575f366003190112610203576040517f00000000000000000000000000000000000000000000000000000000000000006001600160a01b03168152602090f35b34610203575f366003190112610203576040517f00000000000000000000000000000000000000000000000000000000000000006001600160a01b03168152602090f35b346102035761075f36611cad565b905f52600160205260405f20905f526020526040805f2060208251916107848361106b565b546001600160a01b03811680845260a09190911c60ff1615159190920181905282519182526020820152f35b34610203576040366003190112610203576024356004356001600160401b03821161020357816004019060406003198436030112610203576040516331a9108f60e11b8152600481018290526020816024817f00000000000000000000000000000000000000000000000000000000000000006001600160a01b03165afa90811561095c575f91610a4b575b5061084561558a565b6001600160a01b0382811691168082141580610992575b610967576108e55f86866108c78a61087584848b614c4e565b6108af6108bd61088361558a565b6040805160249590950135602086019081526001600160a01b0390921690850152929182906060820190565b03601f19810183528261115a565b5190209280611cfb565b604051639d7f900160e01b8152958694859491939160048601611de5565b0381837f00000000000000000000000000000000000000000000000000000000000000006001600160a01b03165af1801561095c576105ec915f9161093a575b50604051918291602083526020830190611800565b61095691503d805f833e61094e818361115a565b810190611d30565b82610925565b6040513d5f823e3d90fd5b908360849260405192631326f75560e11b845260048401526024830152604482015260216064820152fd5b50604051631a45b42760e11b81526004810182905260248101839052604481018590526021606482015260016084820181905260a482015260208160c4817f00000000000000000000000000000000000000000000000000000000000000006001600160a01b03165afa90811561095c575f91610a11575b501561085c565b90506020813d602011610a43575b81610a2c6020938361115a565b8101031261020357610a3d90611f1a565b87610a0a565b3d9150610a1f565b90506020813d602011610a7d575b81610a666020938361115a565b8101031261020357610a7790611ce7565b8461083c565b3d9150610a59565b60c036600319011261020357610a99611014565b6024356001600160401b03811161020357610ab890369060040161103e565b91906044356001600160401b03811161020357610ad9903690600401611370565b6064356001600160401b03811161020357610af89036906004016117d0565b6084929192356001600160401b03811161020357610b1a90369060040161103e565b93909260a435966001600160401b0388116102035760406003198936030112610203576105ec98610b589860040197610b5284613fbe565b92613c65565b6040939193519384938461183c565b34610203576020366003190112610203576020610b82611014565b6040517f00000000000000000000000000000000000000000000000000000000000000006001600160a01b039081169216919091148152f35b346102035760c0366003190112610203576024356001600160401b03811161020357610beb90369060040161103e565b6044356001600160401b03811161020357610c0a9036906004016118d4565b916064356001600160401b03811161020357610c2a903690600401611370565b6084356001600160401b03811161020357610c499036906004016117d0565b9160a435956001600160401b03871161020357610c6d6105d097369060040161103e565b969095600435614761565b346102035760a0366003190112610203576024356001600160401b03811161020357610ca890369060040161103e565b906044356001600160401b03811161020357610cc8903690600401611370565b916064356001600160401b03811161020357610ce89036906004016117d0565b90608435946001600160401b03861161020357610d0c6105d096369060040161103e565b959094610d1883613fbe565b91600435614761565b34610203576060366003190112610203576024356001600160401b03811161020357610d51903690600401611370565b604435906001600160401b03821161020357610d746105d092369060040161103e565b91610d7e81613fbe565b6004356140ba565b60e036600319011261020357610d9a611014565b6024356001600160401b03811161020357610db990369060040161103e565b9091604435906001600160401b0382116102035760606003198336030112610203576064356001600160401b03811161020357610dfa903690600401611370565b906084356001600160401b03811161020357610e1a9036906004016117d0565b9060a4356001600160401b03811161020357610e3a90369060040161103e565b94909360c435976001600160401b0389116102035760406003198a36030112610203576105ec99610b52610b589a6004019936906004016118d4565b34610203575f366003190112610203576040517f00000000000000000000000000000000000000000000000000000000000000006001600160a01b03168152602090f35b3461020357608036600319011261020357610ed3611014565b506024356001600160a01b03811690819003610203576064356001600160401b03811161020357610f0890369060040161103e565b5050337f00000000000000000000000000000000000000000000000000000000000000006001600160a01b031614801590610f70575b610f5457604051630a85bd0160e11b8152602090f35b6388470c7960e01b5f523360045260245260443560445260645ffd5b50801515610f3e565b34610203576020366003190112610203576004359063ffffffff60e01b82168092036102035760209163c1c8b89b60e01b8114908115611003575b8115610ff2575b8115610fe1575b8115610fd0575b5015158152f35b6301ffc9a760e01b14905083610fc9565b630a85bd0160e11b81149150610fc2565b63b64ce2c360e01b81149150610fbb565b63e347239560e01b81149150610fb4565b600435906001600160a01b038216820361020357565b35906001600160a01b038216820361020357565b9181601f84011215610203578235916001600160401b038311610203576020838186019501011161020357565b604081019081106001600160401b0382111761108657604052565b634e487b7160e01b5f52604160045260245ffd5b61012081019081106001600160401b0382111761108657604052565b606081019081106001600160401b0382111761108657604052565b61026081019081106001600160401b0382111761108657604052565b608081019081106001600160401b0382111761108657604052565b60e081019081106001600160401b0382111761108657604052565b61016081019081106001600160401b0382111761108657604052565b60a081019081106001600160401b0382111761108657604052565b90601f801991011681019081106001600160401b0382111761108657604052565b6001600160401b0381116110865760051b60200190565b359065ffffffffffff8216820361020357565b359063ffffffff8216820361020357565b359061ffff8216820361020357565b3590811515820361020357565b81601f82011215610203578035906111e98261117b565b926111f7604051948561115a565b828452602060c081860194028301019181831161020357602001925b828410611221575050505090565b60c084830312610203576040519060c082018281106001600160401b0382111761108657604052611251856111a5565b825260208501356001600160401b038116810361020357602083015260408501356001600160a01b0381168103610203576040830152611293606086016111c5565b60608301526112a460808601611192565b608083015260a0850135906001600160a01b0382168203610203578260209260a060c0950152815201930192611213565b81601f82011215610203578035906112ec8261117b565b926112fa604051948561115a565b82845260208085019360061b8301019181831161020357602001925b828410611324575050505090565b604084830312610203576040519061133b8261106b565b8435906001600160e01b03821682036102035782602092604094526113618388016111a5565b83820152815201930192611316565b9080601f83011215610203578135916113888361117b565b92611396604051948561115a565b80845260208085019160051b830101918383116102035760208101915b8383106113c257505050505090565b82356001600160401b038111610203578201808603601f1901906103408212610203576040519161010083018381106001600160401b038211176110865760405261140f60208301611192565b835261141d604083016111a5565b60208401526060820135906001600160701b03821682036102035761026091604085015261144d608084016111a5565b606085015261145e60a0840161102a565b6080850152609f19011261020357604051611478816110d1565b61148460c083016111b6565b815261149260e083016111b6565b60208201526114a461010083016111a5565b60408201526114b661012083016111c5565b60608201526114c861014083016111c5565b60808201526114da61016083016111c5565b60a08201526114ec61018083016111c5565b60c08201526114fe6101a083016111c5565b60e08201526115106101c083016111c5565b6101008201526115236101e083016111c5565b61012082015261153661020083016111c5565b61014082015261154961022083016111c5565b61016082015261155c61024083016111c5565b61018082015261156f61026083016111c5565b6101a082015261158261028083016111c5565b6101c08201526115956102a083016111c5565b6101e08201526115a86102c083016111c5565b6102008201526115bb6102e0830161102a565b6102208201526115ce61030083016111b6565b61024082015260a08301526103208101356001600160401b0381116102035760209082010187601f820112156102035780359061160a8261117b565b91611618604051938461115a565b80835260208084019160051b830101918a83116102035760208101915b838310611768575050505060c08301526103408101356001600160401b03811161020357602091010186601f82011215610203578035906116758261117b565b91611683604051938461115a565b80835260208084019160051b830101918983116102035760208101915b8383106116be575050505060e08201528152602092830192016113b3565b82356001600160401b038111610203578201906080828d03601f19011261020357604051906116ec826110ed565b6116f86020840161102a565b82526117066040840161102a565b602083015260608301356001600160401b038111610203578d602061172d928601016112d5565b60408301526080830135916001600160401b038311610203576117588e6020809695819601016112d5565b60608201528152019201916116a0565b82356001600160401b0381116102035782016040818e03601f19011261020357604051916117958361106b565b602082013583526040820135926001600160401b038411610203576117c18f60208096819601016111d2565b83820152815201920191611635565b9181601f84011215610203578235916001600160401b038311610203576020808501948460051b01011161020357565b90602080835192838152019201905f5b81811061181d5750505090565b82516001600160a01b0316845260209384019390920191600101611810565b9081526001600160a01b03909116602082015260606040820181905261186492910190611800565b90565b6001600160401b03811161108657601f01601f191660200190565b81601f820112156102035760208135910161189c82611867565b926118aa604051948561115a565b8284528282011161020357815f92602092838601378301015290565b359060ff8216820361020357565b919060608382031261020357604051906118ed826110b6565b819380356001600160401b038111610203578101908183036101608112610203576040519361191b85611108565b83356001600160401b0381116102035781611937918601611882565b855260208401356001600160401b0381116102035781611958918601611882565b602086015260408401356001600160401b038111610203578161197c918601611882565b604086015260608401356001600160a01b038116810361020357606086015260808401356001600160401b03811161020357816119ba918601611882565b608086015260a08401356001600160401b03811161020357840160608183031261020357604051916119eb836110b6565b81356001600160401b0381116102035782019080601f8301121561020357813591611a158361117b565b92611a23604051948561115a565b80845260208085019160051b830101918383116102035760208101915b838310611b0557505050505060408392611a709260a0969552611a65602082016111a5565b6020850152016118c6565b60408201528583015260bf190112610203576040928392611ae1610140855192611a998461113f565b611aa560c082016111c5565b8452611ab360e082016111c5565b6020850152611ac561010082016111c5565b87850152611ad661012082016111c5565b6060850152016111c5565b608082015260c08201528452611af9602082016111c5565b60208501520135910152565b82356001600160401b03811161020357820190818603601f19019061022082126102035760405191611b3683611123565b60208401356cffffffffffffffffffffffffff81168103610203578352611b5f604085016111a5565b6020840152611b70606085016111a5565b6040840152611b81608085016111b6565b6060840152611b9260a0850161102a565b608084015260c084013560a084015260e08401359062ffffff821682036102035760e09160c0850152611bc861010086016118c6565b8483015260ff19011261020357604051611be181611108565b611bee61012085016111c5565b8152611bfd61014085016111c5565b6020820152611c0f61016085016111c5565b6040820152611c2161018085016111c5565b6060820152611c336101a085016111c5565b6080820152611c456101c085016111c5565b60a0820152611c576101e085016111c5565b60c0820152610100830152611c6f61020084016111a5565b610120830152610220830135916001600160401b03831161020357611c9c886020809695819601016111d2565b610140820152815201920191611a40565b6040906003190112610203576004359060243590565b805180835260209291819084018484015e5f828201840152601f01601f1916010190565b51906001600160a01b038216820361020357565b903590601e198136030182121561020357018035906001600160401b03821161020357602001918160051b3603831361020357565b602081830312610203578051906001600160401b03821161020357019080601f83011215610203578151611d638161117b565b92611d71604051948561115a565b81845260208085019260051b82010192831161020357602001905b828210611d995750505090565b60208091611da684611ce7565b815201910190611d8c565b9035601e19823603018112156102035701602081359101916001600160401b03821161020357606082023603831361020357565b93919082916060860191865260208601526060604086015252608083019260808260051b82010193835f92605e1982360301905b858510611e2a575050505050505090565b90919293949596607f1982820301855287358381121561020357606082019190850180356001600160a01b0381169081900361020357608091611e7d918452602081013560208501526040810190611db1565b60606040850152938490529101915f905b808210611eaf57505050602080600192990195019501939594929190611e19565b909192606080600192838060a01b03611ec78861102a565b16815263ffffffff611edb602089016111a5565b16602082015260408701356040820152019401920190611e8e565b60405190611f03826110ed565b606080835f81525f60208201525f60408201520152565b5190811515820361020357565b81601f8201121561020357805190611f3e82611867565b92611f4c604051948561115a565b8284526020838301011161020357815f9260208093018386015e8301015290565b9190604083820312610203578251926020810151906001600160401b03821161020357019080601f8301121561020357815191611fa98361117b565b92611fb7604051948561115a565b80845260208085019160051b830101918383116102035760208101915b838310611fe357505050505090565b82516001600160401b038111610203578201906080828703601f1901126102035760405190612011826110ed565b60208301516001600160a01b038116810361020357825261203460408401611f1a565b6020830152606083015160408301526080830151916001600160401b0383116102035761206988602080969581960101611f27565b6060820152815201920191611fd4565b60609081906001600160a01b0361208f8261102a565b16845260ff6120a0602083016118c6565b16602085015263ffffffff6120b7604083016111a5565b1660408501520135910152565b9035601e19823603018112156102035701602081359101916001600160401b03821161020357813603831361020357565b908060209392818452848401375f828201840152601f01601f1916010190565b8051156121225760200190565b634e487b7160e01b5f52603260045260245ffd5b80518210156121225760209160051b010190565b919082608091031261020357604051612162816110ed565b60608082946121708161102a565b845261217e602082016118c6565b602085015261218f604082016111a5565b60408501520135910152565b919082018092116121a857565b634e487b7160e01b5f52601160045260245ffd5b905f9160c0810135805f52600160205260405f209360e083013594855f5260205260405f2060ff604051916121f08361106b565b546001600160a01b038116835260a01c1615156020820152612210611ef6565b935f915f975f935f905f9360018060a01b03905116806125f9575b5060a0850135908181106125ea5750505f965b6060975f93825f525f60205260405f20815f5260205260405f209260405193612266856110b6565b5460018060a01b03811680865260ff808360a01c1615159283602089015260a81c1615156040870152151590816125e2575b506123c3575b5050505050156123a4575b505050815185158061239c575b612391576122cf9086156123895760ff60015b1661219b565b926122d98461117b565b936122e7604051958661115a565b8085526122f6601f199161117b565b015f5b81811061237257505083905f96612354575b505f5b835181101561234b578061234461232760019387612136565b51612332838b61219b565b9061233d828a612136565b5287612136565b500161230e565b50939250935050565b6001965061236185612115565b5261236b84612115565b505f61230b565b60209061237d611ef6565b828289010152016122f9565b60ff5f6122c9565b509350606092915050565b5080156122b6565b91925090156123b757505b5f80806122a9565b610120915001356123af565b919399985091935061018086360312610203576040516123e28161109a565b6123eb8761102a565b81526123f96020880161102a565b906020810191825261240e3660408a0161214a565b93604082019485528a8201938452608082019081526124306101008a0161102a565b9a60a083019b8c526101208a01359b60c084018d815260e08501916101408d013583526101608d0135946001600160401b038611610203576125019b5f9b8f61247f9061254199369101611882565b6101008a019081528c51909701525160408051634661ac2360e11b815260206004820181905299516001600160a01b0390811660248301529a518b1660448201529b5180518b1660648e01529889015160ff1660848d015288015163ffffffff1660a48c015260609097015160c48b0152989a8b999690971697899788979190565b5160e488015251610104870152516001600160a01b03166101248601525161014485015251610164840152516101806101848401526101a4830190611cc3565b03915afa801561095c575f915f916125be575b5095819560019284806125b5575b806125ab575b612596575b505085158061258d575b612585575b8080808061229e565b94505f61257c565b50801515612577565b6125a39297508690614daf565b945f8061256d565b5081871415612568565b50811515612562565b90506125dc91503d805f833e6125d4818361115a565b810190611f6d565b5f612554565b90505f612298565b81039081116121a8579661223e565b604051634661ac2360e11b8152602060048201529650600194505f9087906001600160a01b036126288961102a565b1660248301526001600160a01b0361264260208a0161102a565b1660448301526126586064830160408a01612079565b60e482018b905261010482018690526001600160a01b0361267c6101008a0161102a565b1661012483015261012088013561014483015261014088013561016483015281806126c26126ae6101608c018c6120c4565b6101806101848501526101a48401916120f5565b03915afa95861561095c575f905f9761276a575b509580511561222b579a505096506126ee8299612115565b5196604088015160608901518051608081101561270c575b5061222b565b908092935001906080818303126102035761272960208201611ce7565b5061273660408201611ce7565b506060810151916001600160401b0383116102035760809260208061275f930191840101611f27565b500151905f80612706565b90506127819196503d805f833e6125d4818361115a565b95905f6126d6565b6040516383db9d0160e01b8152600481018290526001600160a01b038416602482015290929190602081806044810103817f00000000000000000000000000000000000000000000000000000000000000006001600160a01b03165afa90811561095c575f91612982575b5061297a57825f525f60205260405f2090602081019165ffffffffffff8351165f5260205260405f20936040519461282b866110b6565b5494604060ff60018060a01b03881697888452818160a01c161515602085015260a81c16151591015284612863575b50505050505f90565b65ffffffffffff946020946101006101649460405198899788966399f6d77f60e01b885260048801528183511660248801525116604486015265ffffffffffff604082015116606486015265ffffffffffff606082015116608486015263ffffffff60808201511660a48601526001600160701b0360a08201511660c486015263ffffffff60c08201511660e486015260018060a01b0360e082015116610104860152015161012484015260018060a01b03166101448301525afa90811561095c575f91612940575b5061293b575f8080808061285a565b600190565b90506020813d602011612972575b8161295b6020938361115a565b810103126102035761296c90611f1a565b5f61292c565b3d915061294e565b505050600190565b90506020813d6020116129b4575b8161299d6020938361115a565b81010312610203576129ae90611f1a565b5f6127f4565b3d9150612990565b519065ffffffffffff8216820361020357565b519063ffffffff8216820361020357565b919082610120910312610203576040516129f98161109a565b8092612a04816129bc565b8252612a12602082016129bc565b6020830152612a23604082016129bc565b6040830152612a34606082016129bc565b6060830152612a45608082016129cf565b608083015260a08101516001600160701b03811681036102035760a0830152612a7060c082016129cf565b60c083015260e08101516001600160a01b03811681036102035760e083015261010090810151910152565b519061ffff8216820361020357565b60405190612ab960208361115a565b5f80835282815b828110612acc57505050565b602090604051612adb816110ed565b5f81525f838201525f60408201525f606082015282828501015201612ac0565b51906001600160801b038216820361020357565b6040516320c94b1360e11b815260048101829052610380816024817f00000000000000000000000000000000000000000000000000000000000000006001600160a01b03165afa90811561095c575f91612d46575b50815f525f60205265ffffffffffff602060405f20920151165f5260205260405f2060405190612b93826110b6565b5460ff60018060a01b03821691828452818160a01c161515602085015260a81c161515604083015215612d3c575160405163b64ce2c360e01b602082019081526024808301949094529281525f9283926001600160a01b031691612bf860448261115a565b51915afa903d15612d34573d91612c0e83611867565b92612c1c604051948561115a565b83523d5f602085013e5b158015612d29575b612d1b5781518201916020830192604082820312610203576020820151916040810151906001600160401b03821161020357019380603f8601121561020357602085015191612c7c8361117b565b95612c8a604051978861115a565b8387526020808089019560071b8301010192831161020357604001925b828410612cb657505050509190565b6080602085840301126102035760405190612cd0826110ed565b8451825260208501519060ff821682036102035782602092836080950152612cfa60408801612afb565b6040820152612d0b60608801612afb565b6060820152815201930192612ca7565b9050612d25612aaa565b5f91565b506060825110612c2e565b606091612c26565b5050612d25612aaa565b90506103803d8111612ef3575b612d5d818361115a565b81019080820391610380831261020357612d7a61026091836129e0565b9261011f19011261020357610240612eea61036060405193612d9b856110d1565b612da86101208201612a9b565b8552612db76101408201612a9b565b6020860152612dc961016082016129cf565b6040860152612ddb6101808201611f1a565b6060860152612ded6101a08201611f1a565b6080860152612dff6101c08201611f1a565b60a0860152612e116101e08201611f1a565b60c0860152612e236102008201611f1a565b60e0860152612e356102208201611f1a565b610100860152612e46848201611f1a565b610120860152612e596102608201611f1a565b610140860152612e6c6102808201611f1a565b610160860152612e7f6102a08201611f1a565b610180860152612e926102c08201611f1a565b6101a0860152612ea56102e08201611f1a565b6101c0860152612eb86103008201611f1a565b6101e0860152612ecb6103208201611f1a565b610200860152612ede6103408201611ce7565b61022086015201612a9b565b9101525f612b64565b503d612d53565b919060a083820312610203578251926020810151926040820151926060830151926080810151906001600160401b03821161020357019080601f8301121561020357815191612f488361117b565b92612f56604051948561115a565b80845260208085019160051b830101918383116102035760208101915b838310612f8257505050505090565b82516001600160401b038111610203578201906080828703601f1901126102035760405190612fb0826110ed565b60208301516001600160a01b0381168103610203578252612fd360408401611f1a565b6020830152606083015160408301526080830151916001600160401b0383116102035761300888602080969581960101611f27565b6060820152815201920191612f73565b6001600160a01b037f00000000000000000000000000000000000000000000000000000000000000008116919060609060208301908135908116810361020357604080516383db9d0160e01b81529085013560048201526001600160a01b03919091166024820152602081604481885afa90811561095c575f91613749575b50613730576101608301359384608085013593849560a08101359485936101208301359561014084013580159081150361020357613615575b5060209060609560408501355f526001835260405f209a878601359b8c5f52845260405f20604051906131028261106b565b546001600160a01b03811680835260a09190911c60ff16151595909101859052801515948561360d575b50846134e5575b5060609b60408701355f525f60205260405f20815f5260205260405f20946040519561315e876110b6565b549060ff60018060a01b03831692838952818160a01c16151560208a015260a81c161515908160408901521591826134db575b50816134d3575b506132cd575b50505050505050815115908180926132c4575b6132b657501580806132ac575b1561328e5750845160010196876001116121a8576131db8861117b565b976131e9604051998a61115a565b8089526131f8601f199161117b565b015f5b81811061327757505061320e8892612115565b5161321889612115565b5261322288612115565b505f5b8651811015613266576132388188612136565b51908060010191826001116121a8578261325f916132586001958e612136565b528b612136565b5001613225565b5092959194509295505b9493929190565b602090613282611ef6565b82828d010152016131fb565b9692959396949091945f146132a4575091613270565b905091613270565b50855115156131be565b969794969395509193915050565b508651156131b1565b6101c087989e9d979c999c360312610203576132ff604051966132ef88611123565b6132f88a61102a565b885261102a565b60208701526040880135604087015286860152608085015260a08401526133293660c0870161214a565b60c084015261333b61014086016111c5565b60e084015261010083015261335361018085016111c5565b6101208301526001600160401b036101a085013511610203575f946133836101209536906101a081013501611882565b610140840190815261010084019a8b526080840191825260a0840189815260c08501805187018a9052935160408051633d9cab2b60e21b815260206004820181905288516001600160a01b039081166024840152818a015181166044840152838a01516064840152998901516084830152955160a4820152925160c484015294518051881660e48401529384015160ff166101048301529383015163ffffffff166101248201526060929092015161014483015260e084015115156101648301529951610184820152939091015115156101a484015296516101c06101c4840152919687929116908290819061347e906101e4830190611cc3565b03915afa92831561095c575f935f955f916134a4575b509493955f80808080808061319e565b919450506134c59194503d805f833e6134bd818361115a565b810190612efa565b96939150509390945f613494565b90505f613198565b151591505f613191565b604051633d9cab2b60e21b815260206004820152919d939b929a5093985096505f92879290916001600160a01b0361351c8861102a565b1660248501526001600160a01b036135338761102a565b166044850152604087013560648501528c608485015260a48401528960c484015261356460e4840160c08801612079565b61357161014087016111c5565b151561016484015261018483015261358c61018086016111c5565b15156101a483015281806135bb6135a76101a08901896120c4565b6101c06101c48501526101e48401916120f5565b03915afa94851561095c575f975f975f975f975f916135e1575b50969798999b5f613133565b939a5050965096506135fe9194503d805f833e6134bd818361115a565b9399929891979096935f6135d5565b94505f61312c565b6040805163139db5a960e31b815290850135600482015290979196916020826024818c5afa90811561095c575f916136fa575b613652925061219b565b9660e084013560ff8116809103610203576101008501359063ffffffff8216809203610203576064602092604051948593849263622c574160e11b845260408b01356004850152602484015260448301525afa90811561095c575f916136c7575b506136c09060209261219b565b95906130d0565b90506020813d6020116136f2575b816136e26020938361115a565b81010312610203575160206136b3565b3d91506136d5565b90506020823d602011613728575b816137156020938361115a565b8101031261020357613652915190613648565b3d9150613708565b505f936080830135935060a08301359261012001359190565b90506020813d60201161377b575b816137646020938361115a565b810103126102035761377590611f1a565b5f613097565b3d9150613757565b90602080835192838152019201905f5b8181106137a05750505090565b909192602060c0600192865163ffffffff81511682526001600160401b03848201511684830152848060a01b03604082015116604083015260608101511515606083015265ffffffffffff608082015116608083015260a08580821b039101511660a08201520194019101919091613793565b90602080835192838152019201905f5b8181106138305750505090565b825180516001600160e01b0316855260209081015163ffffffff168186015260409094019390920191600101613823565b9080602083519182815201916020808360051b8301019401925f915b83831061388c57505050505090565b9091929394601f19828203018352855161034082019065ffffffffffff815116835263ffffffff60208201511660208401526001600160701b03604082015116604084015263ffffffff606082015116606084015260018060a01b03608082015116608084015261ffff61024060a08301518281511660a08701528260208201511660c087015263ffffffff60408201511660e0870152606081015115156101008701526080810151151561012087015260a0810151151561014087015260c0810151151561016087015260e0810151151561018087015261010081015115156101a087015261012081015115156101c087015261014081015115156101e0870152610160810151151561020087015261018081015115156102208701526101a08101511515828701526101c081015115156102608701526101e0810151151561028087015261020081015115156102a087015260018060a01b03610220820151166102c08701520151166102e084015260c0810151916103406103008501528251809152610360840160206103608360051b8701019401915f5b818110613ae7575050505060e0015191610320818303910152815180825260208201906020808260051b8501019401925f5b828110613a7a5750505050506020806001929701930193019193929061387d565b9091929394602080613ada600193601f19878203018952895190858060a01b038251168152858060a01b038483015116848201526060613ac96040840151608060408501526080840190613813565b920151906060818403910152613813565b9701950193929101613a59565b90919294602080613b1660019361035f198b82030188526040838b518051845201519181858201520190613783565b97019401929101613a27565b98979596949391613b5293613b44928b5260a060208c015260a08b01916120f5565b9088820360408a0152613861565b938685036060880152808552602085019460208260051b82010195835f92603e1982360301905b858510613b995750505050505050846080611864959685039101526120f5565b90919293949598601f1982820301855289358381121561020357604082019190850180356001600160a01b0381169081900361020357606091613be29184526020810190611db1565b60406020850152938490529101915f905b808210613c14575050506020806001929b0195019501939594929190613b79565b909192606080600192838060a01b03613c2c8861102a565b16815260ff613c3d602089016118c6565b16602082015263ffffffff613c54604089016111a5565b166040820152019401920190613bf3565b60405163180e2b1160e31b8152306004820152939a939960609994985f989297919592909160208d602481347f00000000000000000000000000000000000000000000000000000000000000006001600160a01b03165af197881561095c578e9d5f99613f7f575b50908894939291859f613cdf87614e64565b613ce99087615032565b9e8f9060200151151590613cfd9288615366565b6040516307128b6b60e31b8152978897613d1a9760048a01613b22565b7f00000000000000000000000000000000000000000000000000000000000000006001600160a01b031691839103815a6020945f91f1801561095c57613f50575b50613d6582614f5e565b6001600160a01b038716803b15610203575f80916024604051809481936351106b4b60e11b83528860048401525af1801561095c57613f3b575b50602081013580613e6a575b50507f00000000000000000000000000000000000000000000000000000000000000006001600160a01b03163b15613e6657604051632142170760e11b81523060048201526001600160a01b03928316602482015260448101919091529082908290606490829084907f0000000000000000000000000000000000000000000000000000000000000000165af18015613e5b57613e46575050565b613e5182809261115a565b613e585750565b80fd5b6040513d84823e3d90fd5b8280fd5b829650613eb090613e7e8387949587614c4e565b6108af6108bd613e8c61558a565b60408051602081019586526001600160a01b03909216908201529182906060820190565b92613ed06040519485938493639d7f900160e01b85528b60048601611de5565b0381837f00000000000000000000000000000000000000000000000000000000000000006001600160a01b03165af1908115613f30578391613f16575b50935f80613dab565b613f2a91503d8085833e61094e818361115a565b5f613f0d565b6040513d85823e3d90fd5b613f489194505f9061115a565b5f925f613d9f565b6020813d602011613f77575b81613f696020938361115a565b810103126102035751613d5b565b3d9150613f5c565b9d5093929190975060208d3d602011613fb6575b81613fa06020938361115a565b81010312610203578d9c5197909192935f613ccd565b3d9150613f93565b90604051613fcb816110b6565b604051613fd781611108565b6060815260606020820152606060408201525f606082015260606080820152604051614002816110b6565b606081525f60208201525f604082015260a08201526040516140238161113f565b5f81525f60208201525f60408201525f60608201525f608082015260c082015281525f60208201525f6040820152809280518015614089575060a060129263ffffffff6040836140738296612115565b5101510151166020838351015101525101510152565b6328a3030960e21b5f5260045260245ffd5b9081602091031261020357516001600160a01b03811681036102035790565b6040516331a9108f60e11b81526004810182905291945f949093929091906020816024817f00000000000000000000000000000000000000000000000000000000000000006001600160a01b03165afa90811561095c575f91614727575b5061412161558a565b6001600160a01b039182169116808214158061466e575b61464457505061414781614e64565b60405163d4a1b4b160e01b81527f00000000000000000000000000000000000000000000000000000000000000006001600160a01b03169390602081600481885afa90811561095c576024916020915f91614627575b506040516319fade8560e11b81526004810186905292839182906001600160a01b03165afa90811561095c575f916145f5575b50428110156145db5750865160a0015151511561430d576141f18783615032565b966001600160a01b03881690813b15610203575f80926024604051809581936351106b4b60e11b83528960048401525af191821561095c5789926142dc575b509261428d61425061427b96948a946020809a9801511515915b85615366565b93604051988997889687956303141db760e41b87526004870152606060248701526064860190613861565b848103600319016044860152916120f5565b03925af19182156142d057916142a1575091565b90506020813d6020116142c8575b816142bc6020938361115a565b81010312610203575191565b3d91506142af565b604051903d90823e3d90fd5b6020985088969491925061425061427b96946142fb5f61428d9461115a565b8b5f9b50949396985094965050614230565b60405163d4a1b4b160e01b8152909650602081600481875afa90811561095c57602491610140915f916145bc575b5060405163855a54ed60e01b81526004810185905292839182906001600160a01b03165afa90811561095c575f905f9261456f575b506020019065ffffffffffff82511615159081614534575b5080614504575b1561441e575165ffffffffffff16955b815f52600160205260405f20875f5260205260405f2096604051976143c38961106b565b549060ff602060018060a01b0384169a8b8152019260a01c16151582528880156144045750506020949261428d61425061427b96948b8b955115159161424a565b8490630b77705360e01b5f5260045260245260445260645ffd5b5060405163d4a1b4b160e01b8152602081600481875afa90811561095c57602491610120915f916144d5575b506040516321d1336160e11b81526004810185905292839182906001600160a01b03165afa90811561095c575f91614490575b506020015165ffffffffffff169561439f565b90506101203d81116144ce575b6144a7818361115a565b810161012082820312610203576144c760209165ffffffffffff936129e0565b915061447d565b503d61449d565b6144f7915060203d6020116144fd575b6144ef818361115a565b81019061409b565b5f61444a565b503d6144e5565b50815f52600160205260405f2065ffffffffffff8251165f5260205260018060a01b0360405f205416151561438f565b9050600681101561455b5760048114908115614552575b505f614388565b9050155f61454b565b634e487b7160e01b5f52602160045260245ffd5b9150506101403d81116145b5575b614587818361115a565b810161014082820312610203576145a161012091836129e0565b910151906006821015610203576020614370565b503d61457d565b6145d5915060203d6020116144fd576144ef818361115a565b5f61433b565b8263b357f5c560e01b5f526004526024524260445260645ffd5b90506020813d60201161461f575b816146106020938361115a565b8101031261020357515f6141d0565b3d9150614603565b61463e9150823d84116144fd576144ef818361115a565b5f61419d565b9160849260405192631326f75560e11b845260048401526024830152604482015260026064820152fd5b50604051631a45b42760e11b81526004810182905260248101839052604481018490526002606482015260016084820181905260a482015260208160c4817f00000000000000000000000000000000000000000000000000000000000000006001600160a01b03165afa90811561095c575f916146ed575b5015614138565b90506020813d60201161471f575b816147086020938361115a565b810103126102035761471990611f1a565b5f6146e6565b3d91506146fb565b90506020813d602011614759575b816147426020938361115a565b810103126102035761475390611ce7565b5f614118565b3d9150614735565b9896979092949795939195604051946331a9108f60e11b86525f958b600482015260208160248160018060a01b037f0000000000000000000000000000000000000000000000000000000000000000165afa90811561095c575f91614c14575b506147ca61558a565b6001600160a01b0391821691168082141580614b5b575b614b3057506001600160a01b036147f661558a565b168181141580614a77575b614a4c575088614943575b506148168b614e64565b614820878c615032565b996001600160a01b038b1694853b15610203575f809660248f604051998a9384926351106b4b60e11b845260048401525af1801561095c578d968d91614916575b50614899959493929161487e916020809b9c015115159189615366565b6040516307128b6b60e31b81529a8b98899860048a01613b22565b0381847f00000000000000000000000000000000000000000000000000000000000000006001600160a01b03165af19081156142d057906148e2575b6148e0915093614f5e565b565b506020813d60201161490e575b816148fc6020938361115a565b81010312610203576148e090516148d5565b3d91506148ef565b6020995061487e9150916149315f614899989796959461115a565b8d8a5f9b505091509192939495614861565b6001600160a01b0361495361558a565b168181141580614993575b614968575061480c565b908c60849260405192631326f75560e11b845260048401526024830152604482015260076064820152fd5b50604051631a45b42760e11b81526004810182905260248101839052604481018e90526007606482015260016084820181905260a482015260208160c4817f00000000000000000000000000000000000000000000000000000000000000006001600160a01b03165afa90811561095c575f91614a12575b501561495e565b90506020813d602011614a44575b81614a2d6020938361115a565b8101031261020357614a3e90611f1a565b5f614a0b565b3d9150614a20565b908c60849260405192631326f75560e11b8452600484015260248301526044820152600f6064820152fd5b50604051631a45b42760e11b81526004810182905260248101839052604481018e9052600f606482015260016084820181905260a482015260208160c4817f00000000000000000000000000000000000000000000000000000000000000006001600160a01b03165afa90811561095c575f91614af6575b5015614801565b90506020813d602011614b28575b81614b116020938361115a565b8101031261020357614b2290611f1a565b5f614aef565b3d9150614b04565b908c60849260405192631326f75560e11b845260048401526024830152604482015260036064820152fd5b50604051631a45b42760e11b81526004810182905260248101839052604481018e90526003606482015260016084820181905260a482015260208160c4817f00000000000000000000000000000000000000000000000000000000000000006001600160a01b03165afa90811561095c575f91614bda575b50156147e1565b90506020813d602011614c0c575b81614bf56020938361115a565b8101031261020357614c0690611f1a565b5f614bd3565b3d9150614be8565b90506020813d602011614c46575b81614c2f6020938361115a565b8101031261020357614c4090611ce7565b5f6147c1565b3d9150614c22565b905f5b614c5b8480611cfb565b9050811015614da957614c6e8480611cfb565b821015612122578160051b810135605e1982360301811215610203570160200135614c9b57600101614c51565b50909150614ca761558a565b6001600160a01b0392831692168083141580614cf1575b614cc757505050565b6084935060405192631326f75560e11b845260048401526024830152604482015260226064820152fd5b50604051631a45b42760e11b81526004810182905260248101849052604481018390526022606482015260016084820181905260a482015260208160c4817f00000000000000000000000000000000000000000000000000000000000000006001600160a01b03165afa90811561095c575f91614d70575b5015614cbe565b90506020813d8211614da1575b81614d8a6020938361115a565b8101031261020357614d9b90611f1a565b5f614d69565b3d9150614d7d565b50505050565b90915f198383099280830292838086109503948086039514614e425782851015614e2a5790829109600182190182168092046002816003021880820260020302808202600203028082026002030280820260020302808202600203028091026002030293600183805f03040190848311900302920304170290565b630c740aef60e31b5f5260045260245260445260645ffd5b505080925015614e50570490565b634e487b7160e01b5f52601260045260245ffd5b604051632eec7b5560e11b8152600481018290526020816024817f00000000000000000000000000000000000000000000000000000000000000006001600160a01b03165afa90811561095c575f91614f1c575b506001600160a01b0316908115614f18577f00000000000000000000000000000000000000000000000000000000000000006001600160a01b031690818303614f0057505050565b637da4da8b60e01b5f5260045260245260445260645ffd5b5050565b90506020813d602011614f56575b81614f376020938361115a565b8101031261020357516001600160a01b0381168103610203575f614eb8565b3d9150614f2a565b604051632eec7b5560e11b8152600481018290526020816024817f00000000000000000000000000000000000000000000000000000000000000006001600160a01b03165afa90811561095c575f91614ff0575b506001600160a01b03908116917f000000000000000000000000000000000000000000000000000000000000000090911690818303614f0057505050565b90506020813d60201161502a575b8161500b6020938361115a565b8101031261020357516001600160a01b0381168103610203575f614fb2565b3d9150614ffe565b906040815191015180155f1461532b57505f915b6040519283916337b4a3c360e11b83526004830152606060248301526150d86150af615099615083865161016060648801526101c4870190611cc3565b6020870151868203606319016084880152611cc3565b60408601518582036063190160a4870152611cc3565b60608501516001600160a01b031660c485015260808501518482036063190160e4860152611cc3565b9260a0810151936063198482030161010485015260608101948051956060835286518091526080830190602060808260051b8601019801915f905b828210615202575050505060c060209693869593604060ff818663ffffffff8d6080990151168d8601520151169101520151805115156101248601528681015115156101448601526040810151151561016486015260608101511515610184860152015115156101a4840152604483015203815f60018060a01b037f0000000000000000000000000000000000000000000000000000000000000000165af190811561095c575f916151c3575090565b90506020813d6020116151fa575b816151de6020938361115a565b8101031261020357516001600160a01b03811681036102035790565b3d91506151d1565b9193949596975091976020806153186001936102206101408e607f198d8503018952516cffffffffffffffffffffffffff815116845263ffffffff86820151168685015263ffffffff604082015116604085015261ffff6060820151166060850152878060a01b03608082015116608085015260a081015160a085015262ffffff60c08201511660c085015260ff60e08201511660e085015260c0610100820151805115156101008701528781015115156101208701526040810151151584870152606081015115156101608701526080810151151561018087015260a081015115156101a0870152015115156101c085015263ffffffff610120820151166101e0850152015191816102008201520190613783565b9a01920192018997969594939192615113565b61533361558a565b604080516001600160a01b039092166020830190815282820193909352815261535d60608261115a565b51902091615046565b90919392935f5b835181101561558257615380814261219b565b306001600160a01b0361022060a0615398868a612136565b5101510151161461554c57906001916154106040516153b68161106b565b60a085811b86900387811683528b151560208085019182525f8b815289825260408082208983529092522093518454915160ff60a01b1991909316166001600160a81b03199091161790151590911b60ff60a01b16179055565b828060a01b0361022060a0615425858a612136565b510151015116615476575b503061022060a06154418489612136565b5101510152816101e060a06154568489612136565b51015101528161020060a061546b8489612136565b51015101520161536d565b828060a01b0361022060a061548b858a612136565b5101510151169061552d6101e060a06154a4868b612136565b5101510151151561020060a06154ba878c612136565b5101510151151592604051946154cf866110b6565b8552602080860192835260408087019586525f8b815280835281812093815292909152902093518454915160ff60a01b1960a089811b8a900393909316166001600160a81b031990931692909217911515901b60ff60a01b16178355565b51815460ff60a81b191690151560a81b60ff60a81b161790555f615430565b836001600160a01b0361022060a0615564868a612136565b510151015116630b77705360e01b5f5260045260245260445260645ffd5b509193505050565b6014361015806155b1575b156155ad576013193601368111610203573560601c90565b3390565b50337f00000000000000000000000000000000000000000000000000000000000000006001600160a01b03161461559556fea164736f6c634300081c000a",
	"gitCommit": "npm:@bananapus/omnichain-deployers-v6@0.0.58",
	"gitDirty": false,
	"history": []
}